{
  "abi": [
    {
      "inputs": [],
      "stateMutability": "nonpayable",
      "type": "constructor"
    },
    {
      "inputs": [],
      "name": "ADDR_LABEL",
      "outputs": [
        {
          "internalType": "bytes32",
          "name": "",
          "type": "bytes32"
        }
      ],
      "stateMutability": "view",
      "type": "function"
    },
    {
      "inputs": [],
      "name": "RESOLVER_LABEL",
      "outputs": [
        {
          "internalType": "bytes32",
          "name": "",
          "type": "bytes32"
        }
      ],
      "stateMutability": "view",
      "type": "function"
    },
    {
      "inputs": [],
      "name": "REVERSE_REGISTRAR_LABEL",
      "outputs": [
        {
          "internalType": "bytes32",
          "name": "",
          "type": "bytes32"
        }
      ],
      "stateMutability": "view",
      "type": "function"
    },
    {
      "inputs": [],
      "name": "TLD_LABEL",
      "outputs": [
        {
          "internalType": "bytes32",
          "name": "",
          "type": "bytes32"
        }
      ],
      "stateMutability": "view",
      "type": "function"
    },
    {
      "inputs": [],
      "name": "ens",
      "outputs": [
        {
          "internalType": "contract ENSRegistry",
          "name": "",
          "type": "address"
        }
      ],
      "stateMutability": "view",
      "type": "function"
    },
    {
      "inputs": [],
      "name": "fifsRegistrar",
      "outputs": [
        {
          "internalType": "contract FIFSRegistrar",
          "name": "",
          "type": "address"
        }
      ],
      "stateMutability": "view",
      "type": "function"
    },
    {
      "inputs": [
        {
          "internalType": "bytes32",
          "name": "node",
          "type": "bytes32"
        },
        {
          "internalType": "bytes32",
          "name": "label",
          "type": "bytes32"
        }
      ],
      "name": "namehash",
      "outputs": [
        {
          "internalType": "bytes32",
          "name": "",
          "type": "bytes32"
        }
      ],
      "stateMutability": "pure",
      "type": "function"
    },
    {
      "inputs": [],
      "name": "publicResolver",
      "outputs": [
        {
          "internalType": "contract PublicResolver",
          "name": "",
          "type": "address"
        }
      ],
      "stateMutability": "view",
      "type": "function"
    },
    {
      "inputs": [],
      "name": "reverseRegistrar",
      "outputs": [
        {
          "internalType": "contract ReverseRegistrar",
          "name": "",
          "type": "address"
        }
      ],
      "stateMutability": "view",
      "type": "function"
    }
  ],
  "bytecode": {
    "object": "0x608060405234801561001057600080fd5b5060405161001d906105c5565b604051809103906000f080158015610039573d6000803e3d6000fd5b50600080546001600160a01b0319166001600160a01b03929092169182178155604051610065906105d2565b6001600160a01b03928316815291166020820152604001604051809103906000f080158015610098573d6000803e3d6000fd5b50600380546001600160a01b0319166001600160a01b03929092169190911790556040805160006020808301829052600080516020614dc083398151915283850152835180840385018152606090930190935281519190920120600080546040516306ab592360e01b81526004810192909252600080516020614dc083398151915260248301523060448301529192506001600160a01b03909116906306ab592390606401602060405180830381600087803b15801561015757600080fd5b505af115801561016b573d6000803e3d6000fd5b505050506040513d601f19601f8201168201806040525081019061018f91906105f9565b50600054600354604051630c4b7b8560e11b8152600481018490526001600160a01b039182166024820152911690631896f70a90604401600060405180830381600087803b1580156101e057600080fd5b505af11580156101f4573d6000803e3d6000fd5b505060035460405162d5fa2b60e81b8152600481018590526001600160a01b0390911660248201819052925063d5fa2b009150604401600060405180830381600087803b15801561024457600080fd5b505af1158015610258573d6000803e3d6000fd5b5050600080546001600160a01b031692506102a99150600080516020614da0833981519152604080516020808201949094528082019290925280518083038201815260609092019052805191012090565b6040516102b5906105df565b6001600160a01b0390921682526020820152604001604051809103906000f0801580156102e6573d6000803e3d6000fd5b50600180546001600160a01b0319166001600160a01b03928316908117909155600080546040516306ab592360e01b81526004810192909252600080516020614da0833981519152602483015260448201929092529116906306ab592390606401602060405180830381600087803b15801561036157600080fd5b505af1158015610375573d6000803e3d6000fd5b505050506040513d601f19601f8201168201806040525081019061039991906105f9565b506000546003546040516001600160a01b0392831692909116906103bc906105ec565b6001600160a01b03928316815291166020820152604001604051809103906000f0801580156103ef573d6000803e3d6000fd5b50600280546001600160a01b0319166001600160a01b03928316179055600080546040516306ab592360e01b815260048101929092527fdec08c9dbbdd0890e300eb5062089b2d4b1c40e3673bbccb5423f7b37dcf9a9c6024830152306044830152909116906306ab592390606401602060405180830381600087803b15801561047857600080fd5b505af115801561048c573d6000803e3d6000fd5b505050506040513d601f19601f820116820180604052508101906104b091906105f9565b50600080546001600160a01b0316906306ab592390610516907fdec08c9dbbdd0890e300eb5062089b2d4b1c40e3673bbccb5423f7b37dcf9a9c604080516020808201949094528082019290925280518083038201815260609092019052805191012090565b60025460405160e084901b6001600160e01b031916815260048101929092527fe5e14487b78f85faa6e1808e89246cf57dd34831548ff2e6097380d98db2504a60248301526001600160a01b03166044820152606401602060405180830381600087803b15801561058657600080fd5b505af115801561059a573d6000803e3d6000fd5b505050506040513d601f19601f820116820180604052508101906105be91906105f9565b5050610612565b6109e68061083583390190565b6126bb8061121b83390190565b6102e2806138d683390190565b6111e880613bb883390190565b60006020828403121561060b57600080fd5b5051919050565b610214806106216000396000f3fe608060405234801561001057600080fd5b50600436106100935760003560e01c80638086985311610066578063808698531461015e5780639368678f14610171578063d1131c7214610198578063f8256121146101bf578063fd3fa181146101d257600080fd5b80631d9273c7146100985780633f15457f146100e55780635ecb2502146101105780637d70c65914610137575b600080fd5b6100d26100a63660046101e5565b604080516020808201949094528082019290925280518083038201815260609092019052805191012090565b6040519081526020015b60405180910390f35b6000546100f8906001600160a01b031681565b6040516001600160a01b0390911681526020016100dc565b6100d27f329539a1d23af1810c48a07fe7fc66a3b34fbc8b37e9b3cdb97bb88ceab7e4bf81565b6100d27fdec08c9dbbdd0890e300eb5062089b2d4b1c40e3673bbccb5423f7b37dcf9a9c81565b6002546100f8906001600160a01b031681565b6100d27fe5e14487b78f85faa6e1808e89246cf57dd34831548ff2e6097380d98db2504a81565b6100d27f4f5b812789fc606be1b3b16908db13fc7a9adf7ca72641f84d75b47069d3d7f081565b6003546100f8906001600160a01b031681565b6001546100f8906001600160a01b031681565b600080604083850312156101f857600080fd5b5050803592602090910135915056fea164736f6c6343000806000a608060405234801561001057600080fd5b5060008080526020527fad3228b676f7d3cd4284a5443f17f1962b36e491b30a40b2405849e597ba5fb580546001600160a01b0319163317905561098d806100596000396000f3fe608060405234801561001057600080fd5b50600436106100b45760003560e01c80635b0fc9c3116100715780635b0fc9c3146101ab5780635ef2c7f0146101be578063a22cb465146101d1578063cf408823146101e4578063e985e9c5146101f7578063f79fe5381461024357600080fd5b80630178b8bf146100b957806302571be31461010257806306ab59231461011557806314ab90381461013657806316a25cbd1461014b5780631896f70a14610198575b600080fd5b6100e56100c7366004610848565b6000908152602081905260409020600101546001600160a01b031690565b6040516001600160a01b0390911681526020015b60405180910390f35b6100e5610110366004610848565b61026e565b6101286101233660046108d1565b61029d565b6040519081526020016100f9565b61014961014436600461095d565b61036d565b005b61017f610159366004610848565b600090815260208190526040902060010154600160a01b900467ffffffffffffffff1690565b60405167ffffffffffffffff90911681526020016100f9565b6101496101a6366004610861565b610440565b6101496101b9366004610861565b610505565b6101496101cc366004610906565b6105a7565b6101496101df36600461080c565b6105c9565b6101496101f2366004610884565b610635565b6102336102053660046107d9565b6001600160a01b03918216600090815260016020908152604080832093909416825291909152205460ff1690565b60405190151581526020016100f9565b610233610251366004610848565b6000908152602081905260409020546001600160a01b0316151590565b6000818152602081905260408120546001600160a01b0316308114156102975750600092915050565b92915050565b60008381526020819052604081205484906001600160a01b0316338114806102e857506001600160a01b038116600090815260016020908152604080832033845290915290205460ff165b6102f157600080fd5b604080516020808201899052818301889052825180830384018152606090920190925280519101206103238186610650565b6040516001600160a01b0386168152869088907fce0457fe73731f824cc272376169235128c118b49d344817417c6d108d155e829060200160405180910390a39695505050505050565b60008281526020819052604090205482906001600160a01b0316338114806103b857506001600160a01b038116600090815260016020908152604080832033845290915290205460ff165b6103c157600080fd5b60405167ffffffffffffffff8416815284907f1d4f9bbfc9cab89d66e1a1562f2233ccbf1308cb4f63de2ead5787adddb8fa689060200160405180910390a25050600091825260208290526040909120600101805467ffffffffffffffff909216600160a01b0267ffffffffffffffff60a01b19909216919091179055565b60008281526020819052604090205482906001600160a01b03163381148061048b57506001600160a01b038116600090815260016020908152604080832033845290915290205460ff165b61049457600080fd5b6040516001600160a01b038416815284907f335721b01866dc23fbee8b6b2c7b1e14d6f05c28cd35a2c934239f94095602a09060200160405180910390a2505060009182526020829052604090912060010180546001600160a01b0319166001600160a01b03909216919091179055565b60008281526020819052604090205482906001600160a01b03163381148061055057506001600160a01b038116600090815260016020908152604080832033845290915290205460ff165b61055957600080fd5b6105638484610650565b6040516001600160a01b038416815284907fd4735d920b0f87494915f556dd9b54c8f309026070caea5c737245152564d2669060200160405180910390a250505050565b60006105b486868661029d565b90506105c181848461067e565b505050505050565b3360008181526001602090815260408083206001600160a01b03871680855290835292819020805460ff191686151590811790915590519081529192917f17307eab39ab6107e8899845ad3d59bd9653f200f220920489ca2b5937696c31910160405180910390a35050565b61063f8484610505565b61064a84838361067e565b50505050565b60009182526020829052604090912080546001600160a01b0319166001600160a01b03909216919091179055565b6000838152602081905260409020600101546001600160a01b03838116911614610704576000838152602081815260409182902060010180546001600160a01b0319166001600160a01b038616908117909155915191825284917f335721b01866dc23fbee8b6b2c7b1e14d6f05c28cd35a2c934239f94095602a0910160405180910390a25b60008381526020819052604090206001015467ffffffffffffffff828116600160a01b90920416146107a05760008381526020818152604091829020600101805467ffffffffffffffff60a01b1916600160a01b67ffffffffffffffff861690810291909117909155915191825284917f1d4f9bbfc9cab89d66e1a1562f2233ccbf1308cb4f63de2ead5787adddb8fa68910160405180910390a25b505050565b80356001600160a01b03811681146107bc57600080fd5b919050565b803567ffffffffffffffff811681146107bc57600080fd5b600080604083850312156107ec57600080fd5b6107f5836107a5565b9150610803602084016107a5565b90509250929050565b6000806040838503121561081f57600080fd5b610828836107a5565b91506020830135801515811461083d57600080fd5b809150509250929050565b60006020828403121561085a57600080fd5b5035919050565b6000806040838503121561087457600080fd5b82359150610803602084016107a5565b6000806000806080858703121561089a57600080fd5b843593506108aa602086016107a5565b92506108b8604086016107a5565b91506108c6606086016107c1565b905092959194509250565b6000806000606084860312156108e657600080fd5b83359250602084013591506108fd604085016107a5565b90509250925092565b600080600080600060a0868803121561091e57600080fd5b8535945060208601359350610935604087016107a5565b9250610943606087016107a5565b9150610951608087016107c1565b90509295509295909350565b6000806040838503121561097057600080fd5b82359150610803602084016107c156fea164736f6c6343000806000a60806040523480156200001157600080fd5b50604051620026bb380380620026bb833981016040819052620000349162000066565b600b80546001600160a01b039384166001600160a01b031991821617909155600c8054929093169116179055620000be565b600080604083850312156200007a57600080fd5b82516200008781620000a5565b60208401519092506200009a81620000a5565b809150509250929050565b6001600160a01b0381168114620000bb57600080fd5b50565b6125ed80620000ce6000396000f3fe608060405234801561001057600080fd5b506004361061018e5760003560e01c806377372213116100de578063bc1c58d111610097578063d5fa2b0011610071578063d5fa2b00146103e3578063e59d895d146103f6578063e985e9c514610409578063f1cb7e061461044557600080fd5b8063bc1c58d114610380578063c869023314610393578063ce3decdc146103d057600080fd5b806377372213146103015780638b95dd7114610314578063a22cb46514610327578063a8fa56821461033a578063ac9650d81461034d578063ad5780af1461036d57600080fd5b8063304e6ade1161014b57806359d1d43c1161012557806359d1d43c146102a85780635c98042b146102c8578063623195b0146102db578063691f3431146102ee57600080fd5b8063304e6ade146102425780633b3b57de146102555780634cbf6ba41461026857600080fd5b806301ffc9a7146101935780630af179d7146101bb57806310f13a8c146101d0578063124a319c146101e35780632203ab561461020e57806329cd62ea1461022f575b600080fd5b6101a66101a1366004612274565b610458565b60405190151581526020015b60405180910390f35b6101ce6101c9366004612097565b610483565b005b6101ce6101de3660046120e3565b61066e565b6101f66101f1366004612036565b61071b565b6040516001600160a01b0390911681526020016101b2565b61022161021c366004611fa8565b610953565b6040516101b292919061241e565b6101ce61023d366004611fca565b610a6e565b6101ce610250366004612097565b610aee565b6101f6610263366004611f6a565b610b4d565b6101a6610276366004611fa8565b600091825260066020908152604080842060048352818520548552825280842092845291905290205461ffff16151590565b6102bb6102b6366004612097565b610b80565b6040516101b29190612386565b6102bb6102d6366004611f6a565b610c45565b6101ce6102e936600461215d565b610ce7565b6102bb6102fc366004611f6a565b610d68565b6101ce61030f366004612097565b610d85565b6101ce6103223660046121b0565b610de4565b6101ce610335366004611ec2565b610eaf565b6102bb610348366004611ff6565b610f8a565b61036061035b366004611ef5565b610fcd565b6040516101b29190612310565b6101ce61037b366004611f6a565b6110e8565b6102bb61038e366004611f6a565b611149565b6103bb6103a1366004611f6a565b600090815260096020526040902080546001909101549091565b604080519283526020830191909152016101b2565b6101ce6103de366004612097565b611166565b6101ce6103f1366004611f83565b611272565b6101ce610404366004612062565b611299565b6101a6610417366004611e89565b6001600160a01b039182166000908152600d6020908152604080832093909416825291909152205460ff1690565b6102bb610453366004611fa8565b611326565b60006001600160e01b03198216631592ca1b60e31b148061047d575061047d826113d4565b92915050565b8261048d816113f9565b61049657600080fd5b6000806060806000806104e360008a8a8080601f01602080910402602001604051908101604052809392919081815260200183838082843760009201919091525092939250506115509050565b90505b805151602082015110156106095761ffff8616610548578060400151955061050d816115b1565b93508360405160200161052091906122f4565b604051602081830303815290604052805190602001209150610541816115d2565b92506105fb565b6000610553826115b1565b9050816040015161ffff168761ffff16141580610577575061057585826115ee565b155b156105f9576105d28b86898d8d8080601f016020809104026020016040519081016040528093929190818152602001838380828437600092019190915250505060208801518c91506105ca908290612496565b8a511561160c565b8160400151965081602001519550809450848051906020012092506105f6826115d2565b93505b505b6106048161184e565b6104e6565b50825115610663576106638984878b8b8080601f0160208091040260200160405190810160405280939291908181526020018383808284376000920191909152508b925061065b91508290508e612496565b88511561160c565b505050505050505050565b84610678816113f9565b61068157600080fd5b8282600a600089815260200190815260200160002087876040516106a69291906122e4565b9081526040519081900360200190206106c0929091611cc3565b5084846040516106d19291906122e4565b6040518091039020867fd8c9334b1a9c2f9da342a0a2b32629c1a229b6445dad78947f674b44444a7550878760405161070b929190612372565b60405180910390a3505050505050565b60008281526007602090815260408083206001600160e01b0319851684529091528120546001600160a01b0316801561075557905061047d565b600061076085610b4d565b90506001600160a01b03811661077b5760009250505061047d565b6040516301ffc9a760e01b602482015260009081906001600160a01b0384169060440160408051601f198184030181529181526020820180516001600160e01b03166301ffc9a760e01b179052516107d391906122f4565b600060405180830381855afa9150503d806000811461080e576040519150601f19603f3d011682016040523d82523d6000602084013e610813565b606091505b5091509150811580610826575060208151105b80610850575080601f8151811061083f5761083f61259f565b01602001516001600160f81b031916155b1561086257600094505050505061047d565b6040516001600160e01b0319871660248201526001600160a01b0384169060440160408051601f198184030181529181526020820180516001600160e01b03166301ffc9a760e01b179052516108b891906122f4565b600060405180830381855afa9150503d80600081146108f3576040519150601f19603f3d011682016040523d82523d6000602084013e6108f8565b606091505b50909250905081158061090c575060208151105b80610936575080601f815181106109255761092561259f565b01602001516001600160f81b031916155b1561094857600094505050505061047d565b509095945050505050565b600082815260208190526040812060609060015b848111610a4e5780851615801590610997575060008181526020839052604081208054610993906124fb565b9050115b15610a4657808260008381526020019081526020016000208080546109bb906124fb565b80601f01602080910402602001604051908101604052809291908181526020018280546109e7906124fb565b8015610a345780601f10610a0957610100808354040283529160200191610a34565b820191906000526020600020905b815481529060010190602001808311610a1757829003601f168201915b50505050509050935093505050610a67565b60011b610967565b5060006040518060200160405280600081525092509250505b9250929050565b82610a78816113f9565b610a8157600080fd5b60408051808201825284815260208082018581526000888152600983528490209251835551600190920191909155815185815290810184905285917f1d6f5e03d3f63eb58751986629a5439baee5079ff04f345becb66e23eb154e4691015b60405180910390a250505050565b82610af8816113f9565b610b0157600080fd5b6000848152600260205260409020610b1a908484611cc3565b50837fe379c1624ed7e714cc0937528a32359d69d5281337765313dba4e081b72d75788484604051610ae0929190612372565b600080610b5b83603c611326565b9050805160001415610b705750600092915050565b610b7981611936565b9392505050565b6060600a60008581526020019081526020016000208383604051610ba59291906122e4565b90815260200160405180910390208054610bbe906124fb565b80601f0160208091040260200160405190810160405280929190818152602001828054610bea906124fb565b8015610c375780601f10610c0c57610100808354040283529160200191610c37565b820191906000526020600020905b815481529060010190602001808311610c1a57829003601f168201915b505050505090509392505050565b6000818152600360205260409020805460609190610c62906124fb565b80601f0160208091040260200160405190810160405280929190818152602001828054610c8e906124fb565b8015610cdb5780601f10610cb057610100808354040283529160200191610cdb565b820191906000526020600020905b815481529060010190602001808311610cbe57829003601f168201915b50505050509050919050565b83610cf1816113f9565b610cfa57600080fd5b83610d06600182612496565b1615610d1157600080fd5b6000858152602081815260408083208784529091529020610d33908484611cc3565b50604051849086907faa121bbeef5f32f5961a2a28966e769023910fc9479059ee3495d4c1a696efe390600090a35050505050565b6000818152600860205260409020805460609190610c62906124fb565b82610d8f816113f9565b610d9857600080fd5b6000848152600860205260409020610db1908484611cc3565b50837fb7d29e911041e8d9b843369e890bcb72c9388692ba48b65ac54e7214c4c348f78484604051610ae0929190612372565b82610dee816113f9565b610df757600080fd5b837f65412581168e88a1e60c6459d7f44ae83ad0832e670826c05a4e2476b57af7528484604051610e2992919061241e565b60405180910390a2603c831415610e8157837f52d7d861f09ab3d26239d492e8968629f95e9e318cf0b73bfddc441522a15fd2610e6584611936565b6040516001600160a01b03909116815260200160405180910390a25b600084815260016020908152604080832086845282529091208351610ea892850190611d47565b5050505050565b336001600160a01b0383161415610f1e5760405162461bcd60e51b815260206004820152602960248201527f455243313135353a2073657474696e6720617070726f76616c20737461747573604482015268103337b91039b2b63360b91b606482015260840160405180910390fd5b336000818152600d602090815260408083206001600160a01b03871680855290835292819020805460ff191686151590811790915590519081529192917f17307eab39ab6107e8899845ad3d59bd9653f200f220920489ca2b5937696c31910160405180910390a35050565b6000838152600560209081526040808320600483528184205484528252808320858452825280832061ffff851684529091529020805460609190610bbe906124fb565b60608167ffffffffffffffff811115610fe857610fe86125b5565b60405190808252806020026020018201604052801561101b57816020015b60608152602001906001900390816110065790505b50905060005b828110156110e1576000803086868581811061103f5761103f61259f565b90506020028101906110519190612437565b60405161105f9291906122e4565b600060405180830381855af49150503d806000811461109a576040519150601f19603f3d011682016040523d82523d6000602084013e61109f565b606091505b5091509150816110ae57600080fd5b808484815181106110c1576110c161259f565b6020026020010181905250505080806110d990612558565b915050611021565b5092915050565b806110f2816113f9565b6110fb57600080fd5b600082815260046020526040812080549161111583612558565b909155505060405182907fb757169b8492ca2f1c6619d9d76ce22803035c3b1d5f6930dffe7b127c1a198390600090a25050565b6000818152600260205260409020805460609190610c62906124fb565b82611170816113f9565b61117957600080fd5b60008481526003602052604081208054611192906124fb565b80601f01602080910402602001604051908101604052809291908181526020018280546111be906124fb565b801561120b5780601f106111e05761010080835404028352916020019161120b565b820191906000526020600020905b8154815290600101906020018083116111ee57829003601f168201915b505050600088815260036020526040902092935061122e92915086905085611cc3565b50847f8f15ed4b723ef428f250961da8315675b507046737e19319fc1a4d81bfe87f8582868660405161126393929190612399565b60405180910390a25050505050565b8161127c816113f9565b61128557600080fd5b61129483603c61032285611955565b505050565b826112a3816113f9565b6112ac57600080fd5b60008481526007602090815260408083206001600160e01b031987168085529083529281902080546001600160a01b0319166001600160a01b038716908117909155905190815286917f7c69f06bea0bdef565b709e93a147836b0063ba2dd89f02d0b7e8d931e6a6daa910160405180910390a350505050565b6000828152600160209081526040808320848452909152902080546060919061134e906124fb565b80601f016020809104026020016040519081016040528092919081815260200182805461137a906124fb565b80156113c75780601f1061139c576101008083540402835291602001916113c7565b820191906000526020600020905b8154815290600101906020018083116113aa57829003601f168201915b5050505050905092915050565b60006001600160e01b03198216631674750f60e21b148061047d575061047d82611985565b600b546040516302571be360e01b81526004810183905260009182916001600160a01b03909116906302571be39060240160206040518083038186803b15801561144257600080fd5b505afa158015611456573d6000803e3d6000fd5b505050506040513d601f19601f8201168201806040525081019061147a9190611e6c565b600c549091506001600160a01b038083169116141561151257600c546040516331a9108f60e11b8152600481018590526001600160a01b0390911690636352211e9060240160206040518083038186803b1580156114d757600080fd5b505afa1580156114eb573d6000803e3d6000fd5b505050506040513d601f19601f8201168201806040525081019061150f9190611e6c565b90505b6001600160a01b038116331480610b7957506001600160a01b0381166000908152600d6020908152604080832033845290915290205460ff16610b79565b61159e6040518060e001604052806060815260200160008152602001600061ffff168152602001600061ffff168152602001600063ffffffff16815260200160008152602001600081525090565b82815260c0810182905261047d8161184e565b6020810151815160609161047d916115c990826119aa565b84519190611a09565b60a081015160c082015160609161047d916115c9908290612496565b600081518351148015610b795750610b798360008460008751611a80565b60008781526004602090815260408220548851918901919091209091611633878787611a09565b9050831561173c5760008a81526005602090815260408083208684528252808320858452825280832061ffff8c16845290915290208054611673906124fb565b1590506116c75760008a815260066020908152604080832086845282528083208584529091528120805461ffff16916116ab836124dd565b91906101000a81548161ffff021916908361ffff160217905550505b60008a81526005602090815260408083208684528252808320858452825280832061ffff8c16845290915281206116fd91611dbb565b897f03528ed0c2a3ebc993b12ce3c16bb382f9c7d88ef7d8a1bf290eaf35955a12078a8a60405161172f9291906123c9565b60405180910390a2611842565b60008a81526005602090815260408083208684528252808320858452825280832061ffff8c16845290915290208054611774906124fb565b151590506117c95760008a815260066020908152604080832086845282528083208584529091528120805461ffff16916117ad83612536565b91906101000a81548161ffff021916908361ffff160217905550505b60008a81526005602090815260408083208684528252808320858452825280832061ffff8c1684528252909120825161180492840190611d47565b50897f52a608b3303a48862d07a73d82fa221318c0027fbbcfb1b2329bface3f19ff2b8a8a84604051611839939291906123ef565b60405180910390a25b50505050505050505050565b60c081015160208201819052815151116118655750565b6000611879826000015183602001516119aa565b8260200151611888919061247e565b82519091506118979082611aa3565b61ffff1660408301526118ab60028261247e565b82519091506118ba9082611aa3565b61ffff1660608301526118ce60028261247e565b82519091506118dd9082611acb565b63ffffffff1660808301526118f360048261247e565b82519091506000906119059083611aa3565b61ffff16905061191660028361247e565b60a084018190529150611929818361247e565b60c0909301929092525050565b6000815160141461194657600080fd5b5060200151600160601b900490565b604080516014808252818301909252606091602082018180368337505050600160601b9290920260208301525090565b60006001600160e01b0319821663c869023360e01b148061047d575061047d82611af5565b6000815b835181106119be576119be612573565b60006119ca8583611b1a565b60ff1690506119da81600161247e565b6119e4908361247e565b9150806119f157506119f7565b506119ae565b611a018382612496565b949350505050565b8251606090611a18838561247e565b1115611a2357600080fd5b60008267ffffffffffffffff811115611a3e57611a3e6125b5565b6040519080825280601f01601f191660200182016040528015611a68576020820181803683370190505b50905060208082019086860101610948828287611b3e565b6000611a8d848484611b94565b611a98878785611b94565b149695505050505050565b8151600090611ab383600261247e565b1115611abe57600080fd5b50016002015161ffff1690565b8151600090611adb83600461247e565b1115611ae657600080fd5b50016004015163ffffffff1690565b60006001600160e01b0319821663691f343160e01b148061047d575061047d82611bb8565b6000828281518110611b2e57611b2e61259f565b016020015160f81c905092915050565b60208110611b765781518352611b5560208461247e565b9250611b6260208361247e565b9150611b6f602082612496565b9050611b3e565b905182516020929092036101000a6000190180199091169116179052565b8251600090611ba3838561247e565b1115611bae57600080fd5b5091016020012090565b60006001600160e01b031982166304928c6760e21b148061047d575061047d8260006001600160e01b0319821663547d2b4160e11b1480611c0957506001600160e01b03198216635c98042b60e01b145b8061047d575061047d8260006001600160e01b0319821663bc1c58d160e01b148061047d575061047d8260006001600160e01b03198216631d9dabef60e11b1480611c6457506001600160e01b031982166378e5bf0360e11b145b8061047d575061047d8260006001600160e01b03198216631101d5ab60e11b148061047d575061047d8260006001600160e01b03198216631592ca1b60e31b148061047d57506301ffc9a760e01b6001600160e01b031983161461047d565b828054611ccf906124fb565b90600052602060002090601f016020900481019282611cf15760008555611d37565b82601f10611d0a5782800160ff19823516178555611d37565b82800160010185558215611d37579182015b82811115611d37578235825591602001919060010190611d1c565b50611d43929150611df8565b5090565b828054611d53906124fb565b90600052602060002090601f016020900481019282611d755760008555611d37565b82601f10611d8e57805160ff1916838001178555611d37565b82800160010185558215611d37579182015b82811115611d37578251825591602001919060010190611da0565b508054611dc7906124fb565b6000825580601f10611dd7575050565b601f016020900490600052602060002090810190611df59190611df8565b50565b5b80821115611d435760008155600101611df9565b80356001600160e01b031981168114611e2557600080fd5b919050565b60008083601f840112611e3c57600080fd5b50813567ffffffffffffffff811115611e5457600080fd5b602083019150836020828501011115610a6757600080fd5b600060208284031215611e7e57600080fd5b8151610b79816125cb565b60008060408385031215611e9c57600080fd5b8235611ea7816125cb565b91506020830135611eb7816125cb565b809150509250929050565b60008060408385031215611ed557600080fd5b8235611ee0816125cb565b915060208301358015158114611eb757600080fd5b60008060208385031215611f0857600080fd5b823567ffffffffffffffff80821115611f2057600080fd5b818501915085601f830112611f3457600080fd5b813581811115611f4357600080fd5b8660208260051b8501011115611f5857600080fd5b60209290920196919550909350505050565b600060208284031215611f7c57600080fd5b5035919050565b60008060408385031215611f9657600080fd5b823591506020830135611eb7816125cb565b60008060408385031215611fbb57600080fd5b50508035926020909101359150565b600080600060608486031215611fdf57600080fd5b505081359360208301359350604090920135919050565b60008060006060848603121561200b57600080fd5b8335925060208401359150604084013561ffff8116811461202b57600080fd5b809150509250925092565b6000806040838503121561204957600080fd5b8235915061205960208401611e0d565b90509250929050565b60008060006060848603121561207757600080fd5b8335925061208760208501611e0d565b9150604084013561202b816125cb565b6000806000604084860312156120ac57600080fd5b83359250602084013567ffffffffffffffff8111156120ca57600080fd5b6120d686828701611e2a565b9497909650939450505050565b6000806000806000606086880312156120fb57600080fd5b85359450602086013567ffffffffffffffff8082111561211a57600080fd5b61212689838a01611e2a565b9096509450604088013591508082111561213f57600080fd5b5061214c88828901611e2a565b969995985093965092949392505050565b6000806000806060858703121561217357600080fd5b8435935060208501359250604085013567ffffffffffffffff81111561219857600080fd5b6121a487828801611e2a565b95989497509550505050565b6000806000606084860312156121c557600080fd5b8335925060208401359150604084013567ffffffffffffffff808211156121eb57600080fd5b818601915086601f8301126121ff57600080fd5b813581811115612211576122116125b5565b604051601f8201601f19908116603f01168101908382118183101715612239576122396125b5565b8160405282815289602084870101111561225257600080fd5b8260208601602083013760006020848301015280955050505050509250925092565b60006020828403121561228657600080fd5b610b7982611e0d565b81835281816020850137506000828201602090810191909152601f909101601f19169091010190565b600081518084526122d08160208601602086016124ad565b601f01601f19169290920160200192915050565b8183823760009101908152919050565b600082516123068184602087016124ad565b9190910192915050565b6000602080830181845280855180835260408601915060408160051b870101925083870160005b8281101561236557603f198886030184526123538583516122b8565b94509285019290850190600101612337565b5092979650505050505050565b602081526000611a0160208301848661228f565b602081526000610b7960208301846122b8565b6040815260006123ac60408301866122b8565b82810360208401526123bf81858761228f565b9695505050505050565b6040815260006123dc60408301856122b8565b905061ffff831660208301529392505050565b60608152600061240260608301866122b8565b61ffff8516602084015282810360408401526123bf81856122b8565b828152604060208201526000611a0160408301846122b8565b6000808335601e1984360301811261244e57600080fd5b83018035915067ffffffffffffffff82111561246957600080fd5b602001915036819003821315610a6757600080fd5b6000821982111561249157612491612589565b500190565b6000828210156124a8576124a8612589565b500390565b60005b838110156124c85781810151838201526020016124b0565b838111156124d7576000848401525b50505050565b600061ffff8216806124f1576124f1612589565b6000190192915050565b600181811c9082168061250f57607f821691505b6020821081141561253057634e487b7160e01b600052602260045260246000fd5b50919050565b600061ffff8083168181141561254e5761254e612589565b6001019392505050565b600060001982141561256c5761256c612589565b5060010190565b634e487b7160e01b600052600160045260246000fd5b634e487b7160e01b600052601160045260246000fd5b634e487b7160e01b600052603260045260246000fd5b634e487b7160e01b600052604160045260246000fd5b6001600160a01b0381168114611df557600080fdfea164736f6c6343000806000a608060405234801561001057600080fd5b506040516102e23803806102e283398101604081905261002f91610058565b600080546001600160a01b0319166001600160a01b039390931692909217909155600155610092565b6000806040838503121561006b57600080fd5b82516001600160a01b038116811461008257600080fd5b6020939093015192949293505050565b610241806100a16000396000f3fe608060405234801561001057600080fd5b506004361061002b5760003560e01c8063d22057a914610030575b600080fd5b61004361003e3660046101ec565b610045565b005b6000805460015460408051602080820193909352808201879052815180820383018152606082019283905280519301929092206302571be360e01b90915260648201528492916001600160a01b0316906302571be39060840160206040518083038186803b1580156100b657600080fd5b505afa1580156100ca573d6000803e3d6000fd5b505050506040513d601f19601f820116820180604052508101906100ee91906101af565b90506001600160a01b038116158061010e57506001600160a01b03811633145b61011757600080fd5b6000546001546040516306ab592360e01b81526004810191909152602481018690526001600160a01b038581166044830152909116906306ab592390606401602060405180830381600087803b15801561017057600080fd5b505af1158015610184573d6000803e3d6000fd5b505050506040513d601f19601f820116820180604052508101906101a891906101d3565b5050505050565b6000602082840312156101c157600080fd5b81516101cc8161021c565b9392505050565b6000602082840312156101e557600080fd5b5051919050565b600080604083850312156101ff57600080fd5b8235915060208301356102118161021c565b809150509250929050565b6001600160a01b038116811461023157600080fd5b5056fea164736f6c6343000806000a60806040523480156200001157600080fd5b50604051620011e8380380620011e883398101604081905262000034916200022c565b6200003f336200019b565b600280546001600160a01b038481166001600160a01b0319928316811790935560038054918516919092161790556040516302571be360e01b81527f91d1777781884d03a6757a803996e38de2a42967fb37eeaca72729271025a9e26004820152600091906302571be39060240160206040518083038186803b158015620000c657600080fd5b505afa158015620000db573d6000803e3d6000fd5b505050506040513d601f19601f82011682018060405250810190620001019190620001eb565b90506001600160a01b038116156200019257604051630f41a04d60e11b81523360048201526001600160a01b03821690631e83409a90602401602060405180830381600087803b1580156200015557600080fd5b505af11580156200016a573d6000803e3d6000fd5b505050506040513d601f19601f8201168201806040525081019062000190919062000212565b505b50505062000284565b600080546001600160a01b038381166001600160a01b0319831681178455604051919092169283917f8be0079c531659141344cd1fd0a4f28419497f9722a3daafe3b4186f6b6457e09190a35050565b600060208284031215620001fe57600080fd5b81516200020b816200026b565b9392505050565b6000602082840312156200022557600080fd5b5051919050565b600080604083850312156200024057600080fd5b82516200024d816200026b565b602084015190925062000260816200026b565b809150509250929050565b6001600160a01b03811681146200028157600080fd5b50565b610f5480620002946000396000f3fe608060405234801561001057600080fd5b50600436106100ea5760003560e01c80638d9522b81161008c578063c47f002711610066578063c47f0027146101cd578063da8c229e146101e0578063e0dba60f14610213578063f2fde38b1461022657600080fd5b80638d9522b8146101965780638da5cb5b146101a9578063bffbe61c146101ba57600080fd5b80633f15457f116100c85780633f15457f1461013b5780634709bf4b14610166578063715018a614610179578063828eab0e1461018357600080fd5b80630ccc4a7f146100ef5780630f5a5466146101155780631e83409a14610128575b600080fd5b6101026100fd366004610ca7565b610239565b6040519081526020015b60405180910390f35b610102610123366004610c6e565b610333565b610102610136366004610c34565b610347565b60025461014e906001600160a01b031681565b6040516001600160a01b03909116815260200161010c565b610102610174366004610c6e565b61035b565b61018161044c565b005b60035461014e906001600160a01b031681565b6101026101a4366004610cf2565b610482565b6000546001600160a01b031661014e565b6101026101c8366004610c34565b61069a565b6101026101db366004610db8565b6106e3565b6102036101ee366004610c34565b60016020526000908152604090205460ff1681565b604051901515815260200161010c565b610181610221366004610d54565b61076d565b610181610234366004610c34565b6107f6565b6000836001600160a01b03811633148061026257503360009081526001602052604090205460ff165b806102eb575060025460405163e985e9c560e01b81526001600160a01b0383811660048301523360248301529091169063e985e9c59060440160206040518083038186803b1580156102b357600080fd5b505afa1580156102c7573d6000803e3d6000fd5b505050506040513d601f19601f820116820180604052508101906102eb9190610d82565b806102fa57506102fa81610891565b61031f5760405162461bcd60e51b815260040161031690610e7f565b60405180910390fd5b61032a858585610919565b95945050505050565b6000610340338484610919565b9392505050565b600061035533836000610919565b92915050565b6000826001600160a01b03811633148061038457503360009081526001602052604090205460ff165b8061040d575060025460405163e985e9c560e01b81526001600160a01b0383811660048301523360248301529091169063e985e9c59060440160206040518083038186803b1580156103d557600080fd5b505afa1580156103e9573d6000803e3d6000fd5b505050506040513d601f19601f8201168201806040525081019061040d9190610d82565b8061041c575061041c81610891565b6104385760405162461bcd60e51b815260040161031690610e7f565b61044484846000610919565b949350505050565b6000546001600160a01b031633146104765760405162461bcd60e51b815260040161031690610e4a565b6104806000610af1565b565b6000836001600160a01b0381163314806104ab57503360009081526001602052604090205460ff165b80610534575060025460405163e985e9c560e01b81526001600160a01b0383811660048301523360248301529091169063e985e9c59060440160206040518083038186803b1580156104fc57600080fd5b505afa158015610510573d6000803e3d6000fd5b505050506040513d601f19601f820116820180604052508101906105349190610d82565b80610543575061054381610891565b61055f5760405162461bcd60e51b815260040161031690610e7f565b60035460009061057b90879030906001600160a01b0316610919565b600354604051637737221360e01b81529192506001600160a01b0316906377372213906105ae9084908890600401610ded565b600060405180830381600087803b1580156105c857600080fd5b505af11580156105dc573d6000803e3d6000fd5b50506002546001600160a01b031691506306ab59239050600080516020610f2883398151915261060b89610b41565b6040516001600160e01b031960e085901b168152600481019290925260248201526001600160a01b0388166044820152606401602060405180830381600087803b15801561065857600080fd5b505af115801561066c573d6000803e3d6000fd5b505050506040513d601f19601f820116820180604052508101906106909190610d9f565b5095945050505050565b6000600080516020610f288339815191526106b483610b41565b604080516020810193909352820152606001604051602081830303815290604052805190602001209050919050565b600354600090819061070190339030906001600160a01b0316610919565b600354604051637737221360e01b81529192506001600160a01b0316906377372213906107349084908790600401610ded565b600060405180830381600087803b15801561074e57600080fd5b505af1158015610762573d6000803e3d6000fd5b509295945050505050565b6000546001600160a01b031633146107975760405162461bcd60e51b815260040161031690610e4a565b6001600160a01b038216600081815260016020908152604091829020805460ff191685151590811790915591519182527f4c97694570a07277810af7e5669ffd5f6a2d6b74b6e9a274b8b870fd5114cf87910160405180910390a25050565b6000546001600160a01b031633146108205760405162461bcd60e51b815260040161031690610e4a565b6001600160a01b0381166108855760405162461bcd60e51b815260206004820152602660248201527f4f776e61626c653a206e6577206f776e657220697320746865207a65726f206160448201526564647265737360d01b6064820152608401610316565b61088e81610af1565b50565b6000816001600160a01b0316638da5cb5b6040518163ffffffff1660e01b815260040160206040518083038186803b1580156108cc57600080fd5b505afa9250505080156108fc575060408051601f3d908101601f191682019092526108f991810190610c51565b60015b61090857506000919050565b6001600160a01b0316331492915050565b60008061092585610b41565b60408051600080516020610f28833981519152602082015290810182905290915060009060600160408051808303601f19018152908290528051602090910120600254630178b8bf60e01b8352600483018290529092506000916001600160a01b0390911690630178b8bf9060240160206040518083038186803b1580156109ac57600080fd5b505afa1580156109c0573d6000803e3d6000fd5b505050506040513d601f19601f820116820180604052508101906109e49190610c51565b905060006001600160a01b03861615801590610a125750816001600160a01b0316866001600160a01b031614155b9050600081610a215782610a23565b865b6002546040516305ef2c7f60e41b8152600080516020610f288339815191526004820152602481018890526001600160a01b038b81166044830152808416606483015260006084830152929350911690635ef2c7f09060a401600060405180830381600087803b158015610a9657600080fd5b505af1158015610aaa573d6000803e3d6000fd5b50506040518692506001600160a01b038c1691507f6ada868dd3058cf77a48a74489fd7963688e5464b2b0fa957ace976243270e9290600090a35091979650505050505050565b600080546001600160a01b038381166001600160a01b0319831681178455604051919092169283917f8be0079c531659141344cd1fd0a4f28419497f9722a3daafe3b4186f6b6457e09190a35050565b600060285b8015610b9b57600019016f181899199a1a9b1b9c1cb0b131b232b360811b600f84161a8153601090920491600019016f181899199a1a9b1b9c1cb0b131b232b360811b600f84161a8153601083049250610b46565b50506028600020919050565b600082601f830112610bb857600080fd5b813567ffffffffffffffff80821115610bd357610bd3610eee565b604051601f8301601f19908116603f01168101908282118183101715610bfb57610bfb610eee565b81604052838152866020858801011115610c1457600080fd5b836020870160208301376000602085830101528094505050505092915050565b600060208284031215610c4657600080fd5b813561034081610f04565b600060208284031215610c6357600080fd5b815161034081610f04565b60008060408385031215610c8157600080fd5b8235610c8c81610f04565b91506020830135610c9c81610f04565b809150509250929050565b600080600060608486031215610cbc57600080fd5b8335610cc781610f04565b92506020840135610cd781610f04565b91506040840135610ce781610f04565b809150509250925092565b600080600060608486031215610d0757600080fd5b8335610d1281610f04565b92506020840135610d2281610f04565b9150604084013567ffffffffffffffff811115610d3e57600080fd5b610d4a86828701610ba7565b9150509250925092565b60008060408385031215610d6757600080fd5b8235610d7281610f04565b91506020830135610c9c81610f19565b600060208284031215610d9457600080fd5b815161034081610f19565b600060208284031215610db157600080fd5b5051919050565b600060208284031215610dca57600080fd5b813567ffffffffffffffff811115610de157600080fd5b61044484828501610ba7565b82815260006020604081840152835180604085015260005b81811015610e2157858101830151858201606001528201610e05565b81811115610e33576000606083870101525b50601f01601f191692909201606001949350505050565b6020808252818101527f4f776e61626c653a2063616c6c6572206973206e6f7420746865206f776e6572604082015260600190565b60208082526049908201527f43616c6c6572206973206e6f74206120636f6e74726f6c6c6572206f7220617560408201527f74686f72697365642062792061646472657373206f722074686520616464726560608201526839b99034ba39b2b63360b91b608082015260a00190565b634e487b7160e01b600052604160045260246000fd5b6001600160a01b038116811461088e57600080fd5b801515811461088e57600080fdfe91d1777781884d03a6757a803996e38de2a42967fb37eeaca72729271025a9e2a164736f6c6343000806000a4f5b812789fc606be1b3b16908db13fc7a9adf7ca72641f84d75b47069d3d7f0329539a1d23af1810c48a07fe7fc66a3b34fbc8b37e9b3cdb97bb88ceab7e4bf",
    "linkReferences": {}
  }
}