{
  "abi": [
    {
      "inputs": [
        {
          "internalType": "contract IJBOperatorStore",
          "name": "_operatorStore",
          "type": "address"
        }
      ],
      "stateMutability": "nonpayable",
      "type": "constructor"
    },
    {
      "inputs": [],
      "name": "UNAUTHORIZED",
      "type": "error"
    },
    {
      "anonymous": false,
      "inputs": [
        {
          "indexed": true,
          "internalType": "address",
          "name": "owner",
          "type": "address"
        },
        {
          "indexed": true,
          "internalType": "address",
          "name": "approved",
          "type": "address"
        },
        {
          "indexed": true,
          "internalType": "uint256",
          "name": "tokenId",
          "type": "uint256"
        }
      ],
      "name": "Approval",
      "type": "event"
    },
    {
      "anonymous": false,
      "inputs": [
        {
          "indexed": true,
          "internalType": "address",
          "name": "owner",
          "type": "address"
        },
        {
          "indexed": true,
          "internalType": "address",
          "name": "operator",
          "type": "address"
        },
        {
          "indexed": false,
          "internalType": "bool",
          "name": "approved",
          "type": "bool"
        }
      ],
      "name": "ApprovalForAll",
      "type": "event"
    },
    {
      "anonymous": false,
      "inputs": [
        {
          "indexed": true,
          "internalType": "uint256",
          "name": "projectId",
          "type": "uint256"
        },
        {
          "indexed": true,
          "internalType": "address",
          "name": "owner",
          "type": "address"
        },
        {
          "components": [
            {
              "internalType": "string",
              "name": "content",
              "type": "string"
            },
            {
              "internalType": "uint256",
              "name": "domain",
              "type": "uint256"
            }
          ],
          "indexed": false,
          "internalType": "struct JBProjectMetadata",
          "name": "metadata",
          "type": "tuple"
        },
        {
          "indexed": false,
          "internalType": "address",
          "name": "caller",
          "type": "address"
        }
      ],
      "name": "Create",
      "type": "event"
    },
    {
      "anonymous": false,
      "inputs": [
        {
          "indexed": true,
          "internalType": "address",
          "name": "delegator",
          "type": "address"
        },
        {
          "indexed": true,
          "internalType": "address",
          "name": "fromDelegate",
          "type": "address"
        },
        {
          "indexed": true,
          "internalType": "address",
          "name": "toDelegate",
          "type": "address"
        }
      ],
      "name": "DelegateChanged",
      "type": "event"
    },
    {
      "anonymous": false,
      "inputs": [
        {
          "indexed": true,
          "internalType": "address",
          "name": "delegate",
          "type": "address"
        },
        {
          "indexed": false,
          "internalType": "uint256",
          "name": "previousBalance",
          "type": "uint256"
        },
        {
          "indexed": false,
          "internalType": "uint256",
          "name": "newBalance",
          "type": "uint256"
        }
      ],
      "name": "DelegateVotesChanged",
      "type": "event"
    },
    {
      "anonymous": false,
      "inputs": [
        {
          "indexed": true,
          "internalType": "address",
          "name": "previousOwner",
          "type": "address"
        },
        {
          "indexed": true,
          "internalType": "address",
          "name": "newOwner",
          "type": "address"
        }
      ],
      "name": "OwnershipTransferred",
      "type": "event"
    },
    {
      "anonymous": false,
      "inputs": [
        {
          "indexed": true,
          "internalType": "uint256",
          "name": "projectId",
          "type": "uint256"
        },
        {
          "components": [
            {
              "internalType": "string",
              "name": "content",
              "type": "string"
            },
            {
              "internalType": "uint256",
              "name": "domain",
              "type": "uint256"
            }
          ],
          "indexed": false,
          "internalType": "struct JBProjectMetadata",
          "name": "metadata",
          "type": "tuple"
        },
        {
          "indexed": false,
          "internalType": "address",
          "name": "caller",
          "type": "address"
        }
      ],
      "name": "SetMetadata",
      "type": "event"
    },
    {
      "anonymous": false,
      "inputs": [
        {
          "indexed": true,
          "internalType": "contract IJBTokenUriResolver",
          "name": "resolver",
          "type": "address"
        },
        {
          "indexed": false,
          "internalType": "address",
          "name": "caller",
          "type": "address"
        }
      ],
      "name": "SetTokenUriResolver",
      "type": "event"
    },
    {
      "anonymous": false,
      "inputs": [
        {
          "indexed": true,
          "internalType": "address",
          "name": "from",
          "type": "address"
        },
        {
          "indexed": true,
          "internalType": "address",
          "name": "to",
          "type": "address"
        },
        {
          "indexed": true,
          "internalType": "uint256",
          "name": "tokenId",
          "type": "uint256"
        }
      ],
      "name": "Transfer",
      "type": "event"
    },
    {
      "inputs": [],
      "name": "DOMAIN_SEPARATOR",
      "outputs": [
        {
          "internalType": "bytes32",
          "name": "",
          "type": "bytes32"
        }
      ],
      "stateMutability": "view",
      "type": "function"
    },
    {
      "inputs": [
        {
          "internalType": "address",
          "name": "to",
          "type": "address"
        },
        {
          "internalType": "uint256",
          "name": "tokenId",
          "type": "uint256"
        }
      ],
      "name": "approve",
      "outputs": [],
      "stateMutability": "nonpayable",
      "type": "function"
    },
    {
      "inputs": [
        {
          "internalType": "address",
          "name": "owner",
          "type": "address"
        }
      ],
      "name": "balanceOf",
      "outputs": [
        {
          "internalType": "uint256",
          "name": "",
          "type": "uint256"
        }
      ],
      "stateMutability": "view",
      "type": "function"
    },
    {
      "inputs": [],
      "name": "count",
      "outputs": [
        {
          "internalType": "uint256",
          "name": "",
          "type": "uint256"
        }
      ],
      "stateMutability": "view",
      "type": "function"
    },
    {
      "inputs": [
        {
          "internalType": "address",
          "name": "_owner",
          "type": "address"
        },
        {
          "components": [
            {
              "internalType": "string",
              "name": "content",
              "type": "string"
            },
            {
              "internalType": "uint256",
              "name": "domain",
              "type": "uint256"
            }
          ],
          "internalType": "struct JBProjectMetadata",
          "name": "_metadata",
          "type": "tuple"
        }
      ],
      "name": "createFor",
      "outputs": [
        {
          "internalType": "uint256",
          "name": "projectId",
          "type": "uint256"
        }
      ],
      "stateMutability": "nonpayable",
      "type": "function"
    },
    {
      "inputs": [
        {
          "internalType": "address",
          "name": "delegatee",
          "type": "address"
        }
      ],
      "name": "delegate",
      "outputs": [],
      "stateMutability": "nonpayable",
      "type": "function"
    },
    {
      "inputs": [
        {
          "internalType": "address",
          "name": "delegatee",
          "type": "address"
        },
        {
          "internalType": "uint256",
          "name": "nonce",
          "type": "uint256"
        },
        {
          "internalType": "uint256",
          "name": "expiry",
          "type": "uint256"
        },
        {
          "internalType": "uint8",
          "name": "v",
          "type": "uint8"
        },
        {
          "internalType": "bytes32",
          "name": "r",
          "type": "bytes32"
        },
        {
          "internalType": "bytes32",
          "name": "s",
          "type": "bytes32"
        }
      ],
      "name": "delegateBySig",
      "outputs": [],
      "stateMutability": "nonpayable",
      "type": "function"
    },
    {
      "inputs": [
        {
          "internalType": "address",
          "name": "account",
          "type": "address"
        }
      ],
      "name": "delegates",
      "outputs": [
        {
          "internalType": "address",
          "name": "",
          "type": "address"
        }
      ],
      "stateMutability": "view",
      "type": "function"
    },
    {
      "inputs": [
        {
          "internalType": "uint256",
          "name": "tokenId",
          "type": "uint256"
        }
      ],
      "name": "getApproved",
      "outputs": [
        {
          "internalType": "address",
          "name": "",
          "type": "address"
        }
      ],
      "stateMutability": "view",
      "type": "function"
    },
    {
      "inputs": [
        {
          "internalType": "uint256",
          "name": "blockNumber",
          "type": "uint256"
        }
      ],
      "name": "getPastTotalSupply",
      "outputs": [
        {
          "internalType": "uint256",
          "name": "",
          "type": "uint256"
        }
      ],
      "stateMutability": "view",
      "type": "function"
    },
    {
      "inputs": [
        {
          "internalType": "address",
          "name": "account",
          "type": "address"
        },
        {
          "internalType": "uint256",
          "name": "blockNumber",
          "type": "uint256"
        }
      ],
      "name": "getPastVotes",
      "outputs": [
        {
          "internalType": "uint256",
          "name": "",
          "type": "uint256"
        }
      ],
      "stateMutability": "view",
      "type": "function"
    },
    {
      "inputs": [
        {
          "internalType": "address",
          "name": "account",
          "type": "address"
        }
      ],
      "name": "getVotes",
      "outputs": [
        {
          "internalType": "uint256",
          "name": "",
          "type": "uint256"
        }
      ],
      "stateMutability": "view",
      "type": "function"
    },
    {
      "inputs": [
        {
          "internalType": "address",
          "name": "owner",
          "type": "address"
        },
        {
          "internalType": "address",
          "name": "operator",
          "type": "address"
        }
      ],
      "name": "isApprovedForAll",
      "outputs": [
        {
          "internalType": "bool",
          "name": "",
          "type": "bool"
        }
      ],
      "stateMutability": "view",
      "type": "function"
    },
    {
      "inputs": [
        {
          "internalType": "uint256",
          "name": "",
          "type": "uint256"
        },
        {
          "internalType": "uint256",
          "name": "",
          "type": "uint256"
        }
      ],
      "name": "metadataContentOf",
      "outputs": [
        {
          "internalType": "string",
          "name": "",
          "type": "string"
        }
      ],
      "stateMutability": "view",
      "type": "function"
    },
    {
      "inputs": [],
      "name": "name",
      "outputs": [
        {
          "internalType": "string",
          "name": "",
          "type": "string"
        }
      ],
      "stateMutability": "view",
      "type": "function"
    },
    {
      "inputs": [
        {
          "internalType": "address",
          "name": "owner",
          "type": "address"
        }
      ],
      "name": "nonces",
      "outputs": [
        {
          "internalType": "uint256",
          "name": "",
          "type": "uint256"
        }
      ],
      "stateMutability": "view",
      "type": "function"
    },
    {
      "inputs": [],
      "name": "operatorStore",
      "outputs": [
        {
          "internalType": "contract IJBOperatorStore",
          "name": "",
          "type": "address"
        }
      ],
      "stateMutability": "view",
      "type": "function"
    },
    {
      "inputs": [],
      "name": "owner",
      "outputs": [
        {
          "internalType": "address",
          "name": "",
          "type": "address"
        }
      ],
      "stateMutability": "view",
      "type": "function"
    },
    {
      "inputs": [
        {
          "internalType": "uint256",
          "name": "tokenId",
          "type": "uint256"
        }
      ],
      "name": "ownerOf",
      "outputs": [
        {
          "internalType": "address",
          "name": "",
          "type": "address"
        }
      ],
      "stateMutability": "view",
      "type": "function"
    },
    {
      "inputs": [],
      "name": "renounceOwnership",
      "outputs": [],
      "stateMutability": "nonpayable",
      "type": "function"
    },
    {
      "inputs": [
        {
          "internalType": "address",
          "name": "from",
          "type": "address"
        },
        {
          "internalType": "address",
          "name": "to",
          "type": "address"
        },
        {
          "internalType": "uint256",
          "name": "tokenId",
          "type": "uint256"
        }
      ],
      "name": "safeTransferFrom",
      "outputs": [],
      "stateMutability": "nonpayable",
      "type": "function"
    },
    {
      "inputs": [
        {
          "internalType": "address",
          "name": "from",
          "type": "address"
        },
        {
          "internalType": "address",
          "name": "to",
          "type": "address"
        },
        {
          "internalType": "uint256",
          "name": "tokenId",
          "type": "uint256"
        },
        {
          "internalType": "bytes",
          "name": "_data",
          "type": "bytes"
        }
      ],
      "name": "safeTransferFrom",
      "outputs": [],
      "stateMutability": "nonpayable",
      "type": "function"
    },
    {
      "inputs": [
        {
          "internalType": "address",
          "name": "operator",
          "type": "address"
        },
        {
          "internalType": "bool",
          "name": "approved",
          "type": "bool"
        }
      ],
      "name": "setApprovalForAll",
      "outputs": [],
      "stateMutability": "nonpayable",
      "type": "function"
    },
    {
      "inputs": [
        {
          "internalType": "uint256",
          "name": "_projectId",
          "type": "uint256"
        },
        {
          "components": [
            {
              "internalType": "string",
              "name": "content",
              "type": "string"
            },
            {
              "internalType": "uint256",
              "name": "domain",
              "type": "uint256"
            }
          ],
          "internalType": "struct JBProjectMetadata",
          "name": "_metadata",
          "type": "tuple"
        }
      ],
      "name": "setMetadataOf",
      "outputs": [],
      "stateMutability": "nonpayable",
      "type": "function"
    },
    {
      "inputs": [
        {
          "internalType": "contract IJBTokenUriResolver",
          "name": "_newResolver",
          "type": "address"
        }
      ],
      "name": "setTokenUriResolver",
      "outputs": [],
      "stateMutability": "nonpayable",
      "type": "function"
    },
    {
      "inputs": [
        {
          "internalType": "bytes4",
          "name": "_interfaceId",
          "type": "bytes4"
        }
      ],
      "name": "supportsInterface",
      "outputs": [
        {
          "internalType": "bool",
          "name": "",
          "type": "bool"
        }
      ],
      "stateMutability": "view",
      "type": "function"
    },
    {
      "inputs": [],
      "name": "symbol",
      "outputs": [
        {
          "internalType": "string",
          "name": "",
          "type": "string"
        }
      ],
      "stateMutability": "view",
      "type": "function"
    },
    {
      "inputs": [
        {
          "internalType": "uint256",
          "name": "_projectId",
          "type": "uint256"
        }
      ],
      "name": "tokenURI",
      "outputs": [
        {
          "internalType": "string",
          "name": "",
          "type": "string"
        }
      ],
      "stateMutability": "view",
      "type": "function"
    },
    {
      "inputs": [],
      "name": "tokenUriResolver",
      "outputs": [
        {
          "internalType": "contract IJBTokenUriResolver",
          "name": "",
          "type": "address"
        }
      ],
      "stateMutability": "view",
      "type": "function"
    },
    {
      "inputs": [
        {
          "internalType": "address",
          "name": "from",
          "type": "address"
        },
        {
          "internalType": "address",
          "name": "to",
          "type": "address"
        },
        {
          "internalType": "uint256",
          "name": "tokenId",
          "type": "uint256"
        }
      ],
      "name": "transferFrom",
      "outputs": [],
      "stateMutability": "nonpayable",
      "type": "function"
    },
    {
      "inputs": [
        {
          "internalType": "address",
          "name": "newOwner",
          "type": "address"
        }
      ],
      "name": "transferOwnership",
      "outputs": [],
      "stateMutability": "nonpayable",
      "type": "function"
    }
  ],
  "bytecode": {
    "object": "0x6101606040526000600b553480156200001757600080fd5b5060405162002e3838038062002e388339810160408190526200003a91620001ce565b6040805180820182526011808252704a75696365626f782050726f6a6563747360781b60208084018290528451808601865260018152603160f81b81830152855180870187529384528382019290925284518086019095526008855267094aa92868a849eb60c31b908501526001600160a01b03851660805291926000620000c38382620002a5565b506001620000d28282620002a5565b505082516020938401208251928401929092206101008390526101208190524660c0818152604080517f8b73c3c69bb8fe3d512ecc4cf759cc79239f7b179b0ffacaa9a75d522b39400f81890181905281830197909752606081019490945260808401929092523060a080850182905283518086038201815294909201909252825192909501919091209093525060e0919091526101405262000175336200017c565b5062000371565b600a80546001600160a01b038381166001600160a01b0319831681179093556040519116919082907f8be0079c531659141344cd1fd0a4f28419497f9722a3daafe3b4186f6b6457e090600090a35050565b600060208284031215620001e157600080fd5b81516001600160a01b0381168114620001f957600080fd5b9392505050565b634e487b7160e01b600052604160045260246000fd5b600181811c908216806200022b57607f821691505b6020821081036200024c57634e487b7160e01b600052602260045260246000fd5b50919050565b601f821115620002a057600081815260208120601f850160051c810160208610156200027b5750805b601f850160051c820191505b818110156200029c5782815560010162000287565b5050505b505050565b81516001600160401b03811115620002c157620002c162000200565b620002d981620002d2845462000216565b8462000252565b602080601f831160018114620003115760008415620002f85750858301515b600019600386901b1c1916600185901b1785556200029c565b600085815260208120601f198616915b82811015620003425788860151825594840194600190910190840162000321565b5085821015620003615787850151600019600388901b60f8161c191681555b5050505050600190811b01905550565b60805160a05160c05160e051610100516101205161014051612a5e620003da600039600061127c015260006112cb015260006112a6015260006111ff01526000611229015260006112530152600081816103e20152818161136001526114070152612a5e6000f3fe608060405234801561001057600080fd5b50600436106101e55760003560e01c8063666d87a01161010f578063a22cb465116100a2578063c87b56dd11610071578063c87b56dd1461042a578063e131fc0c1461043d578063e985e9c514610450578063f2fde38b1461048c57600080fd5b8063a22cb465146103ca578063ad007d63146103dd578063b88d4fde14610404578063c3cda5201461041757600080fd5b80638da5cb5b116100de5780638da5cb5b1461038b5780638e539e8c1461039c57806395d89b41146103af5780639ab24eb0146103b757600080fd5b8063666d87a01461034a57806370a082311461035d578063715018a6146103705780637ecebe001461037857600080fd5b80633644e5151161018757806342842e0e1161015657806342842e0e146102e5578063587cde1e146102f85780635c19a95c146103245780636352211e1461033757600080fd5b80633644e515146102a457806336574975146102ac57806339fbc775146102bf5780633a46b1a8146102d257600080fd5b8063081812fc116101c3578063081812fc1461023e578063095ea7b31461026957806323b872dd1461027e5780632407497e1461029157600080fd5b806301ffc9a7146101ea57806306661abd1461021257806306fdde0314610229575b600080fd5b6101fd6101f83660046121c1565b61049f565b60405190151581526020015b60405180910390f35b61021b600b5481565b604051908152602001610209565b6102316104e5565b604051610209919061222e565b61025161024c366004612241565b610577565b6040516001600160a01b039091168152602001610209565b61027c61027736600461226f565b610611565b005b61027c61028c36600461229b565b610726565b61027c61029f3660046122dc565b610757565b61021b6107d5565b61027c6102ba36600461230b565b6107e4565b6102316102cd366004612352565b61086f565b61021b6102e036600461226f565b610914565b61027c6102f336600461229b565b61093d565b6102516103063660046122dc565b6001600160a01b039081166000908152600660205260409020541690565b61027c6103323660046122dc565b610958565b610251610345366004612241565b610967565b61021b610358366004612374565b6109de565b61021b61036b3660046122dc565b610a92565b61027c610b19565b61021b6103863660046122dc565b610b4f565b600a546001600160a01b0316610251565b61021b6103aa366004612241565b610b6d565b610231610bc9565b61021b6103c53660046122dc565b610bd8565b61027c6103d83660046123bc565b610bf9565b6102517f000000000000000000000000000000000000000000000000000000000000000081565b61027c610412366004612464565b610c04565b61027c610425366004612513565b610c3c565b610231610438366004612241565b610d69565b600d54610251906001600160a01b031681565b6101fd61045e366004612575565b6001600160a01b03918216600090815260056020908152604080832093909416825291909152205460ff1690565b61027c61049a3660046122dc565b610e00565b60006001600160e01b0319821663aa91a66f60e01b14806104d057506001600160e01b0319821663ad007d6360e01b145b806104df57506104df82610e9b565b92915050565b6060600080546104f4906125a3565b80601f0160208091040260200160405190810160405280929190818152602001828054610520906125a3565b801561056d5780601f106105425761010080835404028352916020019161056d565b820191906000526020600020905b81548152906001019060200180831161055057829003601f168201915b5050505050905090565b6000818152600260205260408120546001600160a01b03166105f55760405162461bcd60e51b815260206004820152602c60248201527f4552433732313a20617070726f76656420717565727920666f72206e6f6e657860448201526b34b9ba32b73a103a37b5b2b760a11b60648201526084015b60405180910390fd5b506000908152600460205260409020546001600160a01b031690565b600061061c82610967565b9050806001600160a01b0316836001600160a01b0316036106895760405162461bcd60e51b815260206004820152602160248201527f4552433732313a20617070726f76616c20746f2063757272656e74206f776e656044820152603960f91b60648201526084016105ec565b336001600160a01b03821614806106a557506106a5813361045e565b6107175760405162461bcd60e51b815260206004820152603860248201527f4552433732313a20617070726f76652063616c6c6572206973206e6f74206f7760448201527f6e6572206e6f7220617070726f76656420666f7220616c6c000000000000000060648201526084016105ec565b6107218383610eeb565b505050565b6107303382610f59565b61074c5760405162461bcd60e51b81526004016105ec906125d7565b610721838383611050565b600a546001600160a01b031633146107815760405162461bcd60e51b81526004016105ec90612628565b600d80546001600160a01b0319166001600160a01b0383169081179091556040513381527fe7784d93cfbfa4408e19577e6cc0436f4dbb51214b70e100905dfce9def88c169060200160405180910390a250565b60006107df6111f2565b905090565b6107ed82610967565b8260066107fb838383611319565b610805848061265d565b6000878152600c6020908152604080832089830135845290915290209161082d9190836126f2565b50847fd07720acb527321c9d1766f359139d0e0e3551bd99fb3ca353d4f008f3aad8e685336040516108609291906127b3565b60405180910390a25050505050565b600c60209081526000928352604080842090915290825290208054610893906125a3565b80601f01602080910402602001604051908101604052809291908181526020018280546108bf906125a3565b801561090c5780601f106108e15761010080835404028352916020019161090c565b820191906000526020600020905b8154815290600101906020018083116108ef57829003601f168201915b505050505081565b6001600160a01b03821660009081526007602052604081206109369083611492565b9392505050565b61072183838360405180602001604052806000815250610c04565b3361096381836115a1565b5050565b6000818152600260205260408120546001600160a01b0316806104df5760405162461bcd60e51b815260206004820152602960248201527f4552433732313a206f776e657220717565727920666f72206e6f6e657869737460448201526832b73a103a37b5b2b760b91b60648201526084016105ec565b6000600b600081546109ef9061285b565b91829055509050610a008382611613565b6000610a0c838061265d565b90501115610a4857610a1e828061265d565b6000838152600c60209081526040808320878301358452909152902091610a469190836126f2565b505b826001600160a01b0316817fa1c6fd563bcbc3222f6031d7c26ff58cd6c701abff0bfffe652d055ce40629d48433604051610a849291906127b3565b60405180910390a392915050565b60006001600160a01b038216610afd5760405162461bcd60e51b815260206004820152602a60248201527f4552433732313a2062616c616e636520717565727920666f7220746865207a65604482015269726f206164647265737360b01b60648201526084016105ec565b506001600160a01b031660009081526003602052604090205490565b600a546001600160a01b03163314610b435760405162461bcd60e51b81526004016105ec90612628565b610b4d600061162d565b565b6001600160a01b0381166000908152600960205260408120546104df565b6000438210610bbe5760405162461bcd60e51b815260206004820152601a60248201527f566f7465733a20626c6f636b206e6f7420796574206d696e656400000000000060448201526064016105ec565b6104df600883611492565b6060600180546104f4906125a3565b6001600160a01b03811660009081526007602052604081206104df9061167f565b6109633383836116db565b610c0e3383610f59565b610c2a5760405162461bcd60e51b81526004016105ec906125d7565b610c36848484846117a9565b50505050565b83421115610c8c5760405162461bcd60e51b815260206004820152601860248201527f566f7465733a207369676e61747572652065787069726564000000000000000060448201526064016105ec565b604080517fe48329057bfd03d55e49b547132e39cffd9c1820ad7b9d4c5307691425d15adf60208201526001600160a01b038816918101919091526060810186905260808101859052600090610d0690610cfe9060a001604051602081830303815290604052805190602001206117dc565b85858561182a565b9050610d1181611852565b8614610d565760405162461bcd60e51b8152602060048201526014602482015273566f7465733a20696e76616c6964206e6f6e636560601b60448201526064016105ec565b610d6081886115a1565b50505050505050565b600d546060906001600160a01b031680610d93575050604080516020810190915260008152919050565b604051636d02a25560e11b8152600481018490526001600160a01b0382169063da0544aa90602401600060405180830381865afa158015610dd8573d6000803e3d6000fd5b505050506040513d6000823e601f3d908101601f191682016040526109369190810190612874565b600a546001600160a01b03163314610e2a5760405162461bcd60e51b81526004016105ec90612628565b6001600160a01b038116610e8f5760405162461bcd60e51b815260206004820152602660248201527f4f776e61626c653a206e6577206f776e657220697320746865207a65726f206160448201526564647265737360d01b60648201526084016105ec565b610e988161162d565b50565b60006001600160e01b031982166380ac58cd60e01b1480610ecc57506001600160e01b03198216635b5e139f60e01b145b806104df57506301ffc9a760e01b6001600160e01b03198316146104df565b600081815260046020526040902080546001600160a01b0319166001600160a01b0384169081179091558190610f2082610967565b6001600160a01b03167f8c5be1e5ebec7d5bd14f71427d1e84f3dd0314c0f7b2291e5b200ac8c7c3b92560405160405180910390a45050565b6000818152600260205260408120546001600160a01b0316610fd25760405162461bcd60e51b815260206004820152602c60248201527f4552433732313a206f70657261746f7220717565727920666f72206e6f6e657860448201526b34b9ba32b73a103a37b5b2b760a11b60648201526084016105ec565b6000610fdd83610967565b9050806001600160a01b0316846001600160a01b031614806110185750836001600160a01b031661100d84610577565b6001600160a01b0316145b8061104857506001600160a01b0380821660009081526005602090815260408083209388168352929052205460ff165b949350505050565b826001600160a01b031661106382610967565b6001600160a01b0316146110c75760405162461bcd60e51b815260206004820152602560248201527f4552433732313a207472616e736665722066726f6d20696e636f72726563742060448201526437bbb732b960d91b60648201526084016105ec565b6001600160a01b0382166111295760405162461bcd60e51b8152602060048201526024808201527f4552433732313a207472616e7366657220746f20746865207a65726f206164646044820152637265737360e01b60648201526084016105ec565b611134600082610eeb565b6001600160a01b038316600090815260036020526040812080546001929061115d9084906128eb565b90915550506001600160a01b038216600090815260036020526040812080546001929061118b9084906128fe565b909155505060008181526002602052604080822080546001600160a01b0319166001600160a01b0386811691821790925591518493918716917fddf252ad1be2c89b69c2b068fc378daa952ba7f163c4a11628f55a4df523b3ef91a461072183838361187a565b6000306001600160a01b037f00000000000000000000000000000000000000000000000000000000000000001614801561124b57507f000000000000000000000000000000000000000000000000000000000000000046145b1561127557507f000000000000000000000000000000000000000000000000000000000000000090565b50604080517f00000000000000000000000000000000000000000000000000000000000000006020808301919091527f0000000000000000000000000000000000000000000000000000000000000000828401527f000000000000000000000000000000000000000000000000000000000000000060608301524660808301523060a0808401919091528351808403909101815260c0909201909252805191012090565b336001600160a01b038416148015906113cd575060405163c161c93f60e01b81523360048201526001600160a01b03848116602483015260448201849052606482018390527f0000000000000000000000000000000000000000000000000000000000000000169063c161c93f90608401602060405180830381865afa1580156113a7573d6000803e3d6000fd5b505050506040513d601f19601f820116820180604052508101906113cb9190612911565b155b8015611474575060405163c161c93f60e01b81523360048201526001600160a01b03848116602483015260006044830152606482018390527f0000000000000000000000000000000000000000000000000000000000000000169063c161c93f90608401602060405180830381865afa15801561144e573d6000803e3d6000fd5b505050506040513d601f19601f820116820180604052508101906114729190612911565b155b156107215760405163075fd2b160e01b815260040160405180910390fd5b60004382106114e35760405162461bcd60e51b815260206004820181905260248201527f436865636b706f696e74733a20626c6f636b206e6f7420796574206d696e656460448201526064016105ec565b825460005b818110156115485760006114fc8284611886565b9050848660000182815481106115145761151461292e565b60009182526020909120015463ffffffff16111561153457809250611542565b61153f8160016128fe565b91505b506114e8565b811561158c578461155a6001846128eb565b8154811061156a5761156a61292e565b60009182526020909120015464010000000090046001600160e01b031661158f565b60005b6001600160e01b031695945050505050565b6001600160a01b0382811660008181526006602052604080822080548686166001600160a01b0319821681179092559151919094169392849290917f3134e8a2e6d97e929a7e54011ea5485d7d196dd5f0ba4d4ef95803e8e3fc257f9190a4610721818361160e866118a1565b6118ac565b6109638282604051806020016040528060008152506119da565b600a80546001600160a01b038381166001600160a01b0319831681179093556040519116919082907f8be0079c531659141344cd1fd0a4f28419497f9722a3daafe3b4186f6b6457e090600090a35050565b805460009080156116c857826116966001836128eb565b815481106116a6576116a661292e565b60009182526020909120015464010000000090046001600160e01b03166116cb565b60005b6001600160e01b03169392505050565b816001600160a01b0316836001600160a01b03160361173c5760405162461bcd60e51b815260206004820152601960248201527f4552433732313a20617070726f766520746f2063616c6c65720000000000000060448201526064016105ec565b6001600160a01b03838116600081815260056020908152604080832094871680845294825291829020805460ff191686151590811790915591519182527f17307eab39ab6107e8899845ad3d59bd9653f200f220920489ca2b5937696c31910160405180910390a3505050565b6117b4848484611050565b6117c084848484611a0d565b610c365760405162461bcd60e51b81526004016105ec90612944565b60006104df6117e96111f2565b8360405161190160f01b6020820152602281018390526042810182905260009060620160405160208183030381529060405280519060200120905092915050565b600080600061183b87878787611b0b565b9150915061184881611bf8565b5095945050505050565b6001600160a01b03811660009081526009602052604090208054600181018255905b50919050565b61072183836001611dae565b60006118956002848418612996565b610936908484166128fe565b60006104df82610a92565b816001600160a01b0316836001600160a01b0316141580156118ce5750600081115b15610721576001600160a01b0383161561195c576001600160a01b0383166000908152600760205260408120819061190990611e1e85611e2a565b91509150846001600160a01b03167fdec2bacdd2f05b59de34da9b523dff8be42e5e38e818c82fdb0bae774387a7248383604051611951929190918252602082015260400190565b60405180910390a250505b6001600160a01b03821615610721576001600160a01b0382166000908152600760205260408120819061199290611e5885611e2a565b91509150836001600160a01b03167fdec2bacdd2f05b59de34da9b523dff8be42e5e38e818c82fdb0bae774387a7248383604051610860929190918252602082015260400190565b6119e48383611e64565b6119f16000848484611a0d565b6107215760405162461bcd60e51b81526004016105ec90612944565b60006001600160a01b0384163b15611b0357604051630a85bd0160e11b81526001600160a01b0385169063150b7a0290611a519033908990889088906004016129b8565b6020604051808303816000875af1925050508015611a8c575060408051601f3d908101601f19168201909252611a89918101906129f5565b60015b611ae9573d808015611aba576040519150601f19603f3d011682016040523d82523d6000602084013e611abf565b606091505b508051600003611ae15760405162461bcd60e51b81526004016105ec90612944565b805181602001fd5b6001600160e01b031916630a85bd0160e11b149050611048565b506001611048565b6000807f7fffffffffffffffffffffffffffffff5d576e7357a4501ddfe92f46681b20a0831115611b425750600090506003611bef565b8460ff16601b14158015611b5a57508460ff16601c14155b15611b6b5750600090506004611bef565b6040805160008082526020820180845289905260ff881692820192909252606081018690526080810185905260019060a0016020604051602081039080840390855afa158015611bbf573d6000803e3d6000fd5b5050604051601f1901519150506001600160a01b038116611be857600060019250925050611bef565b9150600090505b94509492505050565b6000816004811115611c0c57611c0c612a12565b03611c145750565b6001816004811115611c2857611c28612a12565b03611c755760405162461bcd60e51b815260206004820152601860248201527f45434453413a20696e76616c6964207369676e6174757265000000000000000060448201526064016105ec565b6002816004811115611c8957611c89612a12565b03611cd65760405162461bcd60e51b815260206004820152601f60248201527f45434453413a20696e76616c6964207369676e6174757265206c656e6774680060448201526064016105ec565b6003816004811115611cea57611cea612a12565b03611d425760405162461bcd60e51b815260206004820152602260248201527f45434453413a20696e76616c6964207369676e6174757265202773272076616c604482015261756560f01b60648201526084016105ec565b6004816004811115611d5657611d56612a12565b03610e985760405162461bcd60e51b815260206004820152602260248201527f45434453413a20696e76616c6964207369676e6174757265202776272076616c604482015261756560f01b60648201526084016105ec565b6001600160a01b038316611dcd57611dca6008611e5883611e2a565b50505b6001600160a01b038216611dec57611de96008611e1e83611e2a565b50505b6001600160a01b03838116600090815260066020526040808220548584168352912054610721929182169116836118ac565b600061093682846128eb565b600080611e4c85611e47611e3d8861167f565b868863ffffffff16565b611fae565b91509150935093915050565b600061093682846128fe565b6001600160a01b038216611eba5760405162461bcd60e51b815260206004820181905260248201527f4552433732313a206d696e7420746f20746865207a65726f206164647265737360448201526064016105ec565b6000818152600260205260409020546001600160a01b031615611f1f5760405162461bcd60e51b815260206004820152601c60248201527f4552433732313a20746f6b656e20616c7265616479206d696e7465640000000060448201526064016105ec565b6001600160a01b0382166000908152600360205260408120805460019290611f489084906128fe565b909155505060008181526002602052604080822080546001600160a01b0319166001600160a01b03861690811790915590518392907fddf252ad1be2c89b69c2b068fc378daa952ba7f163c4a11628f55a4df523b3ef908290a46109636000838361187a565b8154600090819081611fbf8661167f565b9050600082118015611ffd57504386611fd96001856128eb565b81548110611fe957611fe961292e565b60009182526020909120015463ffffffff16145b1561205d5761200b856120d9565b866120176001856128eb565b815481106120275761202761292e565b9060005260206000200160000160046101000a8154816001600160e01b0302191690836001600160e01b031602179055506120cb565b85600001604051806040016040528061207543612146565b63ffffffff168152602001612089886120d9565b6001600160e01b0390811690915282546001810184556000938452602093849020835194909301519091166401000000000263ffffffff909316929092179101555b9250839150505b9250929050565b60006001600160e01b038211156121425760405162461bcd60e51b815260206004820152602760248201527f53616665436173743a2076616c756520646f65736e27742066697420696e20326044820152663234206269747360c81b60648201526084016105ec565b5090565b600063ffffffff8211156121425760405162461bcd60e51b815260206004820152602660248201527f53616665436173743a2076616c756520646f65736e27742066697420696e203360448201526532206269747360d01b60648201526084016105ec565b6001600160e01b031981168114610e9857600080fd5b6000602082840312156121d357600080fd5b8135610936816121ab565b60005b838110156121f95781810151838201526020016121e1565b50506000910152565b6000815180845261221a8160208601602086016121de565b601f01601f19169290920160200192915050565b6020815260006109366020830184612202565b60006020828403121561225357600080fd5b5035919050565b6001600160a01b0381168114610e9857600080fd5b6000806040838503121561228257600080fd5b823561228d8161225a565b946020939093013593505050565b6000806000606084860312156122b057600080fd5b83356122bb8161225a565b925060208401356122cb8161225a565b929592945050506040919091013590565b6000602082840312156122ee57600080fd5b81356109368161225a565b60006040828403121561187457600080fd5b6000806040838503121561231e57600080fd5b82359150602083013567ffffffffffffffff81111561233c57600080fd5b612348858286016122f9565b9150509250929050565b6000806040838503121561236557600080fd5b50508035926020909101359150565b6000806040838503121561238757600080fd5b82356123928161225a565b9150602083013567ffffffffffffffff81111561233c57600080fd5b8015158114610e9857600080fd5b600080604083850312156123cf57600080fd5b82356123da8161225a565b915060208301356123ea816123ae565b809150509250929050565b634e487b7160e01b600052604160045260246000fd5b604051601f8201601f1916810167ffffffffffffffff81118282101715612434576124346123f5565b604052919050565b600067ffffffffffffffff821115612456576124566123f5565b50601f01601f191660200190565b6000806000806080858703121561247a57600080fd5b84356124858161225a565b935060208501356124958161225a565b925060408501359150606085013567ffffffffffffffff8111156124b857600080fd5b8501601f810187136124c957600080fd5b80356124dc6124d78261243c565b61240b565b8181528860208385010111156124f157600080fd5b8160208401602083013760006020838301015280935050505092959194509250565b60008060008060008060c0878903121561252c57600080fd5b86356125378161225a565b95506020870135945060408701359350606087013560ff8116811461255b57600080fd5b9598949750929560808101359460a0909101359350915050565b6000806040838503121561258857600080fd5b82356125938161225a565b915060208301356123ea8161225a565b600181811c908216806125b757607f821691505b60208210810361187457634e487b7160e01b600052602260045260246000fd5b60208082526031908201527f4552433732313a207472616e736665722063616c6c6572206973206e6f74206f6040820152701ddb995c881b9bdc88185c1c1c9bdd9959607a1b606082015260800190565b6020808252818101527f4f776e61626c653a2063616c6c6572206973206e6f7420746865206f776e6572604082015260600190565b6000808335601e1984360301811261267457600080fd5b83018035915067ffffffffffffffff82111561268f57600080fd5b6020019150368190038213156120d257600080fd5b601f82111561072157600081815260208120601f850160051c810160208610156126cb5750805b601f850160051c820191505b818110156126ea578281556001016126d7565b505050505050565b67ffffffffffffffff83111561270a5761270a6123f5565b61271e8361271883546125a3565b836126a4565b6000601f841160018114612752576000851561273a5750838201355b600019600387901b1c1916600186901b1783556127ac565b600083815260209020601f19861690835b828110156127835786850135825560209485019460019092019101612763565b50868210156127a05760001960f88860031b161c19848701351681555b505060018560011b0183555b5050505050565b6040815260008335601e198536030181126127cd57600080fd5b840160208101903567ffffffffffffffff8111156127ea57600080fd5b8036038213156127f957600080fd5b604080850152806080850152808260a0860137600060a082860101526020860135606085015260a0601f19601f8301168501019250505061093660208301846001600160a01b03169052565b634e487b7160e01b600052601160045260246000fd5b60006001820161286d5761286d612845565b5060010190565b60006020828403121561288657600080fd5b815167ffffffffffffffff81111561289d57600080fd5b8201601f810184136128ae57600080fd5b80516128bc6124d78261243c565b8181528560208385010111156128d157600080fd5b6128e28260208301602086016121de565b95945050505050565b818103818111156104df576104df612845565b808201808211156104df576104df612845565b60006020828403121561292357600080fd5b8151610936816123ae565b634e487b7160e01b600052603260045260246000fd5b60208082526032908201527f4552433732313a207472616e7366657220746f206e6f6e20455243373231526560408201527131b2b4bb32b91034b6b83632b6b2b73a32b960711b606082015260800190565b6000826129b357634e487b7160e01b600052601260045260246000fd5b500490565b6001600160a01b03858116825284166020820152604081018390526080606082018190526000906129eb90830184612202565b9695505050505050565b600060208284031215612a0757600080fd5b8151610936816121ab565b634e487b7160e01b600052602160045260246000fdfea264697066735822122051d42021051642f53d1d1aedfb9274462f7b8b56e0b54d4ec8da05a2a0e001f464736f6c63430008100033",
    "linkReferences": {}
  },
  "methodIdentifiers": {
    "DOMAIN_SEPARATOR()": "3644e515",
    "approve(address,uint256)": "095ea7b3",
    "balanceOf(address)": "70a08231",
    "count()": "06661abd",
    "createFor(address,(string,uint256))": "666d87a0",
    "delegate(address)": "5c19a95c",
    "delegateBySig(address,uint256,uint256,uint8,bytes32,bytes32)": "c3cda520",
    "delegates(address)": "587cde1e",
    "getApproved(uint256)": "081812fc",
    "getPastTotalSupply(uint256)": "8e539e8c",
    "getPastVotes(address,uint256)": "3a46b1a8",
    "getVotes(address)": "9ab24eb0",
    "isApprovedForAll(address,address)": "e985e9c5",
    "metadataContentOf(uint256,uint256)": "39fbc775",
    "name()": "06fdde03",
    "nonces(address)": "7ecebe00",
    "operatorStore()": "ad007d63",
    "owner()": "8da5cb5b",
    "ownerOf(uint256)": "6352211e",
    "renounceOwnership()": "715018a6",
    "safeTransferFrom(address,address,uint256)": "42842e0e",
    "safeTransferFrom(address,address,uint256,bytes)": "b88d4fde",
    "setApprovalForAll(address,bool)": "a22cb465",
    "setMetadataOf(uint256,(string,uint256))": "36574975",
    "setTokenUriResolver(address)": "2407497e",
    "supportsInterface(bytes4)": "01ffc9a7",
    "symbol()": "95d89b41",
    "tokenURI(uint256)": "c87b56dd",
    "tokenUriResolver()": "e131fc0c",
    "transferFrom(address,address,uint256)": "23b872dd",
    "transferOwnership(address)": "f2fde38b"
  },
  "id": 13
}