{"abi":[{"type":"constructor","inputs":[{"name":"name_","type":"string","internalType":"string"},{"name":"symbol_","type":"string","internalType":"string"}],"stateMutability":"nonpayable"},{"type":"function","name":"approve","inputs":[{"name":"to","type":"address","internalType":"address"},{"name":"tokenId","type":"uint256","internalType":"uint256"}],"outputs":[],"stateMutability":"nonpayable"},{"type":"function","name":"balanceOf","inputs":[{"name":"owner","type":"address","internalType":"address"}],"outputs":[{"name":"","type":"uint256","internalType":"uint256"}],"stateMutability":"view"},{"type":"function","name":"getApproved","inputs":[{"name":"tokenId","type":"uint256","internalType":"uint256"}],"outputs":[{"name":"","type":"address","internalType":"address"}],"stateMutability":"view"},{"type":"function","name":"isApprovedForAll","inputs":[{"name":"owner","type":"address","internalType":"address"},{"name":"operator","type":"address","internalType":"address"}],"outputs":[{"name":"","type":"bool","internalType":"bool"}],"stateMutability":"view"},{"type":"function","name":"name","inputs":[],"outputs":[{"name":"","type":"string","internalType":"string"}],"stateMutability":"view"},{"type":"function","name":"ownerOf","inputs":[{"name":"tokenId","type":"uint256","internalType":"uint256"}],"outputs":[{"name":"","type":"address","internalType":"address"}],"stateMutability":"view"},{"type":"function","name":"safeTransferFrom","inputs":[{"name":"from","type":"address","internalType":"address"},{"name":"to","type":"address","internalType":"address"},{"name":"tokenId","type":"uint256","internalType":"uint256"}],"outputs":[],"stateMutability":"nonpayable"},{"type":"function","name":"safeTransferFrom","inputs":[{"name":"from","type":"address","internalType":"address"},{"name":"to","type":"address","internalType":"address"},{"name":"tokenId","type":"uint256","internalType":"uint256"},{"name":"_data","type":"bytes","internalType":"bytes"}],"outputs":[],"stateMutability":"nonpayable"},{"type":"function","name":"setApprovalForAll","inputs":[{"name":"operator","type":"address","internalType":"address"},{"name":"approved","type":"bool","internalType":"bool"}],"outputs":[],"stateMutability":"nonpayable"},{"type":"function","name":"supportsInterface","inputs":[{"name":"interfaceId","type":"bytes4","internalType":"bytes4"}],"outputs":[{"name":"","type":"bool","internalType":"bool"}],"stateMutability":"view"},{"type":"function","name":"symbol","inputs":[],"outputs":[{"name":"","type":"string","internalType":"string"}],"stateMutability":"view"},{"type":"function","name":"tokenURI","inputs":[{"name":"tokenId","type":"uint256","internalType":"uint256"}],"outputs":[{"name":"","type":"string","internalType":"string"}],"stateMutability":"view"},{"type":"function","name":"transferFrom","inputs":[{"name":"from","type":"address","internalType":"address"},{"name":"to","type":"address","internalType":"address"},{"name":"tokenId","type":"uint256","internalType":"uint256"}],"outputs":[],"stateMutability":"nonpayable"},{"type":"event","name":"Approval","inputs":[{"name":"owner","type":"address","indexed":true,"internalType":"address"},{"name":"approved","type":"address","indexed":true,"internalType":"address"},{"name":"tokenId","type":"uint256","indexed":true,"internalType":"uint256"}],"anonymous":false},{"type":"event","name":"ApprovalForAll","inputs":[{"name":"owner","type":"address","indexed":true,"internalType":"address"},{"name":"operator","type":"address","indexed":true,"internalType":"address"},{"name":"approved","type":"bool","indexed":false,"internalType":"bool"}],"anonymous":false},{"type":"event","name":"Transfer","inputs":[{"name":"from","type":"address","indexed":true,"internalType":"address"},{"name":"to","type":"address","indexed":true,"internalType":"address"},{"name":"tokenId","type":"uint256","indexed":true,"internalType":"uint256"}],"anonymous":false}],"bytecode":{"object":"0x60806040523480156200001157600080fd5b506040516200151a3803806200151a833981016040819052620000349162000122565b60006200004283826200021d565b5060016200005182826200021d565b505050620002e9565b634e487b7160e01b600052604160045260246000fd5b600082601f8301126200008257600080fd5b81516001600160401b03808211156200009f576200009f6200005a565b604051601f8301601f19908116603f01168101908282118183101715620000ca57620000ca6200005a565b8160405283815260209250866020858801011115620000e857600080fd5b600091505b838210156200010c5785820183015181830184015290820190620000ed565b6000602085830101528094505050505092915050565b600080604083850312156200013657600080fd5b82516001600160401b03808211156200014e57600080fd5b6200015c8683870162000070565b935060208501519150808211156200017357600080fd5b50620001828582860162000070565b9150509250929050565b600181811c90821680620001a157607f821691505b602082108103620001c257634e487b7160e01b600052602260045260246000fd5b50919050565b601f82111562000218576000816000526020600020601f850160051c81016020861015620001f35750805b601f850160051c820191505b818110156200021457828155600101620001ff565b5050505b505050565b81516001600160401b038111156200023957620002396200005a565b62000251816200024a84546200018c565b84620001c8565b602080601f831160018114620002895760008415620002705750858301515b600019600386901b1c1916600185901b17855562000214565b600085815260208120601f198616915b82811015620002ba5788860151825594840194600190910190840162000299565b5085821015620002d95787850151600019600388901b60f8161c191681555b5050505050600190811b01905550565b61122180620002f96000396000f3fe608060405234801561001057600080fd5b50600436106100cf5760003560e01c80636352211e1161008c578063a22cb46511610066578063a22cb465146101b3578063b88d4fde146101c6578063c87b56dd146101d9578063e985e9c5146101ec57600080fd5b80636352211e1461017757806370a082311461018a57806395d89b41146101ab57600080fd5b806301ffc9a7146100d457806306fdde03146100fc578063081812fc14610111578063095ea7b31461013c57806323b872dd1461015157806342842e0e14610164575b600080fd5b6100e76100e2366004610d45565b6101ff565b60405190151581526020015b60405180910390f35b610104610251565b6040516100f39190610db2565b61012461011f366004610dc5565b6102e3565b6040516001600160a01b0390911681526020016100f3565b61014f61014a366004610dfa565b61037d565b005b61014f61015f366004610e24565b610492565b61014f610172366004610e24565b6104c3565b610124610185366004610dc5565b6104de565b61019d610198366004610e60565b610555565b6040519081526020016100f3565b6101046105dc565b61014f6101c1366004610e7b565b6105eb565b61014f6101d4366004610ecd565b6105fa565b6101046101e7366004610dc5565b610632565b6100e76101fa366004610fa9565b61071a565b60006001600160e01b031982166380ac58cd60e01b148061023057506001600160e01b03198216635b5e139f60e01b145b8061024b57506301ffc9a760e01b6001600160e01b03198316145b92915050565b60606000805461026090610fdc565b80601f016020809104026020016040519081016040528092919081815260200182805461028c90610fdc565b80156102d95780601f106102ae576101008083540402835291602001916102d9565b820191906000526020600020905b8154815290600101906020018083116102bc57829003601f168201915b5050505050905090565b6000818152600260205260408120546001600160a01b03166103615760405162461bcd60e51b815260206004820152602c60248201527f4552433732313a20617070726f76656420717565727920666f72206e6f6e657860448201526b34b9ba32b73a103a37b5b2b760a11b60648201526084015b60405180910390fd5b506000908152600460205260409020546001600160a01b031690565b6000610388826104de565b9050806001600160a01b0316836001600160a01b0316036103f55760405162461bcd60e51b815260206004820152602160248201527f4552433732313a20617070726f76616c20746f2063757272656e74206f776e656044820152603960f91b6064820152608401610358565b336001600160a01b03821614806104115750610411813361071a565b6104835760405162461bcd60e51b815260206004820152603860248201527f4552433732313a20617070726f76652063616c6c6572206973206e6f74206f7760448201527f6e6572206e6f7220617070726f76656420666f7220616c6c00000000000000006064820152608401610358565b61048d8383610748565b505050565b61049c33826107b6565b6104b85760405162461bcd60e51b815260040161035890611016565b61048d83838361088d565b61048d838383604051806020016040528060008152506105fa565b6000818152600260205260408120546001600160a01b03168061024b5760405162461bcd60e51b815260206004820152602960248201527f4552433732313a206f776e657220717565727920666f72206e6f6e657869737460448201526832b73a103a37b5b2b760b91b6064820152608401610358565b60006001600160a01b0382166105c05760405162461bcd60e51b815260206004820152602a60248201527f4552433732313a2062616c616e636520717565727920666f7220746865207a65604482015269726f206164647265737360b01b6064820152608401610358565b506001600160a01b031660009081526003602052604090205490565b60606001805461026090610fdc565b6105f6338383610a29565b5050565b61060433836107b6565b6106205760405162461bcd60e51b815260040161035890611016565b61062c84848484610af7565b50505050565b6000818152600260205260409020546060906001600160a01b03166106b15760405162461bcd60e51b815260206004820152602f60248201527f4552433732314d657461646174613a2055524920717565727920666f72206e6f60448201526e3732bc34b9ba32b73a103a37b5b2b760891b6064820152608401610358565b60006106c860408051602081019091526000815290565b905060008151116106e85760405180602001604052806000815250610713565b806106f284610b2a565b604051602001610703929190611067565b6040516020818303038152906040525b9392505050565b6001600160a01b03918216600090815260056020908152604080832093909416825291909152205460ff1690565b600081815260046020526040902080546001600160a01b0319166001600160a01b038416908117909155819061077d826104de565b6001600160a01b03167f8c5be1e5ebec7d5bd14f71427d1e84f3dd0314c0f7b2291e5b200ac8c7c3b92560405160405180910390a45050565b6000818152600260205260408120546001600160a01b031661082f5760405162461bcd60e51b815260206004820152602c60248201527f4552433732313a206f70657261746f7220717565727920666f72206e6f6e657860448201526b34b9ba32b73a103a37b5b2b760a11b6064820152608401610358565b600061083a836104de565b9050806001600160a01b0316846001600160a01b031614806108755750836001600160a01b031661086a846102e3565b6001600160a01b0316145b806108855750610885818561071a565b949350505050565b826001600160a01b03166108a0826104de565b6001600160a01b0316146109045760405162461bcd60e51b815260206004820152602560248201527f4552433732313a207472616e736665722066726f6d20696e636f72726563742060448201526437bbb732b960d91b6064820152608401610358565b6001600160a01b0382166109665760405162461bcd60e51b8152602060048201526024808201527f4552433732313a207472616e7366657220746f20746865207a65726f206164646044820152637265737360e01b6064820152608401610358565b610971600082610748565b6001600160a01b038316600090815260036020526040812080546001929061099a9084906110ac565b90915550506001600160a01b03821660009081526003602052604081208054600192906109c89084906110bf565b909155505060008181526002602052604080822080546001600160a01b0319166001600160a01b0386811691821790925591518493918716917fddf252ad1be2c89b69c2b068fc378daa952ba7f163c4a11628f55a4df523b3ef91a4505050565b816001600160a01b0316836001600160a01b031603610a8a5760405162461bcd60e51b815260206004820152601960248201527f4552433732313a20617070726f766520746f2063616c6c6572000000000000006044820152606401610358565b6001600160a01b03838116600081815260056020908152604080832094871680845294825291829020805460ff191686151590811790915591519182527f17307eab39ab6107e8899845ad3d59bd9653f200f220920489ca2b5937696c31910160405180910390a3505050565b610b0284848461088d565b610b0e84848484610c2b565b61062c5760405162461bcd60e51b8152600401610358906110d2565b606081600003610b515750506040805180820190915260018152600360fc1b602082015290565b8160005b8115610b7b5780610b6581611124565b9150610b749050600a83611153565b9150610b55565b60008167ffffffffffffffff811115610b9657610b96610eb7565b6040519080825280601f01601f191660200182016040528015610bc0576020820181803683370190505b5090505b841561088557610bd56001836110ac565b9150610be2600a86611167565b610bed9060306110bf565b60f81b818381518110610c0257610c0261117b565b60200101906001600160f81b031916908160001a905350610c24600a86611153565b9450610bc4565b60006001600160a01b0384163b15610d2157604051630a85bd0160e11b81526001600160a01b0385169063150b7a0290610c6f903390899088908890600401611191565b6020604051808303816000875af1925050508015610caa575060408051601f3d908101601f19168201909252610ca7918101906111ce565b60015b610d07573d808015610cd8576040519150601f19603f3d011682016040523d82523d6000602084013e610cdd565b606091505b508051600003610cff5760405162461bcd60e51b8152600401610358906110d2565b805181602001fd5b6001600160e01b031916630a85bd0160e11b149050610885565b506001949350505050565b6001600160e01b031981168114610d4257600080fd5b50565b600060208284031215610d5757600080fd5b813561071381610d2c565b60005b83811015610d7d578181015183820152602001610d65565b50506000910152565b60008151808452610d9e816020860160208601610d62565b601f01601f19169290920160200192915050565b6020815260006107136020830184610d86565b600060208284031215610dd757600080fd5b5035919050565b80356001600160a01b0381168114610df557600080fd5b919050565b60008060408385031215610e0d57600080fd5b610e1683610dde565b946020939093013593505050565b600080600060608486031215610e3957600080fd5b610e4284610dde565b9250610e5060208501610dde565b9150604084013590509250925092565b600060208284031215610e7257600080fd5b61071382610dde565b60008060408385031215610e8e57600080fd5b610e9783610dde565b915060208301358015158114610eac57600080fd5b809150509250929050565b634e487b7160e01b600052604160045260246000fd5b60008060008060808587031215610ee357600080fd5b610eec85610dde565b9350610efa60208601610dde565b925060408501359150606085013567ffffffffffffffff80821115610f1e57600080fd5b818701915087601f830112610f3257600080fd5b813581811115610f4457610f44610eb7565b604051601f8201601f19908116603f01168101908382118183101715610f6c57610f6c610eb7565b816040528281528a6020848701011115610f8557600080fd5b82602086016020830137600060208483010152809550505050505092959194509250565b60008060408385031215610fbc57600080fd5b610fc583610dde565b9150610fd360208401610dde565b90509250929050565b600181811c90821680610ff057607f821691505b60208210810361101057634e487b7160e01b600052602260045260246000fd5b50919050565b60208082526031908201527f4552433732313a207472616e736665722063616c6c6572206973206e6f74206f6040820152701ddb995c881b9bdc88185c1c1c9bdd9959607a1b606082015260800190565b60008351611079818460208801610d62565b83519083019061108d818360208801610d62565b01949350505050565b634e487b7160e01b600052601160045260246000fd5b8181038181111561024b5761024b611096565b8082018082111561024b5761024b611096565b60208082526032908201527f4552433732313a207472616e7366657220746f206e6f6e20455243373231526560408201527131b2b4bb32b91034b6b83632b6b2b73a32b960711b606082015260800190565b60006001820161113657611136611096565b5060010190565b634e487b7160e01b600052601260045260246000fd5b6000826111625761116261113d565b500490565b6000826111765761117661113d565b500690565b634e487b7160e01b600052603260045260246000fd5b6001600160a01b03858116825284166020820152604081018390526080606082018190526000906111c490830184610d86565b9695505050505050565b6000602082840312156111e057600080fd5b815161071381610d2c56fea2646970667358221220cfc1064681dcbaeef3464283b2011235d9c99f62a6ad80a8059ffc843aa5b74e64736f6c63430008170033","linkReferences":{}},"methodIdentifiers":{"approve(address,uint256)":"095ea7b3","balanceOf(address)":"70a08231","getApproved(uint256)":"081812fc","isApprovedForAll(address,address)":"e985e9c5","name()":"06fdde03","ownerOf(uint256)":"6352211e","safeTransferFrom(address,address,uint256)":"42842e0e","safeTransferFrom(address,address,uint256,bytes)":"b88d4fde","setApprovalForAll(address,bool)":"a22cb465","supportsInterface(bytes4)":"01ffc9a7","symbol()":"95d89b41","tokenURI(uint256)":"c87b56dd","transferFrom(address,address,uint256)":"23b872dd"},"id":27}