{
  "abi": [
    {
      "inputs": [
        {
          "internalType": "string",
          "name": "name",
          "type": "string"
        },
        {
          "internalType": "string",
          "name": "symbol",
          "type": "string"
        }
      ],
      "stateMutability": "nonpayable",
      "type": "constructor"
    },
    {
      "anonymous": false,
      "inputs": [
        {
          "indexed": true,
          "internalType": "address",
          "name": "owner",
          "type": "address"
        },
        {
          "indexed": true,
          "internalType": "address",
          "name": "approved",
          "type": "address"
        },
        {
          "indexed": true,
          "internalType": "uint256",
          "name": "tokenId",
          "type": "uint256"
        }
      ],
      "name": "Approval",
      "type": "event"
    },
    {
      "anonymous": false,
      "inputs": [
        {
          "indexed": true,
          "internalType": "address",
          "name": "owner",
          "type": "address"
        },
        {
          "indexed": true,
          "internalType": "address",
          "name": "operator",
          "type": "address"
        },
        {
          "indexed": false,
          "internalType": "bool",
          "name": "approved",
          "type": "bool"
        }
      ],
      "name": "ApprovalForAll",
      "type": "event"
    },
    {
      "anonymous": false,
      "inputs": [
        {
          "indexed": true,
          "internalType": "address",
          "name": "from",
          "type": "address"
        },
        {
          "indexed": true,
          "internalType": "address",
          "name": "to",
          "type": "address"
        },
        {
          "indexed": true,
          "internalType": "uint256",
          "name": "tokenId",
          "type": "uint256"
        }
      ],
      "name": "Transfer",
      "type": "event"
    },
    {
      "inputs": [
        {
          "internalType": "address",
          "name": "to",
          "type": "address"
        },
        {
          "internalType": "uint256",
          "name": "tokenId",
          "type": "uint256"
        }
      ],
      "name": "approve",
      "outputs": [],
      "stateMutability": "nonpayable",
      "type": "function"
    },
    {
      "inputs": [
        {
          "internalType": "address",
          "name": "owner",
          "type": "address"
        }
      ],
      "name": "balanceOf",
      "outputs": [
        {
          "internalType": "uint256",
          "name": "",
          "type": "uint256"
        }
      ],
      "stateMutability": "view",
      "type": "function"
    },
    {
      "inputs": [
        {
          "internalType": "uint256",
          "name": "tokenId",
          "type": "uint256"
        }
      ],
      "name": "getApproved",
      "outputs": [
        {
          "internalType": "address",
          "name": "",
          "type": "address"
        }
      ],
      "stateMutability": "view",
      "type": "function"
    },
    {
      "inputs": [
        {
          "internalType": "address",
          "name": "owner",
          "type": "address"
        },
        {
          "internalType": "address",
          "name": "operator",
          "type": "address"
        }
      ],
      "name": "isApprovedForAll",
      "outputs": [
        {
          "internalType": "bool",
          "name": "",
          "type": "bool"
        }
      ],
      "stateMutability": "view",
      "type": "function"
    },
    {
      "inputs": [
        {
          "internalType": "address",
          "name": "to",
          "type": "address"
        }
      ],
      "name": "mint",
      "outputs": [],
      "stateMutability": "nonpayable",
      "type": "function"
    },
    {
      "inputs": [],
      "name": "name",
      "outputs": [
        {
          "internalType": "string",
          "name": "",
          "type": "string"
        }
      ],
      "stateMutability": "view",
      "type": "function"
    },
    {
      "inputs": [
        {
          "internalType": "uint256",
          "name": "tokenId",
          "type": "uint256"
        }
      ],
      "name": "ownerOf",
      "outputs": [
        {
          "internalType": "address",
          "name": "",
          "type": "address"
        }
      ],
      "stateMutability": "view",
      "type": "function"
    },
    {
      "inputs": [
        {
          "internalType": "address",
          "name": "from",
          "type": "address"
        },
        {
          "internalType": "address",
          "name": "to",
          "type": "address"
        },
        {
          "internalType": "uint256",
          "name": "tokenId",
          "type": "uint256"
        }
      ],
      "name": "safeTransferFrom",
      "outputs": [],
      "stateMutability": "nonpayable",
      "type": "function"
    },
    {
      "inputs": [
        {
          "internalType": "address",
          "name": "from",
          "type": "address"
        },
        {
          "internalType": "address",
          "name": "to",
          "type": "address"
        },
        {
          "internalType": "uint256",
          "name": "tokenId",
          "type": "uint256"
        },
        {
          "internalType": "bytes",
          "name": "_data",
          "type": "bytes"
        }
      ],
      "name": "safeTransferFrom",
      "outputs": [],
      "stateMutability": "nonpayable",
      "type": "function"
    },
    {
      "inputs": [
        {
          "internalType": "address",
          "name": "operator",
          "type": "address"
        },
        {
          "internalType": "bool",
          "name": "approved",
          "type": "bool"
        }
      ],
      "name": "setApprovalForAll",
      "outputs": [],
      "stateMutability": "nonpayable",
      "type": "function"
    },
    {
      "inputs": [],
      "name": "supply",
      "outputs": [
        {
          "internalType": "uint256",
          "name": "",
          "type": "uint256"
        }
      ],
      "stateMutability": "view",
      "type": "function"
    },
    {
      "inputs": [
        {
          "internalType": "bytes4",
          "name": "interfaceId",
          "type": "bytes4"
        }
      ],
      "name": "supportsInterface",
      "outputs": [
        {
          "internalType": "bool",
          "name": "",
          "type": "bool"
        }
      ],
      "stateMutability": "view",
      "type": "function"
    },
    {
      "inputs": [],
      "name": "symbol",
      "outputs": [
        {
          "internalType": "string",
          "name": "",
          "type": "string"
        }
      ],
      "stateMutability": "view",
      "type": "function"
    },
    {
      "inputs": [
        {
          "internalType": "uint256",
          "name": "tokenId",
          "type": "uint256"
        }
      ],
      "name": "tokenURI",
      "outputs": [
        {
          "internalType": "string",
          "name": "",
          "type": "string"
        }
      ],
      "stateMutability": "view",
      "type": "function"
    },
    {
      "inputs": [
        {
          "internalType": "address",
          "name": "from",
          "type": "address"
        },
        {
          "internalType": "address",
          "name": "to",
          "type": "address"
        },
        {
          "internalType": "uint256",
          "name": "tokenId",
          "type": "uint256"
        }
      ],
      "name": "transferFrom",
      "outputs": [],
      "stateMutability": "nonpayable",
      "type": "function"
    }
  ],
  "bytecode": {
    "object": "0x60806040523480156200001157600080fd5b506040516200167e3803806200167e8339810160408190526200003491620001cb565b8151829082906200004d9060009060208501906200006e565b508051620000639060019060208401906200006e565b505050505062000288565b8280546200007c9062000235565b90600052602060002090601f016020900481019282620000a05760008555620000eb565b82601f10620000bb57805160ff1916838001178555620000eb565b82800160010185558215620000eb579182015b82811115620000eb578251825591602001919060010190620000ce565b50620000f9929150620000fd565b5090565b5b80821115620000f95760008155600101620000fe565b600082601f8301126200012657600080fd5b81516001600160401b038082111562000143576200014362000272565b604051601f8301601f19908116603f011681019082821181831017156200016e576200016e62000272565b816040528381526020925086838588010111156200018b57600080fd5b600091505b83821015620001af578582018301518183018401529082019062000190565b83821115620001c15760008385830101525b9695505050505050565b60008060408385031215620001df57600080fd5b82516001600160401b0380821115620001f757600080fd5b620002058683870162000114565b935060208501519150808211156200021c57600080fd5b506200022b8582860162000114565b9150509250929050565b600181811c908216806200024a57607f821691505b602082108114156200026c57634e487b7160e01b600052602260045260246000fd5b50919050565b634e487b7160e01b600052604160045260246000fd5b6113e680620002986000396000f3fe608060405234801561001057600080fd5b50600436106100f55760003560e01c80636352211e11610097578063a22cb46511610066578063a22cb465146101f5578063b88d4fde14610208578063c87b56dd1461021b578063e985e9c51461022e57600080fd5b80636352211e146101b45780636a627842146101c757806370a08231146101da57806395d89b41146101ed57600080fd5b8063081812fc116100d3578063081812fc1461014e578063095ea7b31461017957806323b872dd1461018e57806342842e0e146101a157600080fd5b806301ffc9a7146100fa578063047fc9aa1461012257806306fdde0314610139575b600080fd5b61010d6101083660046110ee565b61026a565b60405190151581526020015b60405180910390f35b61012b60065481565b604051908152602001610119565b6101416102bc565b60405161011991906111d9565b61016161015c366004611128565b61034e565b6040516001600160a01b039091168152602001610119565b61018c6101873660046110c4565b6103e8565b005b61018c61019c366004610f70565b6104fe565b61018c6101af366004610f70565b61052f565b6101616101c2366004611128565b61054a565b61018c6101d5366004610f22565b6105c1565b61012b6101e8366004610f22565b6105f1565b610141610678565b61018c610203366004611088565b610687565b61018c610216366004610fac565b610696565b610141610229366004611128565b6106ce565b61010d61023c366004610f3d565b6001600160a01b03918216600090815260056020908152604080832093909416825291909152205460ff1690565b60006001600160e01b031982166380ac58cd60e01b148061029b57506001600160e01b03198216635b5e139f60e01b145b806102b657506301ffc9a760e01b6001600160e01b03198316145b92915050565b6060600080546102cb906112fe565b80601f01602080910402602001604051908101604052809291908181526020018280546102f7906112fe565b80156103445780601f1061031957610100808354040283529160200191610344565b820191906000526020600020905b81548152906001019060200180831161032757829003601f168201915b5050505050905090565b6000818152600260205260408120546001600160a01b03166103cc5760405162461bcd60e51b815260206004820152602c60248201527f4552433732313a20617070726f76656420717565727920666f72206e6f6e657860448201526b34b9ba32b73a103a37b5b2b760a11b60648201526084015b60405180910390fd5b506000908152600460205260409020546001600160a01b031690565b60006103f38261054a565b9050806001600160a01b0316836001600160a01b031614156104615760405162461bcd60e51b815260206004820152602160248201527f4552433732313a20617070726f76616c20746f2063757272656e74206f776e656044820152603960f91b60648201526084016103c3565b336001600160a01b038216148061047d575061047d813361023c565b6104ef5760405162461bcd60e51b815260206004820152603860248201527f4552433732313a20617070726f76652063616c6c6572206973206e6f74206f7760448201527f6e6572206e6f7220617070726f76656420666f7220616c6c000000000000000060648201526084016103c3565b6104f983836107b6565b505050565b6105083382610824565b6105245760405162461bcd60e51b81526004016103c39061123e565b6104f983838361091b565b6104f983838360405180602001604052806000815250610696565b6000818152600260205260408120546001600160a01b0316806102b65760405162461bcd60e51b815260206004820152602960248201527f4552433732313a206f776e657220717565727920666f72206e6f6e657869737460448201526832b73a103a37b5b2b760b91b60648201526084016103c3565b6105d98160065460016105d4919061128f565b610ab7565b600680549060006105e983611339565b919050555050565b60006001600160a01b03821661065c5760405162461bcd60e51b815260206004820152602a60248201527f4552433732313a2062616c616e636520717565727920666f7220746865207a65604482015269726f206164647265737360b01b60648201526084016103c3565b506001600160a01b031660009081526003602052604090205490565b6060600180546102cb906112fe565b610692338383610bf9565b5050565b6106a03383610824565b6106bc5760405162461bcd60e51b81526004016103c39061123e565b6106c884848484610cc8565b50505050565b6000818152600260205260409020546060906001600160a01b031661074d5760405162461bcd60e51b815260206004820152602f60248201527f4552433732314d657461646174613a2055524920717565727920666f72206e6f60448201526e3732bc34b9ba32b73a103a37b5b2b760891b60648201526084016103c3565b600061076460408051602081019091526000815290565b9050600081511161078457604051806020016040528060008152506107af565b8061078e84610cfb565b60405160200161079f92919061116d565b6040516020818303038152906040525b9392505050565b600081815260046020526040902080546001600160a01b0319166001600160a01b03841690811790915581906107eb8261054a565b6001600160a01b03167f8c5be1e5ebec7d5bd14f71427d1e84f3dd0314c0f7b2291e5b200ac8c7c3b92560405160405180910390a45050565b6000818152600260205260408120546001600160a01b031661089d5760405162461bcd60e51b815260206004820152602c60248201527f4552433732313a206f70657261746f7220717565727920666f72206e6f6e657860448201526b34b9ba32b73a103a37b5b2b760a11b60648201526084016103c3565b60006108a88361054a565b9050806001600160a01b0316846001600160a01b031614806108e35750836001600160a01b03166108d88461034e565b6001600160a01b0316145b8061091357506001600160a01b0380821660009081526005602090815260408083209388168352929052205460ff165b949350505050565b826001600160a01b031661092e8261054a565b6001600160a01b0316146109925760405162461bcd60e51b815260206004820152602560248201527f4552433732313a207472616e736665722066726f6d20696e636f72726563742060448201526437bbb732b960d91b60648201526084016103c3565b6001600160a01b0382166109f45760405162461bcd60e51b8152602060048201526024808201527f4552433732313a207472616e7366657220746f20746865207a65726f206164646044820152637265737360e01b60648201526084016103c3565b6109ff6000826107b6565b6001600160a01b0383166000908152600360205260408120805460019290610a289084906112bb565b90915550506001600160a01b0382166000908152600360205260408120805460019290610a5690849061128f565b909155505060008181526002602052604080822080546001600160a01b0319166001600160a01b0386811691821790925591518493918716917fddf252ad1be2c89b69c2b068fc378daa952ba7f163c4a11628f55a4df523b3ef91a4505050565b6001600160a01b038216610b0d5760405162461bcd60e51b815260206004820181905260248201527f4552433732313a206d696e7420746f20746865207a65726f206164647265737360448201526064016103c3565b6000818152600260205260409020546001600160a01b031615610b725760405162461bcd60e51b815260206004820152601c60248201527f4552433732313a20746f6b656e20616c7265616479206d696e7465640000000060448201526064016103c3565b6001600160a01b0382166000908152600360205260408120805460019290610b9b90849061128f565b909155505060008181526002602052604080822080546001600160a01b0319166001600160a01b03861690811790915590518392907fddf252ad1be2c89b69c2b068fc378daa952ba7f163c4a11628f55a4df523b3ef908290a45050565b816001600160a01b0316836001600160a01b03161415610c5b5760405162461bcd60e51b815260206004820152601960248201527f4552433732313a20617070726f766520746f2063616c6c65720000000000000060448201526064016103c3565b6001600160a01b03838116600081815260056020908152604080832094871680845294825291829020805460ff191686151590811790915591519182527f17307eab39ab6107e8899845ad3d59bd9653f200f220920489ca2b5937696c31910160405180910390a3505050565b610cd384848461091b565b610cdf84848484610df9565b6106c85760405162461bcd60e51b81526004016103c3906111ec565b606081610d1f5750506040805180820190915260018152600360fc1b602082015290565b8160005b8115610d495780610d3381611339565b9150610d429050600a836112a7565b9150610d23565b60008167ffffffffffffffff811115610d6457610d646113aa565b6040519080825280601f01601f191660200182016040528015610d8e576020820181803683370190505b5090505b841561091357610da36001836112bb565b9150610db0600a86611354565b610dbb90603061128f565b60f81b818381518110610dd057610dd0611394565b60200101906001600160f81b031916908160001a905350610df2600a866112a7565b9450610d92565b60006001600160a01b0384163b15610efb57604051630a85bd0160e11b81526001600160a01b0385169063150b7a0290610e3d90339089908890889060040161119c565b602060405180830381600087803b158015610e5757600080fd5b505af1925050508015610e87575060408051601f3d908101601f19168201909252610e849181019061110b565b60015b610ee1573d808015610eb5576040519150601f19603f3d011682016040523d82523d6000602084013e610eba565b606091505b508051610ed95760405162461bcd60e51b81526004016103c3906111ec565b805181602001fd5b6001600160e01b031916630a85bd0160e11b149050610913565b506001949350505050565b80356001600160a01b0381168114610f1d57600080fd5b919050565b600060208284031215610f3457600080fd5b6107af82610f06565b60008060408385031215610f5057600080fd5b610f5983610f06565b9150610f6760208401610f06565b90509250929050565b600080600060608486031215610f8557600080fd5b610f8e84610f06565b9250610f9c60208501610f06565b9150604084013590509250925092565b60008060008060808587031215610fc257600080fd5b610fcb85610f06565b9350610fd960208601610f06565b925060408501359150606085013567ffffffffffffffff80821115610ffd57600080fd5b818701915087601f83011261101157600080fd5b813581811115611023576110236113aa565b604051601f8201601f19908116603f0116810190838211818310171561104b5761104b6113aa565b816040528281528a602084870101111561106457600080fd5b82602086016020830137600060208483010152809550505050505092959194509250565b6000806040838503121561109b57600080fd5b6110a483610f06565b9150602083013580151581146110b957600080fd5b809150509250929050565b600080604083850312156110d757600080fd5b6110e083610f06565b946020939093013593505050565b60006020828403121561110057600080fd5b81356107af816113c0565b60006020828403121561111d57600080fd5b81516107af816113c0565b60006020828403121561113a57600080fd5b5035919050565b600081518084526111598160208601602086016112d2565b601f01601f19169290920160200192915050565b6000835161117f8184602088016112d2565b8351908301906111938183602088016112d2565b01949350505050565b6001600160a01b03858116825284166020820152604081018390526080606082018190526000906111cf90830184611141565b9695505050505050565b6020815260006107af6020830184611141565b60208082526032908201527f4552433732313a207472616e7366657220746f206e6f6e20455243373231526560408201527131b2b4bb32b91034b6b83632b6b2b73a32b960711b606082015260800190565b60208082526031908201527f4552433732313a207472616e736665722063616c6c6572206973206e6f74206f6040820152701ddb995c881b9bdc88185c1c1c9bdd9959607a1b606082015260800190565b600082198211156112a2576112a2611368565b500190565b6000826112b6576112b661137e565b500490565b6000828210156112cd576112cd611368565b500390565b60005b838110156112ed5781810151838201526020016112d5565b838111156106c85750506000910152565b600181811c9082168061131257607f821691505b6020821081141561133357634e487b7160e01b600052602260045260246000fd5b50919050565b600060001982141561134d5761134d611368565b5060010190565b6000826113635761136361137e565b500690565b634e487b7160e01b600052601160045260246000fd5b634e487b7160e01b600052601260045260246000fd5b634e487b7160e01b600052603260045260246000fd5b634e487b7160e01b600052604160045260246000fd5b6001600160e01b0319811681146113d657600080fd5b5056fea164736f6c6343000806000a",
    "linkReferences": {}
  }
}