{"abi":[{"type":"function","name":"bytesToBytes32","inputs":[{"name":"b","type":"bytes","internalType":"bytes"},{"name":"offset","type":"uint256","internalType":"uint256"}],"outputs":[{"name":"","type":"bytes32","internalType":"bytes32"}],"stateMutability":"pure"},{"type":"event","name":"SlotFound","inputs":[{"name":"who","type":"address","indexed":false,"internalType":"address"},{"name":"fsig","type":"bytes4","indexed":false,"internalType":"bytes4"},{"name":"keysHash","type":"bytes32","indexed":false,"internalType":"bytes32"},{"name":"slot","type":"uint256","indexed":false,"internalType":"uint256"}],"anonymous":false},{"type":"event","name":"WARNING_UninitedSlot","inputs":[{"name":"who","type":"address","indexed":false,"internalType":"address"},{"name":"slot","type":"uint256","indexed":false,"internalType":"uint256"}],"anonymous":false}],"bytecode":{"object":"0x61022b61003a600b82828239805160001a60731461002d57634e487b7160e01b600052600060045260246000fd5b30600052607381538281f3fe73000000000000000000000000000000000000000030146080604052600436106100355760003560e01c8063535849391461003a575b600080fd5b61004d6100483660046100ea565b61005f565b60405190815260200160405180910390f35b60008060006020855111610074578451610077565b60205b905060005b818110156100c85761008f8160086101b5565b8661009a83886101cc565b815181106100aa576100aa6101df565b01602001516001600160f81b031916901c929092179160010161007c565b50909150505b92915050565b634e487b7160e01b600052604160045260246000fd5b600080604083850312156100fd57600080fd5b823567ffffffffffffffff8082111561011557600080fd5b818501915085601f83011261012957600080fd5b81358181111561013b5761013b6100d4565b604051601f8201601f19908116603f01168101908382118183101715610163576101636100d4565b8160405282815288602084870101111561017c57600080fd5b826020860160208301376000602093820184015298969091013596505050505050565b634e487b7160e01b600052601160045260246000fd5b80820281158282048414176100ce576100ce61019f565b808201808211156100ce576100ce61019f565b634e487b7160e01b600052603260045260246000fdfea2646970667358221220c1f88c93ed4aa4f2412a11b7fb111a55504eef085ec539689fdde329cbce2f5264736f6c63430008170033","linkReferences":{}},"methodIdentifiers":{"bytesToBytes32(bytes,uint256)":"53584939"},"id":7}