{
  "abi": [
    {
      "inputs": [
        {
          "internalType": "contract IJBProjects",
          "name": "_projects",
          "type": "address"
        },
        {
          "internalType": "contract IJBOperatorStore",
          "name": "_operatorStore",
          "type": "address"
        },
        {
          "internalType": "contract ITextResolver",
          "name": "_textResolver",
          "type": "address"
        }
      ],
      "stateMutability": "nonpayable",
      "type": "constructor"
    },
    {
      "inputs": [],
      "name": "EMPTY_NAME_PART",
      "type": "error"
    },
    {
      "inputs": [],
      "name": "NO_PARTS",
      "type": "error"
    },
    {
      "inputs": [],
      "name": "UNAUTHORIZED",
      "type": "error"
    },
    {
      "anonymous": false,
      "inputs": [
        {
          "indexed": true,
          "internalType": "uint256",
          "name": "projectId",
          "type": "uint256"
        },
        {
          "indexed": true,
          "internalType": "string",
          "name": "handle",
          "type": "string"
        },
        {
          "indexed": false,
          "internalType": "string[]",
          "name": "parts",
          "type": "string[]"
        },
        {
          "indexed": false,
          "internalType": "address",
          "name": "caller",
          "type": "address"
        }
      ],
      "name": "SetEnsNameParts",
      "type": "event"
    },
    {
      "inputs": [],
      "name": "TEXT_KEY",
      "outputs": [
        {
          "internalType": "string",
          "name": "",
          "type": "string"
        }
      ],
      "stateMutability": "view",
      "type": "function"
    },
    {
      "inputs": [
        {
          "internalType": "uint256",
          "name": "_projectId",
          "type": "uint256"
        }
      ],
      "name": "ensNamePartsOf",
      "outputs": [
        {
          "internalType": "string[]",
          "name": "",
          "type": "string[]"
        }
      ],
      "stateMutability": "view",
      "type": "function"
    },
    {
      "inputs": [
        {
          "internalType": "uint256",
          "name": "_projectId",
          "type": "uint256"
        }
      ],
      "name": "handleOf",
      "outputs": [
        {
          "internalType": "string",
          "name": "",
          "type": "string"
        }
      ],
      "stateMutability": "view",
      "type": "function"
    },
    {
      "inputs": [],
      "name": "operatorStore",
      "outputs": [
        {
          "internalType": "contract IJBOperatorStore",
          "name": "",
          "type": "address"
        }
      ],
      "stateMutability": "view",
      "type": "function"
    },
    {
      "inputs": [],
      "name": "projects",
      "outputs": [
        {
          "internalType": "contract IJBProjects",
          "name": "",
          "type": "address"
        }
      ],
      "stateMutability": "view",
      "type": "function"
    },
    {
      "inputs": [
        {
          "internalType": "uint256",
          "name": "_projectId",
          "type": "uint256"
        },
        {
          "internalType": "string[]",
          "name": "_parts",
          "type": "string[]"
        }
      ],
      "name": "setEnsNamePartsFor",
      "outputs": [],
      "stateMutability": "nonpayable",
      "type": "function"
    },
    {
      "inputs": [],
      "name": "textResolver",
      "outputs": [
        {
          "internalType": "contract ITextResolver",
          "name": "",
          "type": "address"
        }
      ],
      "stateMutability": "view",
      "type": "function"
    }
  ],
  "bytecode": {
    "object": "0x60e060405234801561001057600080fd5b506040516111b43803806111b483398101604081905261002f91610055565b6001600160601b0319606092831b811660805292821b831660a052901b1660c0526100ba565b60008060006060848603121561006a57600080fd5b8351610075816100a2565b6020850151909350610086816100a2565b6040850151909250610097816100a2565b809150509250925092565b6001600160a01b03811681146100b757600080fd5b50565b60805160601c60a05160601c60c05160601c6110a761010d600039600081816087015261051101526000818161012001526101b101526000818161014701528181610672015261072801526110a76000f3fe608060405234801561001057600080fd5b506004361061007d5760003560e01c8063494919871161005b57806349491987146100fb5780638b79543c1461011b578063ad007d6314610142578063c548f3091461016957600080fd5b80632a3377f0146100825780632b5b94ad146100c657806330abe987146100db575b600080fd5b6100a97f000000000000000000000000000000000000000000000000000000000000000081565b6040516001600160a01b0390911681526020015b60405180910390f35b6100d96100d4366004610c79565b61019b565b005b6100ee6100e9366004610c60565b61032f565b6040516100bd9190610e7a565b61010e610109366004610c60565b610412565b6040516100bd9190610ed0565b6100a97f000000000000000000000000000000000000000000000000000000000000000081565b6100a97f000000000000000000000000000000000000000000000000000000000000000081565b61010e604051806040016040528060138152602001721a9d5a58d9589bde17dc1c9bda9958dd17da59606a1b81525081565b6040516331a9108f60e11b8152600481018390527f00000000000000000000000000000000000000000000000000000000000000006001600160a01b031690636352211e9060240160206040518083038186803b1580156101fb57600080fd5b505afa15801561020f573d6000803e3d6000fd5b505050506040513d601f19601f820116820180604052508101906102339190610b92565b82601361024183838361062b565b835180610261576040516314124ae160e31b815260040160405180910390fd5b60005b818110156102b05785818151811061027e5761027e611045565b602002602001015151600014156102a857604051630186fe0d60e51b815260040160405180910390fd5b600101610264565b5060008681526020818152604090912086516102ce92880190610a46565b506102d8856107c7565b6040516102e59190610e0a565b6040518091039020867f2f08b921e66e530e39c2a5a6a1d27d9967e793a553c83bfaf3cb47433021a14c873360405161031f929190610e8d565b60405180910390a3505050505050565b600081815260208181526040808320805482518185028101850190935280835260609492939192909184015b8282101561040757838290600052602060002001805461037a90610faf565b80601f01602080910402602001604051908101604052809291908181526020018280546103a690610faf565b80156103f35780601f106103c8576101008083540402835291602001916103f3565b820191906000526020600020905b8154815290600101906020018083116103d657829003601f168201915b50505050508152602001906001019061035b565b505050509050919050565b600081815260208181526040808320805482518185028101850190935280835260609493849084015b828210156104e757838290600052602060002001805461045a90610faf565b80601f016020809104026020016040519081016040528092919081815260200182805461048690610faf565b80156104d35780601f106104a8576101008083540402835291602001916104d3565b820191906000526020600020905b8154815290600101906020018083116104b657829003601f168201915b50505050508152602001906001019061043b565b50505050905080516000141561050d575050604080516020810190915260008152919050565b60007f00000000000000000000000000000000000000000000000000000000000000006001600160a01b03166359d1d43c61054784610856565b604051806040016040528060138152602001721a9d5a58d9589bde17dc1c9bda9958dd17da59606a1b8152506040518363ffffffff1660e01b8152600401610590929190610eb7565b60006040518083038186803b1580156105a857600080fd5b505afa1580156105bc573d6000803e3d6000fd5b505050506040513d6000823e601f3d908101601f191682016040526105e49190810190610be4565b90506105ef84610948565b8051906020012081805190602001201461061a57505060408051602081019091526000815292915050565b610623826107c7565b949350505050565b336001600160a01b038416148015906106ee575060405163c161c93f60e01b81523360048201526001600160a01b03848116602483015260448201849052606482018390527f0000000000000000000000000000000000000000000000000000000000000000169063c161c93f9060840160206040518083038186803b1580156106b457600080fd5b505afa1580156106c8573d6000803e3d6000fd5b505050506040513d601f19601f820116820180604052508101906106ec9190610bc2565b155b80156107a4575060405163c161c93f60e01b81523360048201526001600160a01b03848116602483015260006044830152606482018390527f0000000000000000000000000000000000000000000000000000000000000000169063c161c93f9060840160206040518083038186803b15801561076a57600080fd5b505afa15801561077e573d6000803e3d6000fd5b505050506040513d601f19601f820116820180604052508101906107a29190610bc2565b155b156107c25760405163075fd2b160e01b815260040160405180910390fd5b505050565b805160609060015b81811161084f5782846107e28385610f68565b815181106107f2576107f2611045565b602002602001015160405160200161080b929190610e26565b60405160208183030381529060405292508181101561084757826040516020016108359190610e55565b60405160208183030381529060405292505b6001016107cf565b5050919050565b60008060405160200161087290620cae8d60eb1b815260030190565b604051602081830303815290604052805190602001206040516020016108a2929190918252602082015260400190565b60405160208183030381529060405280519060200120905060008251905060005b8181101561084f57828482815181106108de576108de611045565b60200260200101516040516020016108f69190610e0a565b60405160208183030381529060405280519060200120604051602001610926929190918252602082015260400190565b60408051601f19818403018152919052805160209091012092506001016108c3565b60608161096c5750506040805180820190915260018152600360fc1b602082015290565b8160005b8115610996578061098081610fea565b915061098f9050600a83610f54565b9150610970565b60008167ffffffffffffffff8111156109b1576109b161105b565b6040519080825280601f01601f1916602001820160405280156109db576020820181803683370190505b5090505b8415610623576109f0600183610f68565b91506109fd600a86611005565b610a08906030610f3c565b60f81b818381518110610a1d57610a1d611045565b60200101906001600160f81b031916908160001a905350610a3f600a86610f54565b94506109df565b828054828255906000526020600020908101928215610a93579160200282015b82811115610a935782518051610a83918491602090910190610aa3565b5091602001919060010190610a66565b50610a9f929150610b23565b5090565b828054610aaf90610faf565b90600052602060002090601f016020900481019282610ad15760008555610b17565b82601f10610aea57805160ff1916838001178555610b17565b82800160010185558215610b17579182015b82811115610b17578251825591602001919060010190610afc565b50610a9f929150610b40565b80821115610a9f576000610b378282610b55565b50600101610b23565b5b80821115610a9f5760008155600101610b41565b508054610b6190610faf565b6000825580601f10610b71575050565b601f016020900490600052602060002090810190610b8f9190610b40565b50565b600060208284031215610ba457600080fd5b81516001600160a01b0381168114610bbb57600080fd5b9392505050565b600060208284031215610bd457600080fd5b81518015158114610bbb57600080fd5b600060208284031215610bf657600080fd5b815167ffffffffffffffff811115610c0d57600080fd5b8201601f81018413610c1e57600080fd5b8051610c31610c2c82610f14565b610ee3565b818152856020838501011115610c4657600080fd5b610c57826020830160208601610f7f565b95945050505050565b600060208284031215610c7257600080fd5b5035919050565b6000806040808486031215610c8d57600080fd5b8335925060208085013567ffffffffffffffff80821115610cad57600080fd5b818701915087601f830112610cc157600080fd5b813581811115610cd357610cd361105b565b8060051b610ce2858201610ee3565b8281528581019085870183870188018d1015610cfd57600080fd5b600093505b84841015610d7657803586811115610d1957600080fd5b8701603f81018e13610d2a57600080fd5b88810135610d3a610c2c82610f14565b8181528f8c838501011115610d4e57600080fd5b818c84018c83013760009181018b019190915284525060019390930192918701918701610d02565b5080985050505050505050509250929050565b600081518084526020808501808196508360051b8101915082860160005b85811015610dd1578284038952610dbf848351610dde565b98850198935090840190600101610da7565b5091979650505050505050565b60008151808452610df6816020860160208601610f7f565b601f01601f19169290920160200192915050565b60008251610e1c818460208701610f7f565b9190910192915050565b60008351610e38818460208801610f7f565b835190830190610e4c818360208801610f7f565b01949350505050565b60008251610e67818460208701610f7f565b601760f91b920191825250600101919050565b602081526000610bbb6020830184610d89565b604081526000610ea06040830185610d89565b905060018060a01b03831660208301529392505050565b8281526040602082015260006106236040830184610dde565b602081526000610bbb6020830184610dde565b604051601f8201601f1916810167ffffffffffffffff81118282101715610f0c57610f0c61105b565b604052919050565b600067ffffffffffffffff821115610f2e57610f2e61105b565b50601f01601f191660200190565b60008219821115610f4f57610f4f611019565b500190565b600082610f6357610f6361102f565b500490565b600082821015610f7a57610f7a611019565b500390565b60005b83811015610f9a578181015183820152602001610f82565b83811115610fa9576000848401525b50505050565b600181811c90821680610fc357607f821691505b60208210811415610fe457634e487b7160e01b600052602260045260246000fd5b50919050565b6000600019821415610ffe57610ffe611019565b5060010190565b6000826110145761101461102f565b500690565b634e487b7160e01b600052601160045260246000fd5b634e487b7160e01b600052601260045260246000fd5b634e487b7160e01b600052603260045260246000fd5b634e487b7160e01b600052604160045260246000fdfea2646970667358221220456428c0ecdc16d3c57bf7470b0e789b4a13be4480c0fd05c69f6d79dda1f96464736f6c63430008060033",
    "linkReferences": {}
  },
  "methodIdentifiers": {
    "TEXT_KEY()": "c548f309",
    "ensNamePartsOf(uint256)": "30abe987",
    "handleOf(uint256)": "49491987",
    "operatorStore()": "ad007d63",
    "projects()": "8b79543c",
    "setEnsNamePartsFor(uint256,string[])": "2b5b94ad",
    "textResolver()": "2a3377f0"
  },
  "id": 0
}