{"abi":[{"type":"constructor","inputs":[{"name":"_projects","type":"address","internalType":"contract IJBProjects"},{"name":"_operatorStore","type":"address","internalType":"contract IJBOperatorStore"},{"name":"_oldJbProjectHandles","type":"address","internalType":"contract IJBProjectHandles"}],"stateMutability":"nonpayable"},{"type":"function","name":"TEXT_KEY","inputs":[],"outputs":[{"name":"","type":"string","internalType":"string"}],"stateMutability":"view"},{"type":"function","name":"ensNamePartsOf","inputs":[{"name":"_projectId","type":"uint256","internalType":"uint256"}],"outputs":[{"name":"","type":"string[]","internalType":"string[]"}],"stateMutability":"view"},{"type":"function","name":"ensRegistry","inputs":[],"outputs":[{"name":"","type":"address","internalType":"contract ENS"}],"stateMutability":"view"},{"type":"function","name":"handleOf","inputs":[{"name":"_projectId","type":"uint256","internalType":"uint256"}],"outputs":[{"name":"","type":"string","internalType":"string"}],"stateMutability":"view"},{"type":"function","name":"oldJbProjectHandles","inputs":[],"outputs":[{"name":"","type":"address","internalType":"contract IJBProjectHandles"}],"stateMutability":"view"},{"type":"function","name":"operatorStore","inputs":[],"outputs":[{"name":"","type":"address","internalType":"contract IJBOperatorStore"}],"stateMutability":"view"},{"type":"function","name":"projects","inputs":[],"outputs":[{"name":"","type":"address","internalType":"contract IJBProjects"}],"stateMutability":"view"},{"type":"function","name":"setEnsNamePartsFor","inputs":[{"name":"_projectId","type":"uint256","internalType":"uint256"},{"name":"_parts","type":"string[]","internalType":"string[]"}],"outputs":[],"stateMutability":"nonpayable"},{"type":"event","name":"SetEnsNameParts","inputs":[{"name":"projectId","type":"uint256","indexed":true,"internalType":"uint256"},{"name":"handle","type":"string","indexed":true,"internalType":"string"},{"name":"parts","type":"string[]","indexed":false,"internalType":"string[]"},{"name":"caller","type":"address","indexed":false,"internalType":"address"}],"anonymous":false},{"type":"error","name":"EMPTY_NAME_PART","inputs":[]},{"type":"error","name":"NO_PARTS","inputs":[]},{"type":"error","name":"UNAUTHORIZED","inputs":[]}],"bytecode":{"object":"0x60e060405234801561001057600080fd5b50604051620013f4380380620013f483398101604081905261003191610066565b6001600160a01b0391821660805291811660a0521660c0526100b3565b6001600160a01b038116811461006357600080fd5b50565b60008060006060848603121561007b57600080fd5b83516100868161004e565b60208501519093506100978161004e565b60408501519092506100a88161004e565b809150509250925092565b60805160a05160c0516112f5620000ff6000396000818161019e015261052501526000818161011e01526101d601526000818161014501528181610794015261083b01526112f56000f3fe608060405234801561001057600080fd5b50600436106100885760003560e01c80638b79543c1161005b5780638b79543c14610119578063ad007d6314610140578063c548f30914610167578063d9833b321461019957600080fd5b80632b5b94ad1461008d57806330abe987146100a257806349491987146100cb5780637d73b231146100eb575b600080fd5b6100a061009b366004610cad565b6101c0565b005b6100b56100b0366004610dad565b610348565b6040516100c29190610e70565b60405180910390f35b6100de6100d9366004610dad565b61042b565b6040516100c29190610e8a565b6101016e0c2e074ec69a0dfb2997ba6c7d2e1e81565b6040516001600160a01b0390911681526020016100c2565b6101017f000000000000000000000000000000000000000000000000000000000000000081565b6101017f000000000000000000000000000000000000000000000000000000000000000081565b6100de604051806040016040528060138152602001721a9d5a58d9589bde17dc1c9bda9958dd17da59606a1b81525081565b6101017f000000000000000000000000000000000000000000000000000000000000000081565b6040516331a9108f60e11b8152600481018390527f00000000000000000000000000000000000000000000000000000000000000006001600160a01b031690636352211e90602401602060405180830381865afa158015610225573d6000803e3d6000fd5b505050506040513d601f19601f820116820180604052508101906102499190610e9d565b82601361025783838361074d565b8351600081900361027b576040516314124ae160e31b815260040160405180910390fd5b60005b818110156102c95785818151811061029857610298610ec6565b6020026020010151516000036102c157604051630186fe0d60e51b815260040160405180910390fd5b60010161027e565b5060008681526020818152604090912086516102e792880190610b55565b506102f1856108cb565b6040516102fe9190610edc565b6040518091039020867f2f08b921e66e530e39c2a5a6a1d27d9967e793a553c83bfaf3cb47433021a14c8733604051610338929190610ef8565b60405180910390a3505050505050565b600081815260208181526040808320805482518185028101850190935280835260609492939192909184015b8282101561042057838290600052602060002001805461039390610f22565b80601f01602080910402602001604051908101604052809291908181526020018280546103bf90610f22565b801561040c5780601f106103e15761010080835404028352916020019161040c565b820191906000526020600020905b8154815290600101906020018083116103ef57829003601f168201915b505050505081526020019060010190610374565b505050509050919050565b600081815260208181526040808320805482518185028101850190935280835260609493849084015b8282101561050057838290600052602060002001805461047390610f22565b80601f016020809104026020016040519081016040528092919081815260200182805461049f90610f22565b80156104ec5780601f106104c1576101008083540402835291602001916104ec565b820191906000526020600020905b8154815290600101906020018083116104cf57829003601f168201915b505050505081526020019060010190610454565b50505050905080516000036105bd576040516330abe98760e01b8152600481018490527f00000000000000000000000000000000000000000000000000000000000000006001600160a01b0316906330abe98790602401600060405180830381865afa158015610574573d6000803e3d6000fd5b505050506040513d6000823e601f3d908101601f1916820160405261059c9190810190610fa1565b905080516000036105bd575050604080516020810190915260008152919050565b60006105c88261095a565b604051630178b8bf60e01b8152600481018290529091506000906e0c2e074ec69a0dfb2997ba6c7d2e1e90630178b8bf90602401602060405180830381865afa158015610619573d6000803e3d6000fd5b505050506040513d601f19601f8201168201806040525081019061063d9190610e9d565b90506001600160a01b0381166106655750506040805160208101909152600081529392505050565b60408051808201825260138152721a9d5a58d9589bde17dc1c9bda9958dd17da59606a1b60208201529051631674750f60e21b81526000916001600160a01b038416916359d1d43c916106bd91879190600401611052565b600060405180830381865afa1580156106da573d6000803e3d6000fd5b505050506040513d6000823e601f3d908101601f19168201604052610702919081019061106b565b905061070d86610a4c565b8051906020012081805190602001201461073a575050604080516020810190915260008152949350505050565b610743846108cb565b9695505050505050565b336001600160a01b03841614801590610801575060405163c161c93f60e01b81523360048201526001600160a01b03848116602483015260448201849052606482018390527f0000000000000000000000000000000000000000000000000000000000000000169063c161c93f90608401602060405180830381865afa1580156107db573d6000803e3d6000fd5b505050506040513d601f19601f820116820180604052508101906107ff91906110a0565b155b80156108a8575060405163c161c93f60e01b81523360048201526001600160a01b03848116602483015260006044830152606482018390527f0000000000000000000000000000000000000000000000000000000000000000169063c161c93f90608401602060405180830381865afa158015610882573d6000803e3d6000fd5b505050506040513d601f19601f820116820180604052508101906108a691906110a0565b155b156108c65760405163075fd2b160e01b815260040160405180910390fd5b505050565b805160609060015b8181116109535782846108e683856110d8565b815181106108f6576108f6610ec6565b602002602001015160405160200161090f9291906110f1565b60405160208183030381529060405292508181101561094b57826040516020016109399190611120565b60405160208183030381529060405292505b6001016108d3565b5050919050565b60008060405160200161097690620cae8d60eb1b815260030190565b604051602081830303815290604052805190602001206040516020016109a6929190918252602082015260400190565b60405160208183030381529060405280519060200120905060008251905060005b8181101561095357828482815181106109e2576109e2610ec6565b60200260200101516040516020016109fa9190610edc565b60405160208183030381529060405280519060200120604051602001610a2a929190918252602082015260400190565b60408051601f19818403018152919052805160209091012092506001016109c7565b606081600003610a735750506040805180820190915260018152600360fc1b602082015290565b8160005b8115610a9d5780610a8781611145565b9150610a969050600a83611174565b9150610a77565b60008167ffffffffffffffff811115610ab857610ab8610c1a565b6040519080825280601f01601f191660200182016040528015610ae2576020820181803683370190505b5090505b8415610b4d57610af76001836110d8565b9150610b04600a86611188565b610b0f90603061119c565b60f81b818381518110610b2457610b24610ec6565b60200101906001600160f81b031916908160001a905350610b46600a86611174565b9450610ae6565b949350505050565b828054828255906000526020600020908101928215610b9b579160200282015b82811115610b9b5782518290610b8b90826111ff565b5091602001919060010190610b75565b50610ba7929150610bab565b5090565b80821115610ba7576000610bbf8282610bc8565b50600101610bab565b508054610bd490610f22565b6000825580601f10610be4575050565b601f016020900490600052602060002090810190610c029190610c05565b50565b5b80821115610ba75760008155600101610c06565b634e487b7160e01b600052604160045260246000fd5b604051601f8201601f1916810167ffffffffffffffff81118282101715610c5957610c59610c1a565b604052919050565b600067ffffffffffffffff821115610c7b57610c7b610c1a565b5060051b60200190565b600067ffffffffffffffff821115610c9f57610c9f610c1a565b50601f01601f191660200190565b6000806040808486031215610cc157600080fd5b8335925060208085013567ffffffffffffffff80821115610ce157600080fd5b818701915087601f830112610cf557600080fd5b8135610d08610d0382610c61565b610c30565b81815260059190911b8301840190848101908a831115610d2757600080fd5b8585015b83811015610d9b57803585811115610d435760008081fd5b8601603f81018d13610d555760008081fd5b87810135610d65610d0382610c85565b8181528e8b838501011115610d7a5760008081fd5b818b84018b83013760009181018a0191909152845250918601918601610d2b565b50809750505050505050509250929050565b600060208284031215610dbf57600080fd5b5035919050565b60005b83811015610de1578181015183820152602001610dc9565b50506000910152565b60008151808452610e02816020860160208601610dc6565b601f01601f19169290920160200192915050565b60008282518085526020808601955060208260051b8401016020860160005b84811015610e6357601f19868403018952610e51838351610dea565b98840198925090830190600101610e35565b5090979650505050505050565b602081526000610e836020830184610e16565b9392505050565b602081526000610e836020830184610dea565b600060208284031215610eaf57600080fd5b81516001600160a01b0381168114610e8357600080fd5b634e487b7160e01b600052603260045260246000fd5b60008251610eee818460208701610dc6565b9190910192915050565b604081526000610f0b6040830185610e16565b905060018060a01b03831660208301529392505050565b600181811c90821680610f3657607f821691505b602082108103610f5657634e487b7160e01b600052602260045260246000fd5b50919050565b600082601f830112610f6d57600080fd5b8151610f7b610d0382610c85565b818152846020838601011115610f9057600080fd5b610b4d826020830160208701610dc6565b60006020808385031215610fb457600080fd5b825167ffffffffffffffff80821115610fcc57600080fd5b818501915085601f830112610fe057600080fd5b8151610fee610d0382610c61565b81815260059190911b8301840190848101908883111561100d57600080fd5b8585015b83811015611045578051858111156110295760008081fd5b6110378b89838a0101610f5c565b845250918601918601611011565b5098975050505050505050565b828152604060208201526000610b4d6040830184610dea565b60006020828403121561107d57600080fd5b815167ffffffffffffffff81111561109457600080fd5b610b4d84828501610f5c565b6000602082840312156110b257600080fd5b81518015158114610e8357600080fd5b634e487b7160e01b600052601160045260246000fd5b818103818111156110eb576110eb6110c2565b92915050565b60008351611103818460208801610dc6565b835190830190611117818360208801610dc6565b01949350505050565b60008251611132818460208701610dc6565b601760f91b920191825250600101919050565b600060018201611157576111576110c2565b5060010190565b634e487b7160e01b600052601260045260246000fd5b6000826111835761118361115e565b500490565b6000826111975761119761115e565b500690565b808201808211156110eb576110eb6110c2565b601f8211156108c6576000816000526020600020601f850160051c810160208610156111d85750805b601f850160051c820191505b818110156111f7578281556001016111e4565b505050505050565b815167ffffffffffffffff81111561121957611219610c1a565b61122d816112278454610f22565b846111af565b602080601f831160018114611262576000841561124a5750858301515b600019600386901b1c1916600185901b1785556111f7565b600085815260208120601f198616915b8281101561129157888601518255948401946001909101908401611272565b50858210156112af5787850151600019600388901b60f8161c191681555b5050505050600190811b0190555056fea2646970667358221220cb98afa5900c4d4ecc750f7630b36e56020b8a135bd2665318ddbad7268ef5db64736f6c63430008170033","linkReferences":{}},"methodIdentifiers":{"TEXT_KEY()":"c548f309","ensNamePartsOf(uint256)":"30abe987","ensRegistry()":"7d73b231","handleOf(uint256)":"49491987","oldJbProjectHandles()":"d9833b32","operatorStore()":"ad007d63","projects()":"8b79543c","setEnsNamePartsFor(uint256,string[])":"2b5b94ad"},"id":0}