{
  "abi": [
    {
      "inputs": [
        {
          "internalType": "contract IJBProjects",
          "name": "_projects",
          "type": "address"
        },
        {
          "internalType": "contract IJBOperatorStore",
          "name": "_operatorStore",
          "type": "address"
        },
        {
          "internalType": "contract IJBProjectHandles",
          "name": "_oldJbProjectHandles",
          "type": "address"
        }
      ],
      "stateMutability": "nonpayable",
      "type": "constructor"
    },
    {
      "inputs": [],
      "name": "EMPTY_NAME_PART",
      "type": "error"
    },
    {
      "inputs": [],
      "name": "NO_PARTS",
      "type": "error"
    },
    {
      "inputs": [],
      "name": "UNAUTHORIZED",
      "type": "error"
    },
    {
      "anonymous": false,
      "inputs": [
        {
          "indexed": true,
          "internalType": "uint256",
          "name": "projectId",
          "type": "uint256"
        },
        {
          "indexed": true,
          "internalType": "string",
          "name": "handle",
          "type": "string"
        },
        {
          "indexed": false,
          "internalType": "string[]",
          "name": "parts",
          "type": "string[]"
        },
        {
          "indexed": false,
          "internalType": "address",
          "name": "caller",
          "type": "address"
        }
      ],
      "name": "SetEnsNameParts",
      "type": "event"
    },
    {
      "inputs": [],
      "name": "TEXT_KEY",
      "outputs": [
        {
          "internalType": "string",
          "name": "",
          "type": "string"
        }
      ],
      "stateMutability": "view",
      "type": "function"
    },
    {
      "inputs": [
        {
          "internalType": "uint256",
          "name": "_projectId",
          "type": "uint256"
        }
      ],
      "name": "ensNamePartsOf",
      "outputs": [
        {
          "internalType": "string[]",
          "name": "",
          "type": "string[]"
        }
      ],
      "stateMutability": "view",
      "type": "function"
    },
    {
      "inputs": [],
      "name": "ensRegistry",
      "outputs": [
        {
          "internalType": "contract ENS",
          "name": "",
          "type": "address"
        }
      ],
      "stateMutability": "view",
      "type": "function"
    },
    {
      "inputs": [
        {
          "internalType": "uint256",
          "name": "_projectId",
          "type": "uint256"
        }
      ],
      "name": "handleOf",
      "outputs": [
        {
          "internalType": "string",
          "name": "",
          "type": "string"
        }
      ],
      "stateMutability": "view",
      "type": "function"
    },
    {
      "inputs": [],
      "name": "oldJbProjectHandles",
      "outputs": [
        {
          "internalType": "contract IJBProjectHandles",
          "name": "",
          "type": "address"
        }
      ],
      "stateMutability": "view",
      "type": "function"
    },
    {
      "inputs": [],
      "name": "operatorStore",
      "outputs": [
        {
          "internalType": "contract IJBOperatorStore",
          "name": "",
          "type": "address"
        }
      ],
      "stateMutability": "view",
      "type": "function"
    },
    {
      "inputs": [],
      "name": "projects",
      "outputs": [
        {
          "internalType": "contract IJBProjects",
          "name": "",
          "type": "address"
        }
      ],
      "stateMutability": "view",
      "type": "function"
    },
    {
      "inputs": [
        {
          "internalType": "uint256",
          "name": "_projectId",
          "type": "uint256"
        },
        {
          "internalType": "string[]",
          "name": "_parts",
          "type": "string[]"
        }
      ],
      "name": "setEnsNamePartsFor",
      "outputs": [],
      "stateMutability": "nonpayable",
      "type": "function"
    }
  ],
  "bytecode": {
    "object": "0x60e060405234801561001057600080fd5b5060405161133238038061133283398101604081905261002f91610064565b6001600160a01b0391821660805291811660a0521660c0526100b1565b6001600160a01b038116811461006157600080fd5b50565b60008060006060848603121561007957600080fd5b83516100848161004c565b60208501519093506100958161004c565b60408501519092506100a68161004c565b809150509250925092565b60805160a05160c0516112366100fc6000396000818161019e015261052801526000818161011e01526101d60152600081816101450152818161079f015261084601526112366000f3fe608060405234801561001057600080fd5b50600436106100885760003560e01c80638b79543c1161005b5780638b79543c14610119578063ad007d6314610140578063c548f30914610167578063d9833b321461019957600080fd5b80632b5b94ad1461008d57806330abe987146100a257806349491987146100cb5780637d73b231146100eb575b600080fd5b6100a061009b366004610c94565b6101c0565b005b6100b56100b0366004610da6565b610348565b6040516100c29190610e67565b60405180910390f35b6100de6100d9366004610da6565b61042b565b6040516100c29190610e81565b6101016e0c2e074ec69a0dfb2997ba6c7d2e1e81565b6040516001600160a01b0390911681526020016100c2565b6101017f000000000000000000000000000000000000000000000000000000000000000081565b6101017f000000000000000000000000000000000000000000000000000000000000000081565b6100de604051806040016040528060138152602001721a9d5a58d9589bde17dc1c9bda9958dd17da59606a1b81525081565b6101017f000000000000000000000000000000000000000000000000000000000000000081565b6040516331a9108f60e11b8152600481018390527f00000000000000000000000000000000000000000000000000000000000000006001600160a01b031690636352211e90602401602060405180830381865afa158015610225573d6000803e3d6000fd5b505050506040513d601f19601f820116820180604052508101906102499190610e94565b826013610257838383610758565b8351600081900361027b576040516314124ae160e31b815260040160405180910390fd5b60005b818110156102c95785818151811061029857610298610ebd565b6020026020010151516000036102c157604051630186fe0d60e51b815260040160405180910390fd5b60010161027e565b5060008681526020818152604090912086516102e792880190610b60565b506102f1856108d6565b6040516102fe9190610ed3565b6040518091039020867f2f08b921e66e530e39c2a5a6a1d27d9967e793a553c83bfaf3cb47433021a14c8733604051610338929190610eef565b60405180910390a3505050505050565b600081815260208181526040808320805482518185028101850190935280835260609492939192909184015b8282101561042057838290600052602060002001805461039390610f19565b80601f01602080910402602001604051908101604052809291908181526020018280546103bf90610f19565b801561040c5780601f106103e15761010080835404028352916020019161040c565b820191906000526020600020905b8154815290600101906020018083116103ef57829003601f168201915b505050505081526020019060010190610374565b505050509050919050565b600081815260208181526040808320805482518185028101850190935280835260609493849084015b8282101561050057838290600052602060002001805461047390610f19565b80601f016020809104026020016040519081016040528092919081815260200182805461049f90610f19565b80156104ec5780601f106104c1576101008083540402835291602001916104ec565b820191906000526020600020905b8154815290600101906020018083116104cf57829003601f168201915b505050505081526020019060010190610454565b50505050905080516000036105c857604051634949198760e01b8152600481018490526000907f00000000000000000000000000000000000000000000000000000000000000006001600160a01b031690634949198790602401600060405180830381865afa158015610577573d6000803e3d6000fd5b505050506040513d6000823e601f3d908101601f1916820160405261059f9190810190610f53565b905080516000146105b1579392505050565b505060408051602081019091526000815292915050565b60006105d382610965565b604051630178b8bf60e01b8152600481018290529091506000906e0c2e074ec69a0dfb2997ba6c7d2e1e90630178b8bf90602401602060405180830381865afa158015610624573d6000803e3d6000fd5b505050506040513d601f19601f820116820180604052508101906106489190610e94565b90506001600160a01b0381166106705750506040805160208101909152600081529392505050565b60408051808201825260138152721a9d5a58d9589bde17dc1c9bda9958dd17da59606a1b60208201529051631674750f60e21b81526000916001600160a01b038416916359d1d43c916106c891879190600401610fca565b600060405180830381865afa1580156106e5573d6000803e3d6000fd5b505050506040513d6000823e601f3d908101601f1916820160405261070d9190810190610f53565b905061071886610a57565b80519060200120818051906020012014610745575050604080516020810190915260008152949350505050565b61074e846108d6565b9695505050505050565b336001600160a01b0384161480159061080c575060405163c161c93f60e01b81523360048201526001600160a01b03848116602483015260448201849052606482018390527f0000000000000000000000000000000000000000000000000000000000000000169063c161c93f90608401602060405180830381865afa1580156107e6573d6000803e3d6000fd5b505050506040513d601f19601f8201168201806040525081019061080a9190610fe3565b155b80156108b3575060405163c161c93f60e01b81523360048201526001600160a01b03848116602483015260006044830152606482018390527f0000000000000000000000000000000000000000000000000000000000000000169063c161c93f90608401602060405180830381865afa15801561088d573d6000803e3d6000fd5b505050506040513d601f19601f820116820180604052508101906108b19190610fe3565b155b156108d15760405163075fd2b160e01b815260040160405180910390fd5b505050565b805160609060015b81811161095e5782846108f1838561101b565b8151811061090157610901610ebd565b602002602001015160405160200161091a929190611034565b60405160208183030381529060405292508181101561095657826040516020016109449190611063565b60405160208183030381529060405292505b6001016108de565b5050919050565b60008060405160200161098190620cae8d60eb1b815260030190565b604051602081830303815290604052805190602001206040516020016109b1929190918252602082015260400190565b60405160208183030381529060405280519060200120905060008251905060005b8181101561095e57828482815181106109ed576109ed610ebd565b6020026020010151604051602001610a059190610ed3565b60405160208183030381529060405280519060200120604051602001610a35929190918252602082015260400190565b60408051601f19818403018152919052805160209091012092506001016109d2565b606081600003610a7e5750506040805180820190915260018152600360fc1b602082015290565b8160005b8115610aa85780610a9281611088565b9150610aa19050600a836110b7565b9150610a82565b60008167ffffffffffffffff811115610ac357610ac3610c25565b6040519080825280601f01601f191660200182016040528015610aed576020820181803683370190505b5090505b8415610b5857610b0260018361101b565b9150610b0f600a866110cb565b610b1a9060306110df565b60f81b818381518110610b2f57610b2f610ebd565b60200101906001600160f81b031916908160001a905350610b51600a866110b7565b9450610af1565b949350505050565b828054828255906000526020600020908101928215610ba6579160200282015b82811115610ba65782518290610b969082611140565b5091602001919060010190610b80565b50610bb2929150610bb6565b5090565b80821115610bb2576000610bca8282610bd3565b50600101610bb6565b508054610bdf90610f19565b6000825580601f10610bef575050565b601f016020900490600052602060002090810190610c0d9190610c10565b50565b5b80821115610bb25760008155600101610c11565b634e487b7160e01b600052604160045260246000fd5b604051601f8201601f1916810167ffffffffffffffff81118282101715610c6457610c64610c25565b604052919050565b600067ffffffffffffffff821115610c8657610c86610c25565b50601f01601f191660200190565b6000806040808486031215610ca857600080fd5b8335925060208085013567ffffffffffffffff80821115610cc857600080fd5b818701915087601f830112610cdc57600080fd5b813581811115610cee57610cee610c25565b8060051b610cfd858201610c3b565b918252838101850191858101908b841115610d1757600080fd5b86860192505b83831015610d9457823585811115610d355760008081fd5b8601603f81018d13610d475760008081fd5b87810135610d5c610d5782610c6c565b610c3b565b8181528e8b838501011115610d715760008081fd5b818b84018b83013760009181018a01919091528352509186019190860190610d1d565b80985050505050505050509250929050565b600060208284031215610db857600080fd5b5035919050565b60005b83811015610dda578181015183820152602001610dc2565b50506000910152565b60008151808452610dfb816020860160208601610dbf565b601f01601f19169290920160200192915050565b600082825180855260208086019550808260051b84010181860160005b84811015610e5a57601f19868403018952610e48838351610de3565b98840198925090830190600101610e2c565b5090979650505050505050565b602081526000610e7a6020830184610e0f565b9392505050565b602081526000610e7a6020830184610de3565b600060208284031215610ea657600080fd5b81516001600160a01b0381168114610e7a57600080fd5b634e487b7160e01b600052603260045260246000fd5b60008251610ee5818460208701610dbf565b9190910192915050565b604081526000610f026040830185610e0f565b905060018060a01b03831660208301529392505050565b600181811c90821680610f2d57607f821691505b602082108103610f4d57634e487b7160e01b600052602260045260246000fd5b50919050565b600060208284031215610f6557600080fd5b815167ffffffffffffffff811115610f7c57600080fd5b8201601f81018413610f8d57600080fd5b8051610f9b610d5782610c6c565b818152856020838501011115610fb057600080fd5b610fc1826020830160208601610dbf565b95945050505050565b828152604060208201526000610b586040830184610de3565b600060208284031215610ff557600080fd5b81518015158114610e7a57600080fd5b634e487b7160e01b600052601160045260246000fd5b8181038181111561102e5761102e611005565b92915050565b60008351611046818460208801610dbf565b83519083019061105a818360208801610dbf565b01949350505050565b60008251611075818460208701610dbf565b601760f91b920191825250600101919050565b60006001820161109a5761109a611005565b5060010190565b634e487b7160e01b600052601260045260246000fd5b6000826110c6576110c66110a1565b500490565b6000826110da576110da6110a1565b500690565b8082018082111561102e5761102e611005565b601f8211156108d157600081815260208120601f850160051c810160208610156111195750805b601f850160051c820191505b8181101561113857828155600101611125565b505050505050565b815167ffffffffffffffff81111561115a5761115a610c25565b61116e816111688454610f19565b846110f2565b602080601f8311600181146111a3576000841561118b5750858301515b600019600386901b1c1916600185901b178555611138565b600085815260208120601f198616915b828110156111d2578886015182559484019460019091019084016111b3565b50858210156111f05787850151600019600388901b60f8161c191681555b5050505050600190811b0190555056fea264697066735822122023abd3f8e98dcf8970344a66aef41348b2d1734021d621a3f658636be08d5ce464736f6c63430008100033",
    "linkReferences": {}
  },
  "methodIdentifiers": {
    "TEXT_KEY()": "c548f309",
    "ensNamePartsOf(uint256)": "30abe987",
    "ensRegistry()": "7d73b231",
    "handleOf(uint256)": "49491987",
    "oldJbProjectHandles()": "d9833b32",
    "operatorStore()": "ad007d63",
    "projects()": "8b79543c",
    "setEnsNamePartsFor(uint256,string[])": "2b5b94ad"
  },
  "id": 0
}