{
  "abi": [
    {
      "inputs": [
        {
          "internalType": "contract IJBProjects",
          "name": "_projects",
          "type": "address"
        },
        {
          "internalType": "contract IJBOperatorStore",
          "name": "_operatorStore",
          "type": "address"
        }
      ],
      "stateMutability": "nonpayable",
      "type": "constructor"
    },
    {
      "inputs": [],
      "name": "EMPTY_NAME_PART",
      "type": "error"
    },
    {
      "inputs": [],
      "name": "NO_PARTS",
      "type": "error"
    },
    {
      "inputs": [],
      "name": "UNAUTHORIZED",
      "type": "error"
    },
    {
      "anonymous": false,
      "inputs": [
        {
          "indexed": true,
          "internalType": "uint256",
          "name": "projectId",
          "type": "uint256"
        },
        {
          "indexed": true,
          "internalType": "string",
          "name": "handle",
          "type": "string"
        },
        {
          "indexed": false,
          "internalType": "string[]",
          "name": "parts",
          "type": "string[]"
        },
        {
          "indexed": false,
          "internalType": "address",
          "name": "caller",
          "type": "address"
        }
      ],
      "name": "SetEnsNameParts",
      "type": "event"
    },
    {
      "inputs": [],
      "name": "TEXT_KEY",
      "outputs": [
        {
          "internalType": "string",
          "name": "",
          "type": "string"
        }
      ],
      "stateMutability": "view",
      "type": "function"
    },
    {
      "inputs": [
        {
          "internalType": "uint256",
          "name": "_projectId",
          "type": "uint256"
        }
      ],
      "name": "ensNamePartsOf",
      "outputs": [
        {
          "internalType": "string[]",
          "name": "",
          "type": "string[]"
        }
      ],
      "stateMutability": "view",
      "type": "function"
    },
    {
      "inputs": [],
      "name": "ensRegistry",
      "outputs": [
        {
          "internalType": "contract ENS",
          "name": "",
          "type": "address"
        }
      ],
      "stateMutability": "view",
      "type": "function"
    },
    {
      "inputs": [
        {
          "internalType": "uint256",
          "name": "_projectId",
          "type": "uint256"
        }
      ],
      "name": "handleOf",
      "outputs": [
        {
          "internalType": "string",
          "name": "",
          "type": "string"
        }
      ],
      "stateMutability": "view",
      "type": "function"
    },
    {
      "inputs": [],
      "name": "operatorStore",
      "outputs": [
        {
          "internalType": "contract IJBOperatorStore",
          "name": "",
          "type": "address"
        }
      ],
      "stateMutability": "view",
      "type": "function"
    },
    {
      "inputs": [],
      "name": "projects",
      "outputs": [
        {
          "internalType": "contract IJBProjects",
          "name": "",
          "type": "address"
        }
      ],
      "stateMutability": "view",
      "type": "function"
    },
    {
      "inputs": [
        {
          "internalType": "uint256",
          "name": "_projectId",
          "type": "uint256"
        },
        {
          "internalType": "string[]",
          "name": "_parts",
          "type": "string[]"
        }
      ],
      "name": "setEnsNamePartsFor",
      "outputs": [],
      "stateMutability": "nonpayable",
      "type": "function"
    }
  ],
  "bytecode": {
    "object": "0x60c060405234801561001057600080fd5b5060405161123338038061123383398101604081905261002f9161005e565b6001600160a01b039081166080521660a052610098565b6001600160a01b038116811461005b57600080fd5b50565b6000806040838503121561007157600080fd5b825161007c81610046565b602084015190925061008d81610046565b809150509250929050565b60805160a0516111616100d26000396000818161011301526101a401526000818161013a015281816106ca015261077101526111616000f3fe608060405234801561001057600080fd5b506004361061007d5760003560e01c80637d73b2311161005b5780637d73b231146100e05780638b79543c1461010e578063ad007d6314610135578063c548f3091461015c57600080fd5b80632b5b94ad1461008257806330abe9871461009757806349491987146100c0575b600080fd5b610095610090366004610bbf565b61018e565b005b6100aa6100a5366004610cd1565b610316565b6040516100b79190610d92565b60405180910390f35b6100d36100ce366004610cd1565b6103f9565b6040516100b79190610dac565b6100f66e0c2e074ec69a0dfb2997ba6c7d2e1e81565b6040516001600160a01b0390911681526020016100b7565b6100f67f000000000000000000000000000000000000000000000000000000000000000081565b6100f67f000000000000000000000000000000000000000000000000000000000000000081565b6100d3604051806040016040528060138152602001721a9d5a58d9589bde17dc1c9bda9958dd17da59606a1b81525081565b6040516331a9108f60e11b8152600481018390527f00000000000000000000000000000000000000000000000000000000000000006001600160a01b031690636352211e90602401602060405180830381865afa1580156101f3573d6000803e3d6000fd5b505050506040513d601f19601f820116820180604052508101906102179190610dbf565b826013610225838383610683565b83516000819003610249576040516314124ae160e31b815260040160405180910390fd5b60005b818110156102975785818151811061026657610266610de8565b60200260200101515160000361028f57604051630186fe0d60e51b815260040160405180910390fd5b60010161024c565b5060008681526020818152604090912086516102b592880190610a8b565b506102bf85610801565b6040516102cc9190610dfe565b6040518091039020867f2f08b921e66e530e39c2a5a6a1d27d9967e793a553c83bfaf3cb47433021a14c8733604051610306929190610e1a565b60405180910390a3505050505050565b600081815260208181526040808320805482518185028101850190935280835260609492939192909184015b828210156103ee57838290600052602060002001805461036190610e44565b80601f016020809104026020016040519081016040528092919081815260200182805461038d90610e44565b80156103da5780601f106103af576101008083540402835291602001916103da565b820191906000526020600020905b8154815290600101906020018083116103bd57829003601f168201915b505050505081526020019060010190610342565b505050509050919050565b600081815260208181526040808320805482518185028101850190935280835260609493849084015b828210156104ce57838290600052602060002001805461044190610e44565b80601f016020809104026020016040519081016040528092919081815260200182805461046d90610e44565b80156104ba5780601f1061048f576101008083540402835291602001916104ba565b820191906000526020600020905b81548152906001019060200180831161049d57829003601f168201915b505050505081526020019060010190610422565b50505050905080516000036104f3575050604080516020810190915260008152919050565b60006104fe82610890565b604051630178b8bf60e01b8152600481018290529091506000906e0c2e074ec69a0dfb2997ba6c7d2e1e90630178b8bf90602401602060405180830381865afa15801561054f573d6000803e3d6000fd5b505050506040513d601f19601f820116820180604052508101906105739190610dbf565b90506001600160a01b03811661059b5750506040805160208101909152600081529392505050565b60408051808201825260138152721a9d5a58d9589bde17dc1c9bda9958dd17da59606a1b60208201529051631674750f60e21b81526000916001600160a01b038416916359d1d43c916105f391879190600401610e7e565b600060405180830381865afa158015610610573d6000803e3d6000fd5b505050506040513d6000823e601f3d908101601f191682016040526106389190810190610e97565b905061064386610982565b80519060200120818051906020012014610670575050604080516020810190915260008152949350505050565b61067984610801565b9695505050505050565b336001600160a01b03841614801590610737575060405163c161c93f60e01b81523360048201526001600160a01b03848116602483015260448201849052606482018390527f0000000000000000000000000000000000000000000000000000000000000000169063c161c93f90608401602060405180830381865afa158015610711573d6000803e3d6000fd5b505050506040513d601f19601f820116820180604052508101906107359190610f0e565b155b80156107de575060405163c161c93f60e01b81523360048201526001600160a01b03848116602483015260006044830152606482018390527f0000000000000000000000000000000000000000000000000000000000000000169063c161c93f90608401602060405180830381865afa1580156107b8573d6000803e3d6000fd5b505050506040513d601f19601f820116820180604052508101906107dc9190610f0e565b155b156107fc5760405163075fd2b160e01b815260040160405180910390fd5b505050565b805160609060015b81811161088957828461081c8385610f46565b8151811061082c5761082c610de8565b6020026020010151604051602001610845929190610f5f565b604051602081830303815290604052925081811015610881578260405160200161086f9190610f8e565b60405160208183030381529060405292505b600101610809565b5050919050565b6000806040516020016108ac90620cae8d60eb1b815260030190565b604051602081830303815290604052805190602001206040516020016108dc929190918252602082015260400190565b60405160208183030381529060405280519060200120905060008251905060005b81811015610889578284828151811061091857610918610de8565b60200260200101516040516020016109309190610dfe565b60405160208183030381529060405280519060200120604051602001610960929190918252602082015260400190565b60408051601f19818403018152919052805160209091012092506001016108fd565b6060816000036109a95750506040805180820190915260018152600360fc1b602082015290565b8160005b81156109d357806109bd81610fb3565b91506109cc9050600a83610fe2565b91506109ad565b60008167ffffffffffffffff8111156109ee576109ee610b50565b6040519080825280601f01601f191660200182016040528015610a18576020820181803683370190505b5090505b8415610a8357610a2d600183610f46565b9150610a3a600a86610ff6565b610a4590603061100a565b60f81b818381518110610a5a57610a5a610de8565b60200101906001600160f81b031916908160001a905350610a7c600a86610fe2565b9450610a1c565b949350505050565b828054828255906000526020600020908101928215610ad1579160200282015b82811115610ad15782518290610ac1908261106b565b5091602001919060010190610aab565b50610add929150610ae1565b5090565b80821115610add576000610af58282610afe565b50600101610ae1565b508054610b0a90610e44565b6000825580601f10610b1a575050565b601f016020900490600052602060002090810190610b389190610b3b565b50565b5b80821115610add5760008155600101610b3c565b634e487b7160e01b600052604160045260246000fd5b604051601f8201601f1916810167ffffffffffffffff81118282101715610b8f57610b8f610b50565b604052919050565b600067ffffffffffffffff821115610bb157610bb1610b50565b50601f01601f191660200190565b6000806040808486031215610bd357600080fd5b8335925060208085013567ffffffffffffffff80821115610bf357600080fd5b818701915087601f830112610c0757600080fd5b813581811115610c1957610c19610b50565b8060051b610c28858201610b66565b918252838101850191858101908b841115610c4257600080fd5b86860192505b83831015610cbf57823585811115610c605760008081fd5b8601603f81018d13610c725760008081fd5b87810135610c87610c8282610b97565b610b66565b8181528e8b838501011115610c9c5760008081fd5b818b84018b83013760009181018a01919091528352509186019190860190610c48565b80985050505050505050509250929050565b600060208284031215610ce357600080fd5b5035919050565b60005b83811015610d05578181015183820152602001610ced565b50506000910152565b60008151808452610d26816020860160208601610cea565b601f01601f19169290920160200192915050565b600082825180855260208086019550808260051b84010181860160005b84811015610d8557601f19868403018952610d73838351610d0e565b98840198925090830190600101610d57565b5090979650505050505050565b602081526000610da56020830184610d3a565b9392505050565b602081526000610da56020830184610d0e565b600060208284031215610dd157600080fd5b81516001600160a01b0381168114610da557600080fd5b634e487b7160e01b600052603260045260246000fd5b60008251610e10818460208701610cea565b9190910192915050565b604081526000610e2d6040830185610d3a565b905060018060a01b03831660208301529392505050565b600181811c90821680610e5857607f821691505b602082108103610e7857634e487b7160e01b600052602260045260246000fd5b50919050565b828152604060208201526000610a836040830184610d0e565b600060208284031215610ea957600080fd5b815167ffffffffffffffff811115610ec057600080fd5b8201601f81018413610ed157600080fd5b8051610edf610c8282610b97565b818152856020838501011115610ef457600080fd5b610f05826020830160208601610cea565b95945050505050565b600060208284031215610f2057600080fd5b81518015158114610da557600080fd5b634e487b7160e01b600052601160045260246000fd5b81810381811115610f5957610f59610f30565b92915050565b60008351610f71818460208801610cea565b835190830190610f85818360208801610cea565b01949350505050565b60008251610fa0818460208701610cea565b601760f91b920191825250600101919050565b600060018201610fc557610fc5610f30565b5060010190565b634e487b7160e01b600052601260045260246000fd5b600082610ff157610ff1610fcc565b500490565b60008261100557611005610fcc565b500690565b80820180821115610f5957610f59610f30565b601f8211156107fc57600081815260208120601f850160051c810160208610156110445750805b601f850160051c820191505b8181101561106357828155600101611050565b505050505050565b815167ffffffffffffffff81111561108557611085610b50565b611099816110938454610e44565b8461101d565b602080601f8311600181146110ce57600084156110b65750858301515b600019600386901b1c1916600185901b178555611063565b600085815260208120601f198616915b828110156110fd578886015182559484019460019091019084016110de565b508582101561111b5787850151600019600388901b60f8161c191681555b5050505050600190811b0190555056fea26469706673582212201857be910d0efe3391d831386179fd58d56d5d4d7c084ed6536d5a810c4e3b9064736f6c63430008100033",
    "linkReferences": {}
  },
  "methodIdentifiers": {
    "TEXT_KEY()": "c548f309",
    "ensNamePartsOf(uint256)": "30abe987",
    "ensRegistry()": "7d73b231",
    "handleOf(uint256)": "49491987",
    "operatorStore()": "ad007d63",
    "projects()": "8b79543c",
    "setEnsNamePartsFor(uint256,string[])": "2b5b94ad"
  },
  "id": 0
}