{
  "abi": [
    {
      "inputs": [
        {
          "internalType": "contract IJBProjects",
          "name": "_jbProjects",
          "type": "address"
        },
        {
          "internalType": "contract IJBOperatorStore",
          "name": "_jbOperatorStore",
          "type": "address"
        },
        {
          "internalType": "address",
          "name": "_ensTextResolver",
          "type": "address"
        }
      ],
      "stateMutability": "nonpayable",
      "type": "constructor"
    },
    {
      "inputs": [],
      "name": "UNAUTHORIZED",
      "type": "error"
    },
    {
      "anonymous": false,
      "inputs": [
        {
          "indexed": true,
          "internalType": "uint256",
          "name": "projectId",
          "type": "uint256"
        },
        {
          "indexed": true,
          "internalType": "string",
          "name": "ensName",
          "type": "string"
        }
      ],
      "name": "SetEnsName",
      "type": "event"
    },
    {
      "inputs": [],
      "name": "TEXT_KEY",
      "outputs": [
        {
          "internalType": "string",
          "name": "",
          "type": "string"
        }
      ],
      "stateMutability": "view",
      "type": "function"
    },
    {
      "inputs": [
        {
          "internalType": "uint256",
          "name": "_projectId",
          "type": "uint256"
        }
      ],
      "name": "ensNameOf",
      "outputs": [
        {
          "components": [
            {
              "internalType": "string",
              "name": "name",
              "type": "string"
            },
            {
              "internalType": "string",
              "name": "subdomain",
              "type": "string"
            }
          ],
          "internalType": "struct ENSName",
          "name": "",
          "type": "tuple"
        }
      ],
      "stateMutability": "view",
      "type": "function"
    },
    {
      "inputs": [],
      "name": "ensTextResolver",
      "outputs": [
        {
          "internalType": "address",
          "name": "",
          "type": "address"
        }
      ],
      "stateMutability": "view",
      "type": "function"
    },
    {
      "inputs": [
        {
          "internalType": "uint256",
          "name": "_projectId",
          "type": "uint256"
        }
      ],
      "name": "handleOf",
      "outputs": [
        {
          "internalType": "string",
          "name": "",
          "type": "string"
        }
      ],
      "stateMutability": "view",
      "type": "function"
    },
    {
      "inputs": [],
      "name": "jbProjects",
      "outputs": [
        {
          "internalType": "contract IJBProjects",
          "name": "",
          "type": "address"
        }
      ],
      "stateMutability": "view",
      "type": "function"
    },
    {
      "inputs": [],
      "name": "operatorStore",
      "outputs": [
        {
          "internalType": "contract IJBOperatorStore",
          "name": "",
          "type": "address"
        }
      ],
      "stateMutability": "view",
      "type": "function"
    },
    {
      "inputs": [
        {
          "internalType": "uint256",
          "name": "_projectId",
          "type": "uint256"
        },
        {
          "internalType": "string",
          "name": "_name",
          "type": "string"
        }
      ],
      "name": "setEnsNameFor",
      "outputs": [],
      "stateMutability": "nonpayable",
      "type": "function"
    },
    {
      "inputs": [
        {
          "internalType": "uint256",
          "name": "_projectId",
          "type": "uint256"
        },
        {
          "internalType": "string",
          "name": "_name",
          "type": "string"
        },
        {
          "internalType": "string",
          "name": "_subdomain",
          "type": "string"
        }
      ],
      "name": "setEnsNameWithSubdomainFor",
      "outputs": [],
      "stateMutability": "nonpayable",
      "type": "function"
    }
  ],
  "bytecode": {
    "object": "0x60e060405234801561001057600080fd5b5060405161121338038061121383398101604081905261002f91610055565b6001600160601b0319606092831b811660805292821b831660a052901b1660c0526100ba565b60008060006060848603121561006a57600080fd5b8351610075816100a2565b6020850151909350610086816100a2565b6040850151909250610097816100a2565b809150509250925092565b6001600160a01b03811681146100b757600080fd5b50565b60805160601c60a05160601c60c05160601c61110661010d6000396000818161011e015261040f01526000818160a7015261067c015260008181610165015281816109f40152610aaa01526111066000f3fe608060405234801561001057600080fd5b50600436106100885760003560e01c80637a5ee2801161005b5780637a5ee2801461011957806386befd3914610140578063ad007d6314610160578063c548f3091461018757600080fd5b80631edf87151461008d57806331980444146100a257806338a4df80146100e657806349491987146100f9575b600080fd5b6100a061009b366004610d8a565b6101ae565b005b6100c97f000000000000000000000000000000000000000000000000000000000000000081565b6040516001600160a01b0390911681526020015b60405180910390f35b6100a06100f4366004610d3e565b610236565b61010c610107366004610d25565b610294565b6040516100dd9190610ea1565b6100c97f000000000000000000000000000000000000000000000000000000000000000081565b61015361014e366004610d25565b610510565b6040516100dd9190610eb4565b6100c97f000000000000000000000000000000000000000000000000000000000000000081565b61010c604051806040016040528060088152602001670d4ead2c6cac4def60c31b81525081565b6040805160606020601f87018190040282018101835291810185815261022f9288929182918990899081908501838280828437600092019190915250505090825250604080516020601f8801819004810282018101909252868152918101919087908790819084018382808284376000920191909152505050915250610666565b5050505050565b6040805160606020601f85018190040282018101835291810183815261028f9286929182918790879081908501838280828437600092018290525093855250506040805160208181019092529283529092015250610666565b505050565b606060008060008481526020019081526020016000206040518060400160405290816000820180546102c590611061565b80601f01602080910402602001604051908101604052809291908181526020018280546102f190611061565b801561033e5780601f106103135761010080835404028352916020019161033e565b820191906000526020600020905b81548152906001019060200180831161032157829003601f168201915b5050505050815260200160018201805461035790611061565b80601f016020809104026020016040519081016040528092919081815260200182805461038390611061565b80156103d05780601f106103a5576101008083540402835291602001916103d0565b820191906000526020600020905b8154815290600101906020018083116103b357829003601f168201915b505050919092525050815151919250501580156103f05750602081015151155b1561040b575050604080516020810190915260008152919050565b60007f00000000000000000000000000000000000000000000000000000000000000006001600160a01b03166359d1d43c6104458461079b565b604051806040016040528060088152602001670d4ead2c6cac4def60c31b8152506040518363ffffffff1660e01b8152600401610483929190610e88565b60006040518083038186803b15801561049b57600080fd5b505afa1580156104af573d6000803e3d6000fd5b505050506040513d6000823e601f3d908101601f191682016040526104d79190810190610c78565b9050836104e3826108c9565b146104ff57505060408051602081019091526000815292915050565b6105088261096a565b949350505050565b604080518082019091526060808252602082015260008281526020819052604090819020815180830190925280548290829061054b90611061565b80601f016020809104026020016040519081016040528092919081815260200182805461057790611061565b80156105c45780601f10610599576101008083540402835291602001916105c4565b820191906000526020600020905b8154815290600101906020018083116105a757829003601f168201915b505050505081526020016001820180546105dd90611061565b80601f016020809104026020016040519081016040528092919081815260200182805461060990611061565b80156106565780601f1061062b57610100808354040283529160200191610656565b820191906000526020600020905b81548152906001019060200180831161063957829003601f168201915b5050505050815250509050919050565b6040516331a9108f60e11b8152600481018390527f00000000000000000000000000000000000000000000000000000000000000006001600160a01b031690636352211e9060240160206040518083038186803b1580156106c657600080fd5b505afa1580156106da573d6000803e3d6000fd5b505050506040513d601f19601f820116820180604052508101906106fe9190610c26565b82601361070c8383836109ad565b60008581526020818152604090912085518051879361072f928492910190610b44565b5060208281015180516107489260018501920190610b44565b509050506107558461096a565b6040516107629190610e30565b6040519081900381209086907f24fed7a008ef44d834d78b56f7e6c1b661001351c7b27ddf62f1476f47cb8a6490600090a35050505050565b604051620cae8d60eb1b60208201526000908190602301604051602081830303815290604052805190602001206040516020016107e2929190918252602082015260400190565b60408051601f198184030181529082905280516020918201208451909350839261080c9201610e30565b6040516020818303038152906040528051906020012060405160200161083c929190918252602082015260400190565b6040516020818303038152906040528051906020012090506108618260200151511590565b6108c45780826020015160405160200161087b9190610e30565b604051602081830303815290604052805190602001206040516020016108ab929190918252602082015260400190565b6040516020818303038152906040528051906020012090505b919050565b600081815b81518110156109635760008183516108e6919061101a565b905060008383815181106108fc576108fc6110cd565b01602001516001600160f81b03198116915060f81c600061091e60308361101a565b905061092b60018561101a565b61093690600a610f51565b6109409082610ffb565b61094a9088610ef6565b965050505050808061095b9061109c565b9150506108ce565b5050919050565b60606109798260200151511590565b6109a85760208083015183516040516109929301610e4c565b6040516020818303038152906040529050919050565b505190565b336001600160a01b03841614801590610a70575060405163c161c93f60e01b81523360048201526001600160a01b03848116602483015260448201849052606482018390527f0000000000000000000000000000000000000000000000000000000000000000169063c161c93f9060840160206040518083038186803b158015610a3657600080fd5b505afa158015610a4a573d6000803e3d6000fd5b505050506040513d601f19601f82011682018060405250810190610a6e9190610c56565b155b8015610b26575060405163c161c93f60e01b81523360048201526001600160a01b03848116602483015260006044830152606482018390527f0000000000000000000000000000000000000000000000000000000000000000169063c161c93f9060840160206040518083038186803b158015610aec57600080fd5b505afa158015610b00573d6000803e3d6000fd5b505050506040513d601f19601f82011682018060405250810190610b249190610c56565b155b1561028f5760405163075fd2b160e01b815260040160405180910390fd5b828054610b5090611061565b90600052602060002090601f016020900481019282610b725760008555610bb8565b82601f10610b8b57805160ff1916838001178555610bb8565b82800160010185558215610bb8579182015b82811115610bb8578251825591602001919060010190610b9d565b50610bc4929150610bc8565b5090565b5b80821115610bc45760008155600101610bc9565b60008083601f840112610bef57600080fd5b50813567ffffffffffffffff811115610c0757600080fd5b602083019150836020828501011115610c1f57600080fd5b9250929050565b600060208284031215610c3857600080fd5b81516001600160a01b0381168114610c4f57600080fd5b9392505050565b600060208284031215610c6857600080fd5b81518015158114610c4f57600080fd5b600060208284031215610c8a57600080fd5b815167ffffffffffffffff80821115610ca257600080fd5b818401915084601f830112610cb657600080fd5b815181811115610cc857610cc86110e3565b604051601f8201601f19908116603f01168101908382118183101715610cf057610cf06110e3565b81604052828152876020848701011115610d0957600080fd5b610d1a836020830160208801611031565b979650505050505050565b600060208284031215610d3757600080fd5b5035919050565b600080600060408486031215610d5357600080fd5b83359250602084013567ffffffffffffffff811115610d7157600080fd5b610d7d86828701610bdd565b9497909650939450505050565b600080600080600060608688031215610da257600080fd5b85359450602086013567ffffffffffffffff80821115610dc157600080fd5b610dcd89838a01610bdd565b90965094506040880135915080821115610de657600080fd5b50610df388828901610bdd565b969995985093965092949392505050565b60008151808452610e1c816020860160208601611031565b601f01601f19169290920160200192915050565b60008251610e42818460208701611031565b9190910192915050565b60008351610e5e818460208801611031565b601760f91b9083019081528351610e7c816001840160208801611031565b01600101949350505050565b8281526040602082015260006105086040830184610e04565b602081526000610c4f6020830184610e04565b602081526000825160406020840152610ed06060840182610e04565b90506020840151601f19848303016040850152610eed8282610e04565b95945050505050565b60008219821115610f0957610f096110b7565b500190565b600181815b80851115610f49578160001904821115610f2f57610f2f6110b7565b80851615610f3c57918102915b93841c9390800290610f13565b509250929050565b6000610c4f8383600082610f6757506001610ff5565b81610f7457506000610ff5565b8160018114610f8a5760028114610f9457610fb0565b6001915050610ff5565b60ff841115610fa557610fa56110b7565b50506001821b610ff5565b5060208310610133831016604e8410600b8410161715610fd3575081810a610ff5565b610fdd8383610f0e565b8060001904821115610ff157610ff16110b7565b0290505b92915050565b6000816000190483118215151615611015576110156110b7565b500290565b60008282101561102c5761102c6110b7565b500390565b60005b8381101561104c578181015183820152602001611034565b8381111561105b576000848401525b50505050565b600181811c9082168061107557607f821691505b6020821081141561109657634e487b7160e01b600052602260045260246000fd5b50919050565b60006000198214156110b0576110b06110b7565b5060010190565b634e487b7160e01b600052601160045260246000fd5b634e487b7160e01b600052603260045260246000fd5b634e487b7160e01b600052604160045260246000fdfea164736f6c6343000806000a",
    "linkReferences": {}
  }
}