{
  "abi": [
    {
      "inputs": [
        {
          "internalType": "contract IJBProjects",
          "name": "_jbProjects",
          "type": "address"
        },
        {
          "internalType": "address",
          "name": "_ensTextResolver",
          "type": "address"
        },
        {
          "internalType": "contract IJBOperatorStore",
          "name": "_jbOperatorStore",
          "type": "address"
        }
      ],
      "stateMutability": "nonpayable",
      "type": "constructor"
    },
    {
      "inputs": [],
      "name": "UNAUTHORIZED",
      "type": "error"
    },
    {
      "anonymous": false,
      "inputs": [
        {
          "indexed": true,
          "internalType": "uint256",
          "name": "projectId",
          "type": "uint256"
        },
        {
          "indexed": true,
          "internalType": "string",
          "name": "ensName",
          "type": "string"
        }
      ],
      "name": "SetEnsName",
      "type": "event"
    },
    {
      "inputs": [],
      "name": "TEXT_KEY",
      "outputs": [
        {
          "internalType": "string",
          "name": "",
          "type": "string"
        }
      ],
      "stateMutability": "view",
      "type": "function"
    },
    {
      "inputs": [
        {
          "internalType": "uint256",
          "name": "projectId",
          "type": "uint256"
        }
      ],
      "name": "ensNameOf",
      "outputs": [
        {
          "components": [
            {
              "internalType": "string",
              "name": "name",
              "type": "string"
            },
            {
              "internalType": "string",
              "name": "subdomain",
              "type": "string"
            }
          ],
          "internalType": "struct ENSName",
          "name": "ensName",
          "type": "tuple"
        }
      ],
      "stateMutability": "view",
      "type": "function"
    },
    {
      "inputs": [],
      "name": "ensTextResolver",
      "outputs": [
        {
          "internalType": "address",
          "name": "",
          "type": "address"
        }
      ],
      "stateMutability": "view",
      "type": "function"
    },
    {
      "inputs": [
        {
          "internalType": "uint256",
          "name": "projectId",
          "type": "uint256"
        }
      ],
      "name": "handleOf",
      "outputs": [
        {
          "internalType": "string",
          "name": "",
          "type": "string"
        }
      ],
      "stateMutability": "view",
      "type": "function"
    },
    {
      "inputs": [],
      "name": "jbProjects",
      "outputs": [
        {
          "internalType": "contract IJBProjects",
          "name": "",
          "type": "address"
        }
      ],
      "stateMutability": "view",
      "type": "function"
    },
    {
      "inputs": [],
      "name": "operatorStore",
      "outputs": [
        {
          "internalType": "contract IJBOperatorStore",
          "name": "",
          "type": "address"
        }
      ],
      "stateMutability": "view",
      "type": "function"
    },
    {
      "inputs": [
        {
          "internalType": "uint256",
          "name": "projectId",
          "type": "uint256"
        },
        {
          "internalType": "string",
          "name": "name",
          "type": "string"
        }
      ],
      "name": "setEnsNameFor",
      "outputs": [],
      "stateMutability": "nonpayable",
      "type": "function"
    },
    {
      "inputs": [
        {
          "internalType": "uint256",
          "name": "projectId",
          "type": "uint256"
        },
        {
          "internalType": "string",
          "name": "name",
          "type": "string"
        },
        {
          "internalType": "string",
          "name": "subdomain",
          "type": "string"
        }
      ],
      "name": "setEnsNameWithSubdomainFor",
      "outputs": [],
      "stateMutability": "nonpayable",
      "type": "function"
    }
  ],
  "bytecode": {
    "object": "0x60e060405234801561001057600080fd5b506040516110d93803806110d983398101604081905261002f91610054565b6001600160601b0319606091821b811660805292811b831660a0521b1660c0526100b9565b60008060006060848603121561006957600080fd5b8351610074816100a1565b6020850151909350610085816100a1565b6040850151909250610096816100a1565b809150509250925092565b6001600160a01b03811681146100b657600080fd5b50565b60805160601c60a05160601c60c05160601c610fcd61010c6000396000818161011e01526102d601526000818160a70152610543015260008181610165015281816108bb01526109710152610fcd6000f3fe608060405234801561001057600080fd5b50600436106100885760003560e01c80637a5ee2801161005b5780637a5ee2801461011957806386befd3914610140578063ad007d6314610160578063c548f3091461018757600080fd5b80631edf87151461008d57806331980444146100a257806338a4df80146100e657806349491987146100f9575b600080fd5b6100a061009b366004610c51565b6101ae565b005b6100c97f000000000000000000000000000000000000000000000000000000000000000081565b6040516001600160a01b0390911681526020015b60405180910390f35b6100a06100f4366004610c05565b610236565b61010c610107366004610bec565b610294565b6040516100dd9190610d68565b6100c97f000000000000000000000000000000000000000000000000000000000000000081565b61015361014e366004610bec565b6103d7565b6040516100dd9190610d7b565b6100c97f000000000000000000000000000000000000000000000000000000000000000081565b61010c604051806040016040528060088152602001670d4ead2c6cac4def60c31b81525081565b6040805160606020601f87018190040282018101835291810185815261022f9288929182918990899081908501838280828437600092019190915250505090825250604080516020601f880181900481028201810190925286815291810191908790879081908401838280828437600092019190915250505091525061052d565b5050505050565b6040805160606020601f85018190040282018101835291810183815261028f928692918291879087908190850183828082843760009201829052509385525050604080516020818101909252928352909201525061052d565b505050565b606060006102a1836103d7565b8051519091501580156102b75750602081015151155b156102d2575050604080516020810190915260008152919050565b60007f00000000000000000000000000000000000000000000000000000000000000006001600160a01b03166359d1d43c61030c84610662565b604051806040016040528060088152602001670d4ead2c6cac4def60c31b8152506040518363ffffffff1660e01b815260040161034a929190610d4f565b60006040518083038186803b15801561036257600080fd5b505afa158015610376573d6000803e3d6000fd5b505050506040513d6000823e601f3d908101601f1916820160405261039e9190810190610b3f565b9050836103aa82610790565b146103c657505060408051602081019091526000815292915050565b6103cf82610831565b949350505050565b604080518082019091526060808252602082015260008281526020819052604090819020815180830190925280548290829061041290610f28565b80601f016020809104026020016040519081016040528092919081815260200182805461043e90610f28565b801561048b5780601f106104605761010080835404028352916020019161048b565b820191906000526020600020905b81548152906001019060200180831161046e57829003601f168201915b505050505081526020016001820180546104a490610f28565b80601f01602080910402602001604051908101604052809291908181526020018280546104d090610f28565b801561051d5780601f106104f25761010080835404028352916020019161051d565b820191906000526020600020905b81548152906001019060200180831161050057829003601f168201915b5050505050815250509050919050565b6040516331a9108f60e11b8152600481018390527f00000000000000000000000000000000000000000000000000000000000000006001600160a01b031690636352211e9060240160206040518083038186803b15801561058d57600080fd5b505afa1580156105a1573d6000803e3d6000fd5b505050506040513d601f19601f820116820180604052508101906105c59190610aed565b8260136105d3838383610874565b6000858152602081815260409091208551805187936105f6928492910190610a0b565b50602082810151805161060f9260018501920190610a0b565b5090505061061c84610831565b6040516106299190610cf7565b6040519081900381209086907f24fed7a008ef44d834d78b56f7e6c1b661001351c7b27ddf62f1476f47cb8a6490600090a35050505050565b604051620cae8d60eb1b60208201526000908190602301604051602081830303815290604052805190602001206040516020016106a9929190918252602082015260400190565b60408051601f19818403018152908290528051602091820120845190935083926106d39201610cf7565b60405160208183030381529060405280519060200120604051602001610703929190918252602082015260400190565b6040516020818303038152906040528051906020012090506107288260200151511590565b61078b578082602001516040516020016107429190610cf7565b60405160208183030381529060405280519060200120604051602001610772929190918252602082015260400190565b6040516020818303038152906040528051906020012090505b919050565b600081815b815181101561082a5760008183516107ad9190610ee1565b905060008383815181106107c3576107c3610f94565b01602001516001600160f81b03198116915060f81c60006107e5603083610ee1565b90506107f2600185610ee1565b6107fd90600a610e18565b6108079082610ec2565b6108119088610dbd565b965050505050808061082290610f63565b915050610795565b5050919050565b60606108408260200151511590565b61086f5760208083015183516040516108599301610d13565b6040516020818303038152906040529050919050565b505190565b336001600160a01b03841614801590610937575060405163c161c93f60e01b81523360048201526001600160a01b03848116602483015260448201849052606482018390527f0000000000000000000000000000000000000000000000000000000000000000169063c161c93f9060840160206040518083038186803b1580156108fd57600080fd5b505afa158015610911573d6000803e3d6000fd5b505050506040513d601f19601f820116820180604052508101906109359190610b1d565b155b80156109ed575060405163c161c93f60e01b81523360048201526001600160a01b03848116602483015260006044830152606482018390527f0000000000000000000000000000000000000000000000000000000000000000169063c161c93f9060840160206040518083038186803b1580156109b357600080fd5b505afa1580156109c7573d6000803e3d6000fd5b505050506040513d601f19601f820116820180604052508101906109eb9190610b1d565b155b1561028f5760405163075fd2b160e01b815260040160405180910390fd5b828054610a1790610f28565b90600052602060002090601f016020900481019282610a395760008555610a7f565b82601f10610a5257805160ff1916838001178555610a7f565b82800160010185558215610a7f579182015b82811115610a7f578251825591602001919060010190610a64565b50610a8b929150610a8f565b5090565b5b80821115610a8b5760008155600101610a90565b60008083601f840112610ab657600080fd5b50813567ffffffffffffffff811115610ace57600080fd5b602083019150836020828501011115610ae657600080fd5b9250929050565b600060208284031215610aff57600080fd5b81516001600160a01b0381168114610b1657600080fd5b9392505050565b600060208284031215610b2f57600080fd5b81518015158114610b1657600080fd5b600060208284031215610b5157600080fd5b815167ffffffffffffffff80821115610b6957600080fd5b818401915084601f830112610b7d57600080fd5b815181811115610b8f57610b8f610faa565b604051601f8201601f19908116603f01168101908382118183101715610bb757610bb7610faa565b81604052828152876020848701011115610bd057600080fd5b610be1836020830160208801610ef8565b979650505050505050565b600060208284031215610bfe57600080fd5b5035919050565b600080600060408486031215610c1a57600080fd5b83359250602084013567ffffffffffffffff811115610c3857600080fd5b610c4486828701610aa4565b9497909650939450505050565b600080600080600060608688031215610c6957600080fd5b85359450602086013567ffffffffffffffff80821115610c8857600080fd5b610c9489838a01610aa4565b90965094506040880135915080821115610cad57600080fd5b50610cba88828901610aa4565b969995985093965092949392505050565b60008151808452610ce3816020860160208601610ef8565b601f01601f19169290920160200192915050565b60008251610d09818460208701610ef8565b9190910192915050565b60008351610d25818460208801610ef8565b601760f91b9083019081528351610d43816001840160208801610ef8565b01600101949350505050565b8281526040602082015260006103cf6040830184610ccb565b602081526000610b166020830184610ccb565b602081526000825160406020840152610d976060840182610ccb565b90506020840151601f19848303016040850152610db48282610ccb565b95945050505050565b60008219821115610dd057610dd0610f7e565b500190565b600181815b80851115610e10578160001904821115610df657610df6610f7e565b80851615610e0357918102915b93841c9390800290610dda565b509250929050565b6000610b168383600082610e2e57506001610ebc565b81610e3b57506000610ebc565b8160018114610e515760028114610e5b57610e77565b6001915050610ebc565b60ff841115610e6c57610e6c610f7e565b50506001821b610ebc565b5060208310610133831016604e8410600b8410161715610e9a575081810a610ebc565b610ea48383610dd5565b8060001904821115610eb857610eb8610f7e565b0290505b92915050565b6000816000190483118215151615610edc57610edc610f7e565b500290565b600082821015610ef357610ef3610f7e565b500390565b60005b83811015610f13578181015183820152602001610efb565b83811115610f22576000848401525b50505050565b600181811c90821680610f3c57607f821691505b60208210811415610f5d57634e487b7160e01b600052602260045260246000fd5b50919050565b6000600019821415610f7757610f77610f7e565b5060010190565b634e487b7160e01b600052601160045260246000fd5b634e487b7160e01b600052603260045260246000fd5b634e487b7160e01b600052604160045260246000fdfea164736f6c6343000806000a",
    "linkReferences": {}
  }
}