{
  "abi": [
    {
      "inputs": [],
      "name": "SET_ENS_NAME_FOR",
      "outputs": [
        {
          "internalType": "uint256",
          "name": "",
          "type": "uint256"
        }
      ],
      "stateMutability": "view",
      "type": "function"
    }
  ],
  "bytecode": {
    "object": "0x6087610038600b82828239805160001a607314602b57634e487b7160e01b600052600060045260246000fd5b30600052607381538281f3fe730000000000000000000000000000000000000000301460806040526004361060335760003560e01c806333c658f1146038575b600080fd5b603f601381565b60405190815260200160405180910390f3fea2646970667358221220145b3af193c5d5e63850843110fb7530b7d26223cfbba3927a920404b63e36c264736f6c63430008100033",
    "linkReferences": {}
  },
  "methodIdentifiers": {
    "SET_ENS_NAME_FOR()": "33c658f1"
  },
  "id": 2
}