{
  "abi": [
    {
      "inputs": [
        {
          "internalType": "contract ENS",
          "name": "_ens",
          "type": "address"
        },
        {
          "internalType": "contract INameWrapper",
          "name": "wrapperAddress",
          "type": "address"
        }
      ],
      "stateMutability": "nonpayable",
      "type": "constructor"
    },
    {
      "anonymous": false,
      "inputs": [
        {
          "indexed": true,
          "internalType": "bytes32",
          "name": "node",
          "type": "bytes32"
        },
        {
          "indexed": true,
          "internalType": "uint256",
          "name": "contentType",
          "type": "uint256"
        }
      ],
      "name": "ABIChanged",
      "type": "event"
    },
    {
      "anonymous": false,
      "inputs": [
        {
          "indexed": true,
          "internalType": "bytes32",
          "name": "node",
          "type": "bytes32"
        },
        {
          "indexed": false,
          "internalType": "address",
          "name": "a",
          "type": "address"
        }
      ],
      "name": "AddrChanged",
      "type": "event"
    },
    {
      "anonymous": false,
      "inputs": [
        {
          "indexed": true,
          "internalType": "bytes32",
          "name": "node",
          "type": "bytes32"
        },
        {
          "indexed": false,
          "internalType": "uint256",
          "name": "coinType",
          "type": "uint256"
        },
        {
          "indexed": false,
          "internalType": "bytes",
          "name": "newAddress",
          "type": "bytes"
        }
      ],
      "name": "AddressChanged",
      "type": "event"
    },
    {
      "anonymous": false,
      "inputs": [
        {
          "indexed": true,
          "internalType": "address",
          "name": "owner",
          "type": "address"
        },
        {
          "indexed": true,
          "internalType": "address",
          "name": "operator",
          "type": "address"
        },
        {
          "indexed": false,
          "internalType": "bool",
          "name": "approved",
          "type": "bool"
        }
      ],
      "name": "ApprovalForAll",
      "type": "event"
    },
    {
      "anonymous": false,
      "inputs": [
        {
          "indexed": true,
          "internalType": "bytes32",
          "name": "node",
          "type": "bytes32"
        },
        {
          "indexed": false,
          "internalType": "bytes",
          "name": "hash",
          "type": "bytes"
        }
      ],
      "name": "ContenthashChanged",
      "type": "event"
    },
    {
      "anonymous": false,
      "inputs": [
        {
          "indexed": true,
          "internalType": "bytes32",
          "name": "node",
          "type": "bytes32"
        },
        {
          "indexed": false,
          "internalType": "bytes",
          "name": "name",
          "type": "bytes"
        },
        {
          "indexed": false,
          "internalType": "uint16",
          "name": "resource",
          "type": "uint16"
        },
        {
          "indexed": false,
          "internalType": "bytes",
          "name": "record",
          "type": "bytes"
        }
      ],
      "name": "DNSRecordChanged",
      "type": "event"
    },
    {
      "anonymous": false,
      "inputs": [
        {
          "indexed": true,
          "internalType": "bytes32",
          "name": "node",
          "type": "bytes32"
        },
        {
          "indexed": false,
          "internalType": "bytes",
          "name": "name",
          "type": "bytes"
        },
        {
          "indexed": false,
          "internalType": "uint16",
          "name": "resource",
          "type": "uint16"
        }
      ],
      "name": "DNSRecordDeleted",
      "type": "event"
    },
    {
      "anonymous": false,
      "inputs": [
        {
          "indexed": true,
          "internalType": "bytes32",
          "name": "node",
          "type": "bytes32"
        }
      ],
      "name": "DNSZoneCleared",
      "type": "event"
    },
    {
      "anonymous": false,
      "inputs": [
        {
          "indexed": true,
          "internalType": "bytes32",
          "name": "node",
          "type": "bytes32"
        },
        {
          "indexed": false,
          "internalType": "bytes",
          "name": "lastzonehash",
          "type": "bytes"
        },
        {
          "indexed": false,
          "internalType": "bytes",
          "name": "zonehash",
          "type": "bytes"
        }
      ],
      "name": "DNSZonehashChanged",
      "type": "event"
    },
    {
      "anonymous": false,
      "inputs": [
        {
          "indexed": true,
          "internalType": "bytes32",
          "name": "node",
          "type": "bytes32"
        },
        {
          "indexed": true,
          "internalType": "bytes4",
          "name": "interfaceID",
          "type": "bytes4"
        },
        {
          "indexed": false,
          "internalType": "address",
          "name": "implementer",
          "type": "address"
        }
      ],
      "name": "InterfaceChanged",
      "type": "event"
    },
    {
      "anonymous": false,
      "inputs": [
        {
          "indexed": true,
          "internalType": "bytes32",
          "name": "node",
          "type": "bytes32"
        },
        {
          "indexed": false,
          "internalType": "string",
          "name": "name",
          "type": "string"
        }
      ],
      "name": "NameChanged",
      "type": "event"
    },
    {
      "anonymous": false,
      "inputs": [
        {
          "indexed": true,
          "internalType": "bytes32",
          "name": "node",
          "type": "bytes32"
        },
        {
          "indexed": false,
          "internalType": "bytes32",
          "name": "x",
          "type": "bytes32"
        },
        {
          "indexed": false,
          "internalType": "bytes32",
          "name": "y",
          "type": "bytes32"
        }
      ],
      "name": "PubkeyChanged",
      "type": "event"
    },
    {
      "anonymous": false,
      "inputs": [
        {
          "indexed": true,
          "internalType": "bytes32",
          "name": "node",
          "type": "bytes32"
        },
        {
          "indexed": true,
          "internalType": "string",
          "name": "indexedKey",
          "type": "string"
        },
        {
          "indexed": false,
          "internalType": "string",
          "name": "key",
          "type": "string"
        }
      ],
      "name": "TextChanged",
      "type": "event"
    },
    {
      "inputs": [
        {
          "internalType": "bytes32",
          "name": "node",
          "type": "bytes32"
        },
        {
          "internalType": "uint256",
          "name": "contentTypes",
          "type": "uint256"
        }
      ],
      "name": "ABI",
      "outputs": [
        {
          "internalType": "uint256",
          "name": "",
          "type": "uint256"
        },
        {
          "internalType": "bytes",
          "name": "",
          "type": "bytes"
        }
      ],
      "stateMutability": "view",
      "type": "function"
    },
    {
      "inputs": [
        {
          "internalType": "bytes32",
          "name": "node",
          "type": "bytes32"
        }
      ],
      "name": "addr",
      "outputs": [
        {
          "internalType": "address payable",
          "name": "",
          "type": "address"
        }
      ],
      "stateMutability": "view",
      "type": "function"
    },
    {
      "inputs": [
        {
          "internalType": "bytes32",
          "name": "node",
          "type": "bytes32"
        },
        {
          "internalType": "uint256",
          "name": "coinType",
          "type": "uint256"
        }
      ],
      "name": "addr",
      "outputs": [
        {
          "internalType": "bytes",
          "name": "",
          "type": "bytes"
        }
      ],
      "stateMutability": "view",
      "type": "function"
    },
    {
      "inputs": [
        {
          "internalType": "bytes32",
          "name": "node",
          "type": "bytes32"
        }
      ],
      "name": "clearDNSZone",
      "outputs": [],
      "stateMutability": "nonpayable",
      "type": "function"
    },
    {
      "inputs": [
        {
          "internalType": "bytes32",
          "name": "node",
          "type": "bytes32"
        }
      ],
      "name": "contenthash",
      "outputs": [
        {
          "internalType": "bytes",
          "name": "",
          "type": "bytes"
        }
      ],
      "stateMutability": "view",
      "type": "function"
    },
    {
      "inputs": [
        {
          "internalType": "bytes32",
          "name": "node",
          "type": "bytes32"
        },
        {
          "internalType": "bytes32",
          "name": "name",
          "type": "bytes32"
        },
        {
          "internalType": "uint16",
          "name": "resource",
          "type": "uint16"
        }
      ],
      "name": "dnsRecord",
      "outputs": [
        {
          "internalType": "bytes",
          "name": "",
          "type": "bytes"
        }
      ],
      "stateMutability": "view",
      "type": "function"
    },
    {
      "inputs": [
        {
          "internalType": "bytes32",
          "name": "node",
          "type": "bytes32"
        },
        {
          "internalType": "bytes32",
          "name": "name",
          "type": "bytes32"
        }
      ],
      "name": "hasDNSRecords",
      "outputs": [
        {
          "internalType": "bool",
          "name": "",
          "type": "bool"
        }
      ],
      "stateMutability": "view",
      "type": "function"
    },
    {
      "inputs": [
        {
          "internalType": "bytes32",
          "name": "node",
          "type": "bytes32"
        },
        {
          "internalType": "bytes4",
          "name": "interfaceID",
          "type": "bytes4"
        }
      ],
      "name": "interfaceImplementer",
      "outputs": [
        {
          "internalType": "address",
          "name": "",
          "type": "address"
        }
      ],
      "stateMutability": "view",
      "type": "function"
    },
    {
      "inputs": [
        {
          "internalType": "address",
          "name": "account",
          "type": "address"
        },
        {
          "internalType": "address",
          "name": "operator",
          "type": "address"
        }
      ],
      "name": "isApprovedForAll",
      "outputs": [
        {
          "internalType": "bool",
          "name": "",
          "type": "bool"
        }
      ],
      "stateMutability": "view",
      "type": "function"
    },
    {
      "inputs": [
        {
          "internalType": "bytes[]",
          "name": "data",
          "type": "bytes[]"
        }
      ],
      "name": "multicall",
      "outputs": [
        {
          "internalType": "bytes[]",
          "name": "results",
          "type": "bytes[]"
        }
      ],
      "stateMutability": "nonpayable",
      "type": "function"
    },
    {
      "inputs": [
        {
          "internalType": "bytes32",
          "name": "node",
          "type": "bytes32"
        }
      ],
      "name": "name",
      "outputs": [
        {
          "internalType": "string",
          "name": "",
          "type": "string"
        }
      ],
      "stateMutability": "view",
      "type": "function"
    },
    {
      "inputs": [
        {
          "internalType": "bytes32",
          "name": "node",
          "type": "bytes32"
        }
      ],
      "name": "pubkey",
      "outputs": [
        {
          "internalType": "bytes32",
          "name": "x",
          "type": "bytes32"
        },
        {
          "internalType": "bytes32",
          "name": "y",
          "type": "bytes32"
        }
      ],
      "stateMutability": "view",
      "type": "function"
    },
    {
      "inputs": [
        {
          "internalType": "bytes32",
          "name": "node",
          "type": "bytes32"
        },
        {
          "internalType": "uint256",
          "name": "contentType",
          "type": "uint256"
        },
        {
          "internalType": "bytes",
          "name": "data",
          "type": "bytes"
        }
      ],
      "name": "setABI",
      "outputs": [],
      "stateMutability": "nonpayable",
      "type": "function"
    },
    {
      "inputs": [
        {
          "internalType": "bytes32",
          "name": "node",
          "type": "bytes32"
        },
        {
          "internalType": "uint256",
          "name": "coinType",
          "type": "uint256"
        },
        {
          "internalType": "bytes",
          "name": "a",
          "type": "bytes"
        }
      ],
      "name": "setAddr",
      "outputs": [],
      "stateMutability": "nonpayable",
      "type": "function"
    },
    {
      "inputs": [
        {
          "internalType": "bytes32",
          "name": "node",
          "type": "bytes32"
        },
        {
          "internalType": "address",
          "name": "a",
          "type": "address"
        }
      ],
      "name": "setAddr",
      "outputs": [],
      "stateMutability": "nonpayable",
      "type": "function"
    },
    {
      "inputs": [
        {
          "internalType": "address",
          "name": "operator",
          "type": "address"
        },
        {
          "internalType": "bool",
          "name": "approved",
          "type": "bool"
        }
      ],
      "name": "setApprovalForAll",
      "outputs": [],
      "stateMutability": "nonpayable",
      "type": "function"
    },
    {
      "inputs": [
        {
          "internalType": "bytes32",
          "name": "node",
          "type": "bytes32"
        },
        {
          "internalType": "bytes",
          "name": "hash",
          "type": "bytes"
        }
      ],
      "name": "setContenthash",
      "outputs": [],
      "stateMutability": "nonpayable",
      "type": "function"
    },
    {
      "inputs": [
        {
          "internalType": "bytes32",
          "name": "node",
          "type": "bytes32"
        },
        {
          "internalType": "bytes",
          "name": "data",
          "type": "bytes"
        }
      ],
      "name": "setDNSRecords",
      "outputs": [],
      "stateMutability": "nonpayable",
      "type": "function"
    },
    {
      "inputs": [
        {
          "internalType": "bytes32",
          "name": "node",
          "type": "bytes32"
        },
        {
          "internalType": "bytes4",
          "name": "interfaceID",
          "type": "bytes4"
        },
        {
          "internalType": "address",
          "name": "implementer",
          "type": "address"
        }
      ],
      "name": "setInterface",
      "outputs": [],
      "stateMutability": "nonpayable",
      "type": "function"
    },
    {
      "inputs": [
        {
          "internalType": "bytes32",
          "name": "node",
          "type": "bytes32"
        },
        {
          "internalType": "string",
          "name": "newName",
          "type": "string"
        }
      ],
      "name": "setName",
      "outputs": [],
      "stateMutability": "nonpayable",
      "type": "function"
    },
    {
      "inputs": [
        {
          "internalType": "bytes32",
          "name": "node",
          "type": "bytes32"
        },
        {
          "internalType": "bytes32",
          "name": "x",
          "type": "bytes32"
        },
        {
          "internalType": "bytes32",
          "name": "y",
          "type": "bytes32"
        }
      ],
      "name": "setPubkey",
      "outputs": [],
      "stateMutability": "nonpayable",
      "type": "function"
    },
    {
      "inputs": [
        {
          "internalType": "bytes32",
          "name": "node",
          "type": "bytes32"
        },
        {
          "internalType": "string",
          "name": "key",
          "type": "string"
        },
        {
          "internalType": "string",
          "name": "value",
          "type": "string"
        }
      ],
      "name": "setText",
      "outputs": [],
      "stateMutability": "nonpayable",
      "type": "function"
    },
    {
      "inputs": [
        {
          "internalType": "bytes32",
          "name": "node",
          "type": "bytes32"
        },
        {
          "internalType": "bytes",
          "name": "hash",
          "type": "bytes"
        }
      ],
      "name": "setZonehash",
      "outputs": [],
      "stateMutability": "nonpayable",
      "type": "function"
    },
    {
      "inputs": [
        {
          "internalType": "bytes4",
          "name": "interfaceID",
          "type": "bytes4"
        }
      ],
      "name": "supportsInterface",
      "outputs": [
        {
          "internalType": "bool",
          "name": "",
          "type": "bool"
        }
      ],
      "stateMutability": "pure",
      "type": "function"
    },
    {
      "inputs": [
        {
          "internalType": "bytes32",
          "name": "node",
          "type": "bytes32"
        },
        {
          "internalType": "string",
          "name": "key",
          "type": "string"
        }
      ],
      "name": "text",
      "outputs": [
        {
          "internalType": "string",
          "name": "",
          "type": "string"
        }
      ],
      "stateMutability": "view",
      "type": "function"
    },
    {
      "inputs": [
        {
          "internalType": "bytes32",
          "name": "node",
          "type": "bytes32"
        }
      ],
      "name": "zonehash",
      "outputs": [
        {
          "internalType": "bytes",
          "name": "",
          "type": "bytes"
        }
      ],
      "stateMutability": "view",
      "type": "function"
    }
  ],
  "bytecode": {
    "object": "0x60806040523480156200001157600080fd5b50604051620026bb380380620026bb833981016040819052620000349162000066565b600b80546001600160a01b039384166001600160a01b031991821617909155600c8054929093169116179055620000be565b600080604083850312156200007a57600080fd5b82516200008781620000a5565b60208401519092506200009a81620000a5565b809150509250929050565b6001600160a01b0381168114620000bb57600080fd5b50565b6125ed80620000ce6000396000f3fe608060405234801561001057600080fd5b506004361061018e5760003560e01c806377372213116100de578063bc1c58d111610097578063d5fa2b0011610071578063d5fa2b00146103e3578063e59d895d146103f6578063e985e9c514610409578063f1cb7e061461044557600080fd5b8063bc1c58d114610380578063c869023314610393578063ce3decdc146103d057600080fd5b806377372213146103015780638b95dd7114610314578063a22cb46514610327578063a8fa56821461033a578063ac9650d81461034d578063ad5780af1461036d57600080fd5b8063304e6ade1161014b57806359d1d43c1161012557806359d1d43c146102a85780635c98042b146102c8578063623195b0146102db578063691f3431146102ee57600080fd5b8063304e6ade146102425780633b3b57de146102555780634cbf6ba41461026857600080fd5b806301ffc9a7146101935780630af179d7146101bb57806310f13a8c146101d0578063124a319c146101e35780632203ab561461020e57806329cd62ea1461022f575b600080fd5b6101a66101a1366004612274565b610458565b60405190151581526020015b60405180910390f35b6101ce6101c9366004612097565b610483565b005b6101ce6101de3660046120e3565b61066e565b6101f66101f1366004612036565b61071b565b6040516001600160a01b0390911681526020016101b2565b61022161021c366004611fa8565b610953565b6040516101b292919061241e565b6101ce61023d366004611fca565b610a6e565b6101ce610250366004612097565b610aee565b6101f6610263366004611f6a565b610b4d565b6101a6610276366004611fa8565b600091825260066020908152604080842060048352818520548552825280842092845291905290205461ffff16151590565b6102bb6102b6366004612097565b610b80565b6040516101b29190612386565b6102bb6102d6366004611f6a565b610c45565b6101ce6102e936600461215d565b610ce7565b6102bb6102fc366004611f6a565b610d68565b6101ce61030f366004612097565b610d85565b6101ce6103223660046121b0565b610de4565b6101ce610335366004611ec2565b610eaf565b6102bb610348366004611ff6565b610f8a565b61036061035b366004611ef5565b610fcd565b6040516101b29190612310565b6101ce61037b366004611f6a565b6110e8565b6102bb61038e366004611f6a565b611149565b6103bb6103a1366004611f6a565b600090815260096020526040902080546001909101549091565b604080519283526020830191909152016101b2565b6101ce6103de366004612097565b611166565b6101ce6103f1366004611f83565b611272565b6101ce610404366004612062565b611299565b6101a6610417366004611e89565b6001600160a01b039182166000908152600d6020908152604080832093909416825291909152205460ff1690565b6102bb610453366004611fa8565b611326565b60006001600160e01b03198216631592ca1b60e31b148061047d575061047d826113d4565b92915050565b8261048d816113f9565b61049657600080fd5b6000806060806000806104e360008a8a8080601f01602080910402602001604051908101604052809392919081815260200183838082843760009201919091525092939250506115509050565b90505b805151602082015110156106095761ffff8616610548578060400151955061050d816115b1565b93508360405160200161052091906122f4565b604051602081830303815290604052805190602001209150610541816115d2565b92506105fb565b6000610553826115b1565b9050816040015161ffff168761ffff16141580610577575061057585826115ee565b155b156105f9576105d28b86898d8d8080601f016020809104026020016040519081016040528093929190818152602001838380828437600092019190915250505060208801518c91506105ca908290612496565b8a511561160c565b8160400151965081602001519550809450848051906020012092506105f6826115d2565b93505b505b6106048161184e565b6104e6565b50825115610663576106638984878b8b8080601f0160208091040260200160405190810160405280939291908181526020018383808284376000920191909152508b925061065b91508290508e612496565b88511561160c565b505050505050505050565b84610678816113f9565b61068157600080fd5b8282600a600089815260200190815260200160002087876040516106a69291906122e4565b9081526040519081900360200190206106c0929091611cc3565b5084846040516106d19291906122e4565b6040518091039020867fd8c9334b1a9c2f9da342a0a2b32629c1a229b6445dad78947f674b44444a7550878760405161070b929190612372565b60405180910390a3505050505050565b60008281526007602090815260408083206001600160e01b0319851684529091528120546001600160a01b0316801561075557905061047d565b600061076085610b4d565b90506001600160a01b03811661077b5760009250505061047d565b6040516301ffc9a760e01b602482015260009081906001600160a01b0384169060440160408051601f198184030181529181526020820180516001600160e01b03166301ffc9a760e01b179052516107d391906122f4565b600060405180830381855afa9150503d806000811461080e576040519150601f19603f3d011682016040523d82523d6000602084013e610813565b606091505b5091509150811580610826575060208151105b80610850575080601f8151811061083f5761083f61259f565b01602001516001600160f81b031916155b1561086257600094505050505061047d565b6040516001600160e01b0319871660248201526001600160a01b0384169060440160408051601f198184030181529181526020820180516001600160e01b03166301ffc9a760e01b179052516108b891906122f4565b600060405180830381855afa9150503d80600081146108f3576040519150601f19603f3d011682016040523d82523d6000602084013e6108f8565b606091505b50909250905081158061090c575060208151105b80610936575080601f815181106109255761092561259f565b01602001516001600160f81b031916155b1561094857600094505050505061047d565b509095945050505050565b600082815260208190526040812060609060015b848111610a4e5780851615801590610997575060008181526020839052604081208054610993906124fb565b9050115b15610a4657808260008381526020019081526020016000208080546109bb906124fb565b80601f01602080910402602001604051908101604052809291908181526020018280546109e7906124fb565b8015610a345780601f10610a0957610100808354040283529160200191610a34565b820191906000526020600020905b815481529060010190602001808311610a1757829003601f168201915b50505050509050935093505050610a67565b60011b610967565b5060006040518060200160405280600081525092509250505b9250929050565b82610a78816113f9565b610a8157600080fd5b60408051808201825284815260208082018581526000888152600983528490209251835551600190920191909155815185815290810184905285917f1d6f5e03d3f63eb58751986629a5439baee5079ff04f345becb66e23eb154e4691015b60405180910390a250505050565b82610af8816113f9565b610b0157600080fd5b6000848152600260205260409020610b1a908484611cc3565b50837fe379c1624ed7e714cc0937528a32359d69d5281337765313dba4e081b72d75788484604051610ae0929190612372565b600080610b5b83603c611326565b9050805160001415610b705750600092915050565b610b7981611936565b9392505050565b6060600a60008581526020019081526020016000208383604051610ba59291906122e4565b90815260200160405180910390208054610bbe906124fb565b80601f0160208091040260200160405190810160405280929190818152602001828054610bea906124fb565b8015610c375780601f10610c0c57610100808354040283529160200191610c37565b820191906000526020600020905b815481529060010190602001808311610c1a57829003601f168201915b505050505090509392505050565b6000818152600360205260409020805460609190610c62906124fb565b80601f0160208091040260200160405190810160405280929190818152602001828054610c8e906124fb565b8015610cdb5780601f10610cb057610100808354040283529160200191610cdb565b820191906000526020600020905b815481529060010190602001808311610cbe57829003601f168201915b50505050509050919050565b83610cf1816113f9565b610cfa57600080fd5b83610d06600182612496565b1615610d1157600080fd5b6000858152602081815260408083208784529091529020610d33908484611cc3565b50604051849086907faa121bbeef5f32f5961a2a28966e769023910fc9479059ee3495d4c1a696efe390600090a35050505050565b6000818152600860205260409020805460609190610c62906124fb565b82610d8f816113f9565b610d9857600080fd5b6000848152600860205260409020610db1908484611cc3565b50837fb7d29e911041e8d9b843369e890bcb72c9388692ba48b65ac54e7214c4c348f78484604051610ae0929190612372565b82610dee816113f9565b610df757600080fd5b837f65412581168e88a1e60c6459d7f44ae83ad0832e670826c05a4e2476b57af7528484604051610e2992919061241e565b60405180910390a2603c831415610e8157837f52d7d861f09ab3d26239d492e8968629f95e9e318cf0b73bfddc441522a15fd2610e6584611936565b6040516001600160a01b03909116815260200160405180910390a25b600084815260016020908152604080832086845282529091208351610ea892850190611d47565b5050505050565b336001600160a01b0383161415610f1e5760405162461bcd60e51b815260206004820152602960248201527f455243313135353a2073657474696e6720617070726f76616c20737461747573604482015268103337b91039b2b63360b91b606482015260840160405180910390fd5b336000818152600d602090815260408083206001600160a01b03871680855290835292819020805460ff191686151590811790915590519081529192917f17307eab39ab6107e8899845ad3d59bd9653f200f220920489ca2b5937696c31910160405180910390a35050565b6000838152600560209081526040808320600483528184205484528252808320858452825280832061ffff851684529091529020805460609190610bbe906124fb565b60608167ffffffffffffffff811115610fe857610fe86125b5565b60405190808252806020026020018201604052801561101b57816020015b60608152602001906001900390816110065790505b50905060005b828110156110e1576000803086868581811061103f5761103f61259f565b90506020028101906110519190612437565b60405161105f9291906122e4565b600060405180830381855af49150503d806000811461109a576040519150601f19603f3d011682016040523d82523d6000602084013e61109f565b606091505b5091509150816110ae57600080fd5b808484815181106110c1576110c161259f565b6020026020010181905250505080806110d990612558565b915050611021565b5092915050565b806110f2816113f9565b6110fb57600080fd5b600082815260046020526040812080549161111583612558565b909155505060405182907fb757169b8492ca2f1c6619d9d76ce22803035c3b1d5f6930dffe7b127c1a198390600090a25050565b6000818152600260205260409020805460609190610c62906124fb565b82611170816113f9565b61117957600080fd5b60008481526003602052604081208054611192906124fb565b80601f01602080910402602001604051908101604052809291908181526020018280546111be906124fb565b801561120b5780601f106111e05761010080835404028352916020019161120b565b820191906000526020600020905b8154815290600101906020018083116111ee57829003601f168201915b505050600088815260036020526040902092935061122e92915086905085611cc3565b50847f8f15ed4b723ef428f250961da8315675b507046737e19319fc1a4d81bfe87f8582868660405161126393929190612399565b60405180910390a25050505050565b8161127c816113f9565b61128557600080fd5b61129483603c61032285611955565b505050565b826112a3816113f9565b6112ac57600080fd5b60008481526007602090815260408083206001600160e01b031987168085529083529281902080546001600160a01b0319166001600160a01b038716908117909155905190815286917f7c69f06bea0bdef565b709e93a147836b0063ba2dd89f02d0b7e8d931e6a6daa910160405180910390a350505050565b6000828152600160209081526040808320848452909152902080546060919061134e906124fb565b80601f016020809104026020016040519081016040528092919081815260200182805461137a906124fb565b80156113c75780601f1061139c576101008083540402835291602001916113c7565b820191906000526020600020905b8154815290600101906020018083116113aa57829003601f168201915b5050505050905092915050565b60006001600160e01b03198216631674750f60e21b148061047d575061047d82611985565b600b546040516302571be360e01b81526004810183905260009182916001600160a01b03909116906302571be39060240160206040518083038186803b15801561144257600080fd5b505afa158015611456573d6000803e3d6000fd5b505050506040513d601f19601f8201168201806040525081019061147a9190611e6c565b600c549091506001600160a01b038083169116141561151257600c546040516331a9108f60e11b8152600481018590526001600160a01b0390911690636352211e9060240160206040518083038186803b1580156114d757600080fd5b505afa1580156114eb573d6000803e3d6000fd5b505050506040513d601f19601f8201168201806040525081019061150f9190611e6c565b90505b6001600160a01b038116331480610b7957506001600160a01b0381166000908152600d6020908152604080832033845290915290205460ff16610b79565b61159e6040518060e001604052806060815260200160008152602001600061ffff168152602001600061ffff168152602001600063ffffffff16815260200160008152602001600081525090565b82815260c0810182905261047d8161184e565b6020810151815160609161047d916115c990826119aa565b84519190611a09565b60a081015160c082015160609161047d916115c9908290612496565b600081518351148015610b795750610b798360008460008751611a80565b60008781526004602090815260408220548851918901919091209091611633878787611a09565b9050831561173c5760008a81526005602090815260408083208684528252808320858452825280832061ffff8c16845290915290208054611673906124fb565b1590506116c75760008a815260066020908152604080832086845282528083208584529091528120805461ffff16916116ab836124dd565b91906101000a81548161ffff021916908361ffff160217905550505b60008a81526005602090815260408083208684528252808320858452825280832061ffff8c16845290915281206116fd91611dbb565b897f03528ed0c2a3ebc993b12ce3c16bb382f9c7d88ef7d8a1bf290eaf35955a12078a8a60405161172f9291906123c9565b60405180910390a2611842565b60008a81526005602090815260408083208684528252808320858452825280832061ffff8c16845290915290208054611774906124fb565b151590506117c95760008a815260066020908152604080832086845282528083208584529091528120805461ffff16916117ad83612536565b91906101000a81548161ffff021916908361ffff160217905550505b60008a81526005602090815260408083208684528252808320858452825280832061ffff8c1684528252909120825161180492840190611d47565b50897f52a608b3303a48862d07a73d82fa221318c0027fbbcfb1b2329bface3f19ff2b8a8a84604051611839939291906123ef565b60405180910390a25b50505050505050505050565b60c081015160208201819052815151116118655750565b6000611879826000015183602001516119aa565b8260200151611888919061247e565b82519091506118979082611aa3565b61ffff1660408301526118ab60028261247e565b82519091506118ba9082611aa3565b61ffff1660608301526118ce60028261247e565b82519091506118dd9082611acb565b63ffffffff1660808301526118f360048261247e565b82519091506000906119059083611aa3565b61ffff16905061191660028361247e565b60a084018190529150611929818361247e565b60c0909301929092525050565b6000815160141461194657600080fd5b5060200151600160601b900490565b604080516014808252818301909252606091602082018180368337505050600160601b9290920260208301525090565b60006001600160e01b0319821663c869023360e01b148061047d575061047d82611af5565b6000815b835181106119be576119be612573565b60006119ca8583611b1a565b60ff1690506119da81600161247e565b6119e4908361247e565b9150806119f157506119f7565b506119ae565b611a018382612496565b949350505050565b8251606090611a18838561247e565b1115611a2357600080fd5b60008267ffffffffffffffff811115611a3e57611a3e6125b5565b6040519080825280601f01601f191660200182016040528015611a68576020820181803683370190505b50905060208082019086860101610948828287611b3e565b6000611a8d848484611b94565b611a98878785611b94565b149695505050505050565b8151600090611ab383600261247e565b1115611abe57600080fd5b50016002015161ffff1690565b8151600090611adb83600461247e565b1115611ae657600080fd5b50016004015163ffffffff1690565b60006001600160e01b0319821663691f343160e01b148061047d575061047d82611bb8565b6000828281518110611b2e57611b2e61259f565b016020015160f81c905092915050565b60208110611b765781518352611b5560208461247e565b9250611b6260208361247e565b9150611b6f602082612496565b9050611b3e565b905182516020929092036101000a6000190180199091169116179052565b8251600090611ba3838561247e565b1115611bae57600080fd5b5091016020012090565b60006001600160e01b031982166304928c6760e21b148061047d575061047d8260006001600160e01b0319821663547d2b4160e11b1480611c0957506001600160e01b03198216635c98042b60e01b145b8061047d575061047d8260006001600160e01b0319821663bc1c58d160e01b148061047d575061047d8260006001600160e01b03198216631d9dabef60e11b1480611c6457506001600160e01b031982166378e5bf0360e11b145b8061047d575061047d8260006001600160e01b03198216631101d5ab60e11b148061047d575061047d8260006001600160e01b03198216631592ca1b60e31b148061047d57506301ffc9a760e01b6001600160e01b031983161461047d565b828054611ccf906124fb565b90600052602060002090601f016020900481019282611cf15760008555611d37565b82601f10611d0a5782800160ff19823516178555611d37565b82800160010185558215611d37579182015b82811115611d37578235825591602001919060010190611d1c565b50611d43929150611df8565b5090565b828054611d53906124fb565b90600052602060002090601f016020900481019282611d755760008555611d37565b82601f10611d8e57805160ff1916838001178555611d37565b82800160010185558215611d37579182015b82811115611d37578251825591602001919060010190611da0565b508054611dc7906124fb565b6000825580601f10611dd7575050565b601f016020900490600052602060002090810190611df59190611df8565b50565b5b80821115611d435760008155600101611df9565b80356001600160e01b031981168114611e2557600080fd5b919050565b60008083601f840112611e3c57600080fd5b50813567ffffffffffffffff811115611e5457600080fd5b602083019150836020828501011115610a6757600080fd5b600060208284031215611e7e57600080fd5b8151610b79816125cb565b60008060408385031215611e9c57600080fd5b8235611ea7816125cb565b91506020830135611eb7816125cb565b809150509250929050565b60008060408385031215611ed557600080fd5b8235611ee0816125cb565b915060208301358015158114611eb757600080fd5b60008060208385031215611f0857600080fd5b823567ffffffffffffffff80821115611f2057600080fd5b818501915085601f830112611f3457600080fd5b813581811115611f4357600080fd5b8660208260051b8501011115611f5857600080fd5b60209290920196919550909350505050565b600060208284031215611f7c57600080fd5b5035919050565b60008060408385031215611f9657600080fd5b823591506020830135611eb7816125cb565b60008060408385031215611fbb57600080fd5b50508035926020909101359150565b600080600060608486031215611fdf57600080fd5b505081359360208301359350604090920135919050565b60008060006060848603121561200b57600080fd5b8335925060208401359150604084013561ffff8116811461202b57600080fd5b809150509250925092565b6000806040838503121561204957600080fd5b8235915061205960208401611e0d565b90509250929050565b60008060006060848603121561207757600080fd5b8335925061208760208501611e0d565b9150604084013561202b816125cb565b6000806000604084860312156120ac57600080fd5b83359250602084013567ffffffffffffffff8111156120ca57600080fd5b6120d686828701611e2a565b9497909650939450505050565b6000806000806000606086880312156120fb57600080fd5b85359450602086013567ffffffffffffffff8082111561211a57600080fd5b61212689838a01611e2a565b9096509450604088013591508082111561213f57600080fd5b5061214c88828901611e2a565b969995985093965092949392505050565b6000806000806060858703121561217357600080fd5b8435935060208501359250604085013567ffffffffffffffff81111561219857600080fd5b6121a487828801611e2a565b95989497509550505050565b6000806000606084860312156121c557600080fd5b8335925060208401359150604084013567ffffffffffffffff808211156121eb57600080fd5b818601915086601f8301126121ff57600080fd5b813581811115612211576122116125b5565b604051601f8201601f19908116603f01168101908382118183101715612239576122396125b5565b8160405282815289602084870101111561225257600080fd5b8260208601602083013760006020848301015280955050505050509250925092565b60006020828403121561228657600080fd5b610b7982611e0d565b81835281816020850137506000828201602090810191909152601f909101601f19169091010190565b600081518084526122d08160208601602086016124ad565b601f01601f19169290920160200192915050565b8183823760009101908152919050565b600082516123068184602087016124ad565b9190910192915050565b6000602080830181845280855180835260408601915060408160051b870101925083870160005b8281101561236557603f198886030184526123538583516122b8565b94509285019290850190600101612337565b5092979650505050505050565b602081526000611a0160208301848661228f565b602081526000610b7960208301846122b8565b6040815260006123ac60408301866122b8565b82810360208401526123bf81858761228f565b9695505050505050565b6040815260006123dc60408301856122b8565b905061ffff831660208301529392505050565b60608152600061240260608301866122b8565b61ffff8516602084015282810360408401526123bf81856122b8565b828152604060208201526000611a0160408301846122b8565b6000808335601e1984360301811261244e57600080fd5b83018035915067ffffffffffffffff82111561246957600080fd5b602001915036819003821315610a6757600080fd5b6000821982111561249157612491612589565b500190565b6000828210156124a8576124a8612589565b500390565b60005b838110156124c85781810151838201526020016124b0565b838111156124d7576000848401525b50505050565b600061ffff8216806124f1576124f1612589565b6000190192915050565b600181811c9082168061250f57607f821691505b6020821081141561253057634e487b7160e01b600052602260045260246000fd5b50919050565b600061ffff8083168181141561254e5761254e612589565b6001019392505050565b600060001982141561256c5761256c612589565b5060010190565b634e487b7160e01b600052600160045260246000fd5b634e487b7160e01b600052601160045260246000fd5b634e487b7160e01b600052603260045260246000fd5b634e487b7160e01b600052604160045260246000fd5b6001600160a01b0381168114611df557600080fdfea164736f6c6343000806000a",
    "linkReferences": {}
  }
}