{
  "abi": [
    {
      "inputs": [],
      "name": "SET_ENS_NAME_FOR",
      "outputs": [
        {
          "internalType": "uint256",
          "name": "",
          "type": "uint256"
        }
      ],
      "stateMutability": "view",
      "type": "function"
    }
  ],
  "bytecode": {
    "object": "0x605e610038600b82828239805160001a607314602b57634e487b7160e01b600052600060045260246000fd5b30600052607381538281f3fe730000000000000000000000000000000000000000301460806040526004361060335760003560e01c806333c658f1146038575b600080fd5b603f601381565b60405190815260200160405180910390f3fea164736f6c6343000806000a",
    "linkReferences": {}
  },
  "deployedBytecode": {
    "object": "0x730000000000000000000000000000000000000000301460806040526004361060335760003560e01c806333c658f1146038575b600080fd5b603f601381565b60405190815260200160405180910390f3fea164736f6c6343000806000a",
    "linkReferences": {}
  }
}